Archive member included to satisfy reference by file (symbol)

c:/nxp/mcuxpressoide_11.5.1_7266/ide/plugins/com.nxp.mcuxpresso.tools.win32_11.5.1.202201181444/tools/bin/../lib/gcc/arm-none-eabi/10.3.1/../../../../arm-none-eabi/lib/thumb/v8-m.main+fp/hard\libc_nano.a(lib_a-assert.o)
                              _build/lpcxpresso55s28/obj/hw/mcu/nxp/mcux-sdk/devices/LPC55S28/drivers/fsl_clock.o (symbol from plugin) (__assert_func)
c:/nxp/mcuxpressoide_11.5.1_7266/ide/plugins/com.nxp.mcuxpresso.tools.win32_11.5.1.202201181444/tools/bin/../lib/gcc/arm-none-eabi/10.3.1/../../../../arm-none-eabi/lib/thumb/v8-m.main+fp/hard\libc_nano.a(lib_a-exit.o)
                              c:/nxp/mcuxpressoide_11.5.1_7266/ide/plugins/com.nxp.mcuxpresso.tools.win32_11.5.1.202201181444/tools/bin/../lib/gcc/arm-none-eabi/10.3.1/../../../../arm-none-eabi/lib/thumb/v8-m.main+fp/hard/crt0.o (exit)
c:/nxp/mcuxpressoide_11.5.1_7266/ide/plugins/com.nxp.mcuxpresso.tools.win32_11.5.1.202201181444/tools/bin/../lib/gcc/arm-none-eabi/10.3.1/../../../../arm-none-eabi/lib/thumb/v8-m.main+fp/hard\libc_nano.a(lib_a-fprintf.o)
                              c:/nxp/mcuxpressoide_11.5.1_7266/ide/plugins/com.nxp.mcuxpresso.tools.win32_11.5.1.202201181444/tools/bin/../lib/gcc/arm-none-eabi/10.3.1/../../../../arm-none-eabi/lib/thumb/v8-m.main+fp/hard\libc_nano.a(lib_a-assert.o) (fiprintf)
c:/nxp/mcuxpressoide_11.5.1_7266/ide/plugins/com.nxp.mcuxpresso.tools.win32_11.5.1.202201181444/tools/bin/../lib/gcc/arm-none-eabi/10.3.1/../../../../arm-none-eabi/lib/thumb/v8-m.main+fp/hard\libc_nano.a(lib_a-impure.o)
                              c:/nxp/mcuxpressoide_11.5.1_7266/ide/plugins/com.nxp.mcuxpresso.tools.win32_11.5.1.202201181444/tools/bin/../lib/gcc/arm-none-eabi/10.3.1/../../../../arm-none-eabi/lib/thumb/v8-m.main+fp/hard\libc_nano.a(lib_a-exit.o) (_global_impure_ptr)
c:/nxp/mcuxpressoide_11.5.1_7266/ide/plugins/com.nxp.mcuxpresso.tools.win32_11.5.1.202201181444/tools/bin/../lib/gcc/arm-none-eabi/10.3.1/../../../../arm-none-eabi/lib/thumb/v8-m.main+fp/hard\libc_nano.a(lib_a-init.o)
                              c:/nxp/mcuxpressoide_11.5.1_7266/ide/plugins/com.nxp.mcuxpresso.tools.win32_11.5.1.202201181444/tools/bin/../lib/gcc/arm-none-eabi/10.3.1/../../../../arm-none-eabi/lib/thumb/v8-m.main+fp/hard/crt0.o (__libc_init_array)
c:/nxp/mcuxpressoide_11.5.1_7266/ide/plugins/com.nxp.mcuxpresso.tools.win32_11.5.1.202201181444/tools/bin/../lib/gcc/arm-none-eabi/10.3.1/../../../../arm-none-eabi/lib/thumb/v8-m.main+fp/hard\libc_nano.a(lib_a-memset.o)
                              c:/nxp/mcuxpressoide_11.5.1_7266/ide/plugins/com.nxp.mcuxpresso.tools.win32_11.5.1.202201181444/tools/bin/../lib/gcc/arm-none-eabi/10.3.1/../../../../arm-none-eabi/lib/thumb/v8-m.main+fp/hard/crt0.o (memset)
c:/nxp/mcuxpressoide_11.5.1_7266/ide/plugins/com.nxp.mcuxpresso.tools.win32_11.5.1.202201181444/tools/bin/../lib/gcc/arm-none-eabi/10.3.1/../../../../arm-none-eabi/lib/thumb/v8-m.main+fp/hard\libc_nano.a(lib_a-nano-vfprintf.o)
                              c:/nxp/mcuxpressoide_11.5.1_7266/ide/plugins/com.nxp.mcuxpresso.tools.win32_11.5.1.202201181444/tools/bin/../lib/gcc/arm-none-eabi/10.3.1/../../../../arm-none-eabi/lib/thumb/v8-m.main+fp/hard\libc_nano.a(lib_a-fprintf.o) (_vfprintf_r)
c:/nxp/mcuxpressoide_11.5.1_7266/ide/plugins/com.nxp.mcuxpresso.tools.win32_11.5.1.202201181444/tools/bin/../lib/gcc/arm-none-eabi/10.3.1/../../../../arm-none-eabi/lib/thumb/v8-m.main+fp/hard\libc_nano.a(lib_a-nano-vfprintf_i.o)
                              c:/nxp/mcuxpressoide_11.5.1_7266/ide/plugins/com.nxp.mcuxpresso.tools.win32_11.5.1.202201181444/tools/bin/../lib/gcc/arm-none-eabi/10.3.1/../../../../arm-none-eabi/lib/thumb/v8-m.main+fp/hard\libc_nano.a(lib_a-nano-vfprintf.o) (_printf_i)
c:/nxp/mcuxpressoide_11.5.1_7266/ide/plugins/com.nxp.mcuxpresso.tools.win32_11.5.1.202201181444/tools/bin/../lib/gcc/arm-none-eabi/10.3.1/../../../../arm-none-eabi/lib/thumb/v8-m.main+fp/hard\libc_nano.a(lib_a-wbuf.o)
                              c:/nxp/mcuxpressoide_11.5.1_7266/ide/plugins/com.nxp.mcuxpresso.tools.win32_11.5.1.202201181444/tools/bin/../lib/gcc/arm-none-eabi/10.3.1/../../../../arm-none-eabi/lib/thumb/v8-m.main+fp/hard\libc_nano.a(lib_a-nano-vfprintf.o) (__swbuf_r)
c:/nxp/mcuxpressoide_11.5.1_7266/ide/plugins/com.nxp.mcuxpresso.tools.win32_11.5.1.202201181444/tools/bin/../lib/gcc/arm-none-eabi/10.3.1/../../../../arm-none-eabi/lib/thumb/v8-m.main+fp/hard\libc_nano.a(lib_a-wsetup.o)
                              c:/nxp/mcuxpressoide_11.5.1_7266/ide/plugins/com.nxp.mcuxpresso.tools.win32_11.5.1.202201181444/tools/bin/../lib/gcc/arm-none-eabi/10.3.1/../../../../arm-none-eabi/lib/thumb/v8-m.main+fp/hard\libc_nano.a(lib_a-nano-vfprintf.o) (__swsetup_r)
c:/nxp/mcuxpressoide_11.5.1_7266/ide/plugins/com.nxp.mcuxpresso.tools.win32_11.5.1.202201181444/tools/bin/../lib/gcc/arm-none-eabi/10.3.1/../../../../arm-none-eabi/lib/thumb/v8-m.main+fp/hard\libc_nano.a(lib_a-abort.o)
                              c:/nxp/mcuxpressoide_11.5.1_7266/ide/plugins/com.nxp.mcuxpresso.tools.win32_11.5.1.202201181444/tools/bin/../lib/gcc/arm-none-eabi/10.3.1/../../../../arm-none-eabi/lib/thumb/v8-m.main+fp/hard\libc_nano.a(lib_a-assert.o) (abort)
c:/nxp/mcuxpressoide_11.5.1_7266/ide/plugins/com.nxp.mcuxpresso.tools.win32_11.5.1.202201181444/tools/bin/../lib/gcc/arm-none-eabi/10.3.1/../../../../arm-none-eabi/lib/thumb/v8-m.main+fp/hard\libc_nano.a(lib_a-fflush.o)
                              c:/nxp/mcuxpressoide_11.5.1_7266/ide/plugins/com.nxp.mcuxpresso.tools.win32_11.5.1.202201181444/tools/bin/../lib/gcc/arm-none-eabi/10.3.1/../../../../arm-none-eabi/lib/thumb/v8-m.main+fp/hard\libc_nano.a(lib_a-wbuf.o) (_fflush_r)
c:/nxp/mcuxpressoide_11.5.1_7266/ide/plugins/com.nxp.mcuxpresso.tools.win32_11.5.1.202201181444/tools/bin/../lib/gcc/arm-none-eabi/10.3.1/../../../../arm-none-eabi/lib/thumb/v8-m.main+fp/hard\libc_nano.a(lib_a-findfp.o)
                              c:/nxp/mcuxpressoide_11.5.1_7266/ide/plugins/com.nxp.mcuxpresso.tools.win32_11.5.1.202201181444/tools/bin/../lib/gcc/arm-none-eabi/10.3.1/../../../../arm-none-eabi/lib/thumb/v8-m.main+fp/hard\libc_nano.a(lib_a-nano-vfprintf.o) (__sinit)
c:/nxp/mcuxpressoide_11.5.1_7266/ide/plugins/com.nxp.mcuxpresso.tools.win32_11.5.1.202201181444/tools/bin/../lib/gcc/arm-none-eabi/10.3.1/../../../../arm-none-eabi/lib/thumb/v8-m.main+fp/hard\libc_nano.a(lib_a-fvwrite.o)
                              c:/nxp/mcuxpressoide_11.5.1_7266/ide/plugins/com.nxp.mcuxpresso.tools.win32_11.5.1.202201181444/tools/bin/../lib/gcc/arm-none-eabi/10.3.1/../../../../arm-none-eabi/lib/thumb/v8-m.main+fp/hard\libc_nano.a(lib_a-nano-vfprintf.o) (__sfvwrite_r)
c:/nxp/mcuxpressoide_11.5.1_7266/ide/plugins/com.nxp.mcuxpresso.tools.win32_11.5.1.202201181444/tools/bin/../lib/gcc/arm-none-eabi/10.3.1/../../../../arm-none-eabi/lib/thumb/v8-m.main+fp/hard\libc_nano.a(lib_a-fwalk.o)
                              c:/nxp/mcuxpressoide_11.5.1_7266/ide/plugins/com.nxp.mcuxpresso.tools.win32_11.5.1.202201181444/tools/bin/../lib/gcc/arm-none-eabi/10.3.1/../../../../arm-none-eabi/lib/thumb/v8-m.main+fp/hard\libc_nano.a(lib_a-findfp.o) (_fwalk)
c:/nxp/mcuxpressoide_11.5.1_7266/ide/plugins/com.nxp.mcuxpresso.tools.win32_11.5.1.202201181444/tools/bin/../lib/gcc/arm-none-eabi/10.3.1/../../../../arm-none-eabi/lib/thumb/v8-m.main+fp/hard\libc_nano.a(lib_a-lock.o)
                              c:/nxp/mcuxpressoide_11.5.1_7266/ide/plugins/com.nxp.mcuxpresso.tools.win32_11.5.1.202201181444/tools/bin/../lib/gcc/arm-none-eabi/10.3.1/../../../../arm-none-eabi/lib/thumb/v8-m.main+fp/hard\libc_nano.a(lib_a-findfp.o) (__retarget_lock_init_recursive)
c:/nxp/mcuxpressoide_11.5.1_7266/ide/plugins/com.nxp.mcuxpresso.tools.win32_11.5.1.202201181444/tools/bin/../lib/gcc/arm-none-eabi/10.3.1/../../../../arm-none-eabi/lib/thumb/v8-m.main+fp/hard\libc_nano.a(lib_a-makebuf.o)
                              c:/nxp/mcuxpressoide_11.5.1_7266/ide/plugins/com.nxp.mcuxpresso.tools.win32_11.5.1.202201181444/tools/bin/../lib/gcc/arm-none-eabi/10.3.1/../../../../arm-none-eabi/lib/thumb/v8-m.main+fp/hard\libc_nano.a(lib_a-wsetup.o) (__smakebuf_r)
c:/nxp/mcuxpressoide_11.5.1_7266/ide/plugins/com.nxp.mcuxpresso.tools.win32_11.5.1.202201181444/tools/bin/../lib/gcc/arm-none-eabi/10.3.1/../../../../arm-none-eabi/lib/thumb/v8-m.main+fp/hard\libc_nano.a(lib_a-memchr-stub.o)
                              c:/nxp/mcuxpressoide_11.5.1_7266/ide/plugins/com.nxp.mcuxpresso.tools.win32_11.5.1.202201181444/tools/bin/../lib/gcc/arm-none-eabi/10.3.1/../../../../arm-none-eabi/lib/thumb/v8-m.main+fp/hard\libc_nano.a(lib_a-nano-vfprintf.o) (memchr)
c:/nxp/mcuxpressoide_11.5.1_7266/ide/plugins/com.nxp.mcuxpresso.tools.win32_11.5.1.202201181444/tools/bin/../lib/gcc/arm-none-eabi/10.3.1/../../../../arm-none-eabi/lib/thumb/v8-m.main+fp/hard\libc_nano.a(lib_a-memcpy-stub.o)
                              c:/nxp/mcuxpressoide_11.5.1_7266/ide/plugins/com.nxp.mcuxpresso.tools.win32_11.5.1.202201181444/tools/bin/../lib/gcc/arm-none-eabi/10.3.1/../../../../arm-none-eabi/lib/thumb/v8-m.main+fp/hard\libc_nano.a(lib_a-fvwrite.o) (memcpy)
c:/nxp/mcuxpressoide_11.5.1_7266/ide/plugins/com.nxp.mcuxpresso.tools.win32_11.5.1.202201181444/tools/bin/../lib/gcc/arm-none-eabi/10.3.1/../../../../arm-none-eabi/lib/thumb/v8-m.main+fp/hard\libc_nano.a(lib_a-memmove.o)
                              c:/nxp/mcuxpressoide_11.5.1_7266/ide/plugins/com.nxp.mcuxpresso.tools.win32_11.5.1.202201181444/tools/bin/../lib/gcc/arm-none-eabi/10.3.1/../../../../arm-none-eabi/lib/thumb/v8-m.main+fp/hard\libc_nano.a(lib_a-fvwrite.o) (memmove)
c:/nxp/mcuxpressoide_11.5.1_7266/ide/plugins/com.nxp.mcuxpresso.tools.win32_11.5.1.202201181444/tools/bin/../lib/gcc/arm-none-eabi/10.3.1/../../../../arm-none-eabi/lib/thumb/v8-m.main+fp/hard\libc_nano.a(lib_a-nano-freer.o)
                              c:/nxp/mcuxpressoide_11.5.1_7266/ide/plugins/com.nxp.mcuxpresso.tools.win32_11.5.1.202201181444/tools/bin/../lib/gcc/arm-none-eabi/10.3.1/../../../../arm-none-eabi/lib/thumb/v8-m.main+fp/hard\libc_nano.a(lib_a-wsetup.o) (_free_r)
c:/nxp/mcuxpressoide_11.5.1_7266/ide/plugins/com.nxp.mcuxpresso.tools.win32_11.5.1.202201181444/tools/bin/../lib/gcc/arm-none-eabi/10.3.1/../../../../arm-none-eabi/lib/thumb/v8-m.main+fp/hard\libc_nano.a(lib_a-nano-mallocr.o)
                              c:/nxp/mcuxpressoide_11.5.1_7266/ide/plugins/com.nxp.mcuxpresso.tools.win32_11.5.1.202201181444/tools/bin/../lib/gcc/arm-none-eabi/10.3.1/../../../../arm-none-eabi/lib/thumb/v8-m.main+fp/hard\libc_nano.a(lib_a-findfp.o) (_malloc_r)
c:/nxp/mcuxpressoide_11.5.1_7266/ide/plugins/com.nxp.mcuxpresso.tools.win32_11.5.1.202201181444/tools/bin/../lib/gcc/arm-none-eabi/10.3.1/../../../../arm-none-eabi/lib/thumb/v8-m.main+fp/hard\libc_nano.a(lib_a-nano-reallocr.o)
                              c:/nxp/mcuxpressoide_11.5.1_7266/ide/plugins/com.nxp.mcuxpresso.tools.win32_11.5.1.202201181444/tools/bin/../lib/gcc/arm-none-eabi/10.3.1/../../../../arm-none-eabi/lib/thumb/v8-m.main+fp/hard\libc_nano.a(lib_a-fvwrite.o) (_realloc_r)
c:/nxp/mcuxpressoide_11.5.1_7266/ide/plugins/com.nxp.mcuxpresso.tools.win32_11.5.1.202201181444/tools/bin/../lib/gcc/arm-none-eabi/10.3.1/../../../../arm-none-eabi/lib/thumb/v8-m.main+fp/hard\libc_nano.a(lib_a-sbrkr.o)
                              c:/nxp/mcuxpressoide_11.5.1_7266/ide/plugins/com.nxp.mcuxpresso.tools.win32_11.5.1.202201181444/tools/bin/../lib/gcc/arm-none-eabi/10.3.1/../../../../arm-none-eabi/lib/thumb/v8-m.main+fp/hard\libc_nano.a(lib_a-nano-mallocr.o) (_sbrk_r)
c:/nxp/mcuxpressoide_11.5.1_7266/ide/plugins/com.nxp.mcuxpresso.tools.win32_11.5.1.202201181444/tools/bin/../lib/gcc/arm-none-eabi/10.3.1/../../../../arm-none-eabi/lib/thumb/v8-m.main+fp/hard\libc_nano.a(lib_a-signal.o)
                              c:/nxp/mcuxpressoide_11.5.1_7266/ide/plugins/com.nxp.mcuxpresso.tools.win32_11.5.1.202201181444/tools/bin/../lib/gcc/arm-none-eabi/10.3.1/../../../../arm-none-eabi/lib/thumb/v8-m.main+fp/hard\libc_nano.a(lib_a-abort.o) (raise)
c:/nxp/mcuxpressoide_11.5.1_7266/ide/plugins/com.nxp.mcuxpresso.tools.win32_11.5.1.202201181444/tools/bin/../lib/gcc/arm-none-eabi/10.3.1/../../../../arm-none-eabi/lib/thumb/v8-m.main+fp/hard\libc_nano.a(lib_a-signalr.o)
                              c:/nxp/mcuxpressoide_11.5.1_7266/ide/plugins/com.nxp.mcuxpresso.tools.win32_11.5.1.202201181444/tools/bin/../lib/gcc/arm-none-eabi/10.3.1/../../../../arm-none-eabi/lib/thumb/v8-m.main+fp/hard\libc_nano.a(lib_a-signal.o) (_kill_r)
c:/nxp/mcuxpressoide_11.5.1_7266/ide/plugins/com.nxp.mcuxpresso.tools.win32_11.5.1.202201181444/tools/bin/../lib/gcc/arm-none-eabi/10.3.1/../../../../arm-none-eabi/lib/thumb/v8-m.main+fp/hard\libc_nano.a(lib_a-stdio.o)
                              c:/nxp/mcuxpressoide_11.5.1_7266/ide/plugins/com.nxp.mcuxpresso.tools.win32_11.5.1.202201181444/tools/bin/../lib/gcc/arm-none-eabi/10.3.1/../../../../arm-none-eabi/lib/thumb/v8-m.main+fp/hard\libc_nano.a(lib_a-findfp.o) (__sread)
c:/nxp/mcuxpressoide_11.5.1_7266/ide/plugins/com.nxp.mcuxpresso.tools.win32_11.5.1.202201181444/tools/bin/../lib/gcc/arm-none-eabi/10.3.1/../../../../arm-none-eabi/lib/thumb/v8-m.main+fp/hard\libc_nano.a(lib_a-writer.o)
                              c:/nxp/mcuxpressoide_11.5.1_7266/ide/plugins/com.nxp.mcuxpresso.tools.win32_11.5.1.202201181444/tools/bin/../lib/gcc/arm-none-eabi/10.3.1/../../../../arm-none-eabi/lib/thumb/v8-m.main+fp/hard\libc_nano.a(lib_a-stdio.o) (_write_r)
c:/nxp/mcuxpressoide_11.5.1_7266/ide/plugins/com.nxp.mcuxpresso.tools.win32_11.5.1.202201181444/tools/bin/../lib/gcc/arm-none-eabi/10.3.1/../../../../arm-none-eabi/lib/thumb/v8-m.main+fp/hard\libc_nano.a(lib_a-closer.o)
                              c:/nxp/mcuxpressoide_11.5.1_7266/ide/plugins/com.nxp.mcuxpresso.tools.win32_11.5.1.202201181444/tools/bin/../lib/gcc/arm-none-eabi/10.3.1/../../../../arm-none-eabi/lib/thumb/v8-m.main+fp/hard\libc_nano.a(lib_a-stdio.o) (_close_r)
c:/nxp/mcuxpressoide_11.5.1_7266/ide/plugins/com.nxp.mcuxpresso.tools.win32_11.5.1.202201181444/tools/bin/../lib/gcc/arm-none-eabi/10.3.1/../../../../arm-none-eabi/lib/thumb/v8-m.main+fp/hard\libc_nano.a(lib_a-fstatr.o)
                              c:/nxp/mcuxpressoide_11.5.1_7266/ide/plugins/com.nxp.mcuxpresso.tools.win32_11.5.1.202201181444/tools/bin/../lib/gcc/arm-none-eabi/10.3.1/../../../../arm-none-eabi/lib/thumb/v8-m.main+fp/hard\libc_nano.a(lib_a-makebuf.o) (_fstat_r)
c:/nxp/mcuxpressoide_11.5.1_7266/ide/plugins/com.nxp.mcuxpresso.tools.win32_11.5.1.202201181444/tools/bin/../lib/gcc/arm-none-eabi/10.3.1/../../../../arm-none-eabi/lib/thumb/v8-m.main+fp/hard\libc_nano.a(lib_a-isattyr.o)
                              c:/nxp/mcuxpressoide_11.5.1_7266/ide/plugins/com.nxp.mcuxpresso.tools.win32_11.5.1.202201181444/tools/bin/../lib/gcc/arm-none-eabi/10.3.1/../../../../arm-none-eabi/lib/thumb/v8-m.main+fp/hard\libc_nano.a(lib_a-makebuf.o) (_isatty_r)
c:/nxp/mcuxpressoide_11.5.1_7266/ide/plugins/com.nxp.mcuxpresso.tools.win32_11.5.1.202201181444/tools/bin/../lib/gcc/arm-none-eabi/10.3.1/../../../../arm-none-eabi/lib/thumb/v8-m.main+fp/hard\libc_nano.a(lib_a-lseekr.o)
                              c:/nxp/mcuxpressoide_11.5.1_7266/ide/plugins/com.nxp.mcuxpresso.tools.win32_11.5.1.202201181444/tools/bin/../lib/gcc/arm-none-eabi/10.3.1/../../../../arm-none-eabi/lib/thumb/v8-m.main+fp/hard\libc_nano.a(lib_a-stdio.o) (_lseek_r)
c:/nxp/mcuxpressoide_11.5.1_7266/ide/plugins/com.nxp.mcuxpresso.tools.win32_11.5.1.202201181444/tools/bin/../lib/gcc/arm-none-eabi/10.3.1/../../../../arm-none-eabi/lib/thumb/v8-m.main+fp/hard\libc_nano.a(lib_a-mlock.o)
                              c:/nxp/mcuxpressoide_11.5.1_7266/ide/plugins/com.nxp.mcuxpresso.tools.win32_11.5.1.202201181444/tools/bin/../lib/gcc/arm-none-eabi/10.3.1/../../../../arm-none-eabi/lib/thumb/v8-m.main+fp/hard\libc_nano.a(lib_a-nano-freer.o) (__malloc_lock)
c:/nxp/mcuxpressoide_11.5.1_7266/ide/plugins/com.nxp.mcuxpresso.tools.win32_11.5.1.202201181444/tools/bin/../lib/gcc/arm-none-eabi/10.3.1/../../../../arm-none-eabi/lib/thumb/v8-m.main+fp/hard\libc_nano.a(lib_a-nano-msizer.o)
                              c:/nxp/mcuxpressoide_11.5.1_7266/ide/plugins/com.nxp.mcuxpresso.tools.win32_11.5.1.202201181444/tools/bin/../lib/gcc/arm-none-eabi/10.3.1/../../../../arm-none-eabi/lib/thumb/v8-m.main+fp/hard\libc_nano.a(lib_a-nano-reallocr.o) (_malloc_usable_size_r)
c:/nxp/mcuxpressoide_11.5.1_7266/ide/plugins/com.nxp.mcuxpresso.tools.win32_11.5.1.202201181444/tools/bin/../lib/gcc/arm-none-eabi/10.3.1/../../../../arm-none-eabi/lib/thumb/v8-m.main+fp/hard\libc_nano.a(lib_a-readr.o)
                              c:/nxp/mcuxpressoide_11.5.1_7266/ide/plugins/com.nxp.mcuxpresso.tools.win32_11.5.1.202201181444/tools/bin/../lib/gcc/arm-none-eabi/10.3.1/../../../../arm-none-eabi/lib/thumb/v8-m.main+fp/hard\libc_nano.a(lib_a-stdio.o) (_read_r)
c:/nxp/mcuxpressoide_11.5.1_7266/ide/plugins/com.nxp.mcuxpresso.tools.win32_11.5.1.202201181444/tools/bin/../lib/gcc/arm-none-eabi/10.3.1/../../../../arm-none-eabi/lib/thumb/v8-m.main+fp/hard\libc_nano.a(lib_a-reent.o)
                              c:/nxp/mcuxpressoide_11.5.1_7266/ide/plugins/com.nxp.mcuxpresso.tools.win32_11.5.1.202201181444/tools/bin/../lib/gcc/arm-none-eabi/10.3.1/../../../../arm-none-eabi/lib/thumb/v8-m.main+fp/hard\libc_nano.a(lib_a-sbrkr.o) (errno)
c:/nxp/mcuxpressoide_11.5.1_7266/ide/plugins/com.nxp.mcuxpresso.tools.win32_11.5.1.202201181444/tools/bin/../lib/gcc/arm-none-eabi/10.3.1/../../../../arm-none-eabi/lib/thumb/v8-m.main+fp/hard\libnosys.a(close.o)
                              c:/nxp/mcuxpressoide_11.5.1_7266/ide/plugins/com.nxp.mcuxpresso.tools.win32_11.5.1.202201181444/tools/bin/../lib/gcc/arm-none-eabi/10.3.1/../../../../arm-none-eabi/lib/thumb/v8-m.main+fp/hard\libc_nano.a(lib_a-closer.o) (_close)
c:/nxp/mcuxpressoide_11.5.1_7266/ide/plugins/com.nxp.mcuxpresso.tools.win32_11.5.1.202201181444/tools/bin/../lib/gcc/arm-none-eabi/10.3.1/../../../../arm-none-eabi/lib/thumb/v8-m.main+fp/hard\libnosys.a(fstat.o)
                              c:/nxp/mcuxpressoide_11.5.1_7266/ide/plugins/com.nxp.mcuxpresso.tools.win32_11.5.1.202201181444/tools/bin/../lib/gcc/arm-none-eabi/10.3.1/../../../../arm-none-eabi/lib/thumb/v8-m.main+fp/hard\libc_nano.a(lib_a-fstatr.o) (_fstat)
c:/nxp/mcuxpressoide_11.5.1_7266/ide/plugins/com.nxp.mcuxpresso.tools.win32_11.5.1.202201181444/tools/bin/../lib/gcc/arm-none-eabi/10.3.1/../../../../arm-none-eabi/lib/thumb/v8-m.main+fp/hard\libnosys.a(getpid.o)
                              c:/nxp/mcuxpressoide_11.5.1_7266/ide/plugins/com.nxp.mcuxpresso.tools.win32_11.5.1.202201181444/tools/bin/../lib/gcc/arm-none-eabi/10.3.1/../../../../arm-none-eabi/lib/thumb/v8-m.main+fp/hard\libc_nano.a(lib_a-signalr.o) (_getpid)
c:/nxp/mcuxpressoide_11.5.1_7266/ide/plugins/com.nxp.mcuxpresso.tools.win32_11.5.1.202201181444/tools/bin/../lib/gcc/arm-none-eabi/10.3.1/../../../../arm-none-eabi/lib/thumb/v8-m.main+fp/hard\libnosys.a(isatty.o)
                              c:/nxp/mcuxpressoide_11.5.1_7266/ide/plugins/com.nxp.mcuxpresso.tools.win32_11.5.1.202201181444/tools/bin/../lib/gcc/arm-none-eabi/10.3.1/../../../../arm-none-eabi/lib/thumb/v8-m.main+fp/hard\libc_nano.a(lib_a-isattyr.o) (_isatty)
c:/nxp/mcuxpressoide_11.5.1_7266/ide/plugins/com.nxp.mcuxpresso.tools.win32_11.5.1.202201181444/tools/bin/../lib/gcc/arm-none-eabi/10.3.1/../../../../arm-none-eabi/lib/thumb/v8-m.main+fp/hard\libnosys.a(kill.o)
                              c:/nxp/mcuxpressoide_11.5.1_7266/ide/plugins/com.nxp.mcuxpresso.tools.win32_11.5.1.202201181444/tools/bin/../lib/gcc/arm-none-eabi/10.3.1/../../../../arm-none-eabi/lib/thumb/v8-m.main+fp/hard\libc_nano.a(lib_a-signalr.o) (_kill)
c:/nxp/mcuxpressoide_11.5.1_7266/ide/plugins/com.nxp.mcuxpresso.tools.win32_11.5.1.202201181444/tools/bin/../lib/gcc/arm-none-eabi/10.3.1/../../../../arm-none-eabi/lib/thumb/v8-m.main+fp/hard\libnosys.a(lseek.o)
                              c:/nxp/mcuxpressoide_11.5.1_7266/ide/plugins/com.nxp.mcuxpresso.tools.win32_11.5.1.202201181444/tools/bin/../lib/gcc/arm-none-eabi/10.3.1/../../../../arm-none-eabi/lib/thumb/v8-m.main+fp/hard\libc_nano.a(lib_a-lseekr.o) (_lseek)
c:/nxp/mcuxpressoide_11.5.1_7266/ide/plugins/com.nxp.mcuxpresso.tools.win32_11.5.1.202201181444/tools/bin/../lib/gcc/arm-none-eabi/10.3.1/../../../../arm-none-eabi/lib/thumb/v8-m.main+fp/hard\libnosys.a(sbrk.o)
                              c:/nxp/mcuxpressoide_11.5.1_7266/ide/plugins/com.nxp.mcuxpresso.tools.win32_11.5.1.202201181444/tools/bin/../lib/gcc/arm-none-eabi/10.3.1/../../../../arm-none-eabi/lib/thumb/v8-m.main+fp/hard\libc_nano.a(lib_a-sbrkr.o) (_sbrk)
c:/nxp/mcuxpressoide_11.5.1_7266/ide/plugins/com.nxp.mcuxpresso.tools.win32_11.5.1.202201181444/tools/bin/../lib/gcc/arm-none-eabi/10.3.1/../../../../arm-none-eabi/lib/thumb/v8-m.main+fp/hard\libnosys.a(_exit.o)
                              c:/nxp/mcuxpressoide_11.5.1_7266/ide/plugins/com.nxp.mcuxpresso.tools.win32_11.5.1.202201181444/tools/bin/../lib/gcc/arm-none-eabi/10.3.1/../../../../arm-none-eabi/lib/thumb/v8-m.main+fp/hard\libc_nano.a(lib_a-exit.o) (_exit)
c:/nxp/mcuxpressoide_11.5.1_7266/ide/plugins/com.nxp.mcuxpresso.tools.win32_11.5.1.202201181444/tools/bin/../lib/gcc/arm-none-eabi/10.3.1/../../../../arm-none-eabi/lib/thumb/v8-m.main+fp/hard\libc_nano.a(lib_a-strlen.o)
                              C:\Users\Usuario\AppData\Local\Temp\LPC55SXX.elf.QlIYWa.ltrans0.ltrans.o (strlen)

Discarded input sections

 .text          0x00000000        0x0 c:/nxp/mcuxpressoide_11.5.1_7266/ide/plugins/com.nxp.mcuxpresso.tools.win32_11.5.1.202201181444/tools/bin/../lib/gcc/arm-none-eabi/10.3.1/thumb/v8-m.main+fp/hard/crti.o
 .data          0x00000000        0x0 c:/nxp/mcuxpressoide_11.5.1_7266/ide/plugins/com.nxp.mcuxpresso.tools.win32_11.5.1.202201181444/tools/bin/../lib/gcc/arm-none-eabi/10.3.1/thumb/v8-m.main+fp/hard/crti.o
 .bss           0x00000000        0x0 c:/nxp/mcuxpressoide_11.5.1_7266/ide/plugins/com.nxp.mcuxpresso.tools.win32_11.5.1.202201181444/tools/bin/../lib/gcc/arm-none-eabi/10.3.1/thumb/v8-m.main+fp/hard/crti.o
 .data          0x00000000        0x4 c:/nxp/mcuxpressoide_11.5.1_7266/ide/plugins/com.nxp.mcuxpresso.tools.win32_11.5.1.202201181444/tools/bin/../lib/gcc/arm-none-eabi/10.3.1/thumb/v8-m.main+fp/hard/crtbegin.o
 .rodata        0x00000000       0x24 c:/nxp/mcuxpressoide_11.5.1_7266/ide/plugins/com.nxp.mcuxpresso.tools.win32_11.5.1.202201181444/tools/bin/../lib/gcc/arm-none-eabi/10.3.1/thumb/v8-m.main+fp/hard/crtbegin.o
 .data          0x00000000        0x0 c:/nxp/mcuxpressoide_11.5.1_7266/ide/plugins/com.nxp.mcuxpresso.tools.win32_11.5.1.202201181444/tools/bin/../lib/gcc/arm-none-eabi/10.3.1/../../../../arm-none-eabi/lib/thumb/v8-m.main+fp/hard/crt0.o
 .bss           0x00000000        0x0 c:/nxp/mcuxpressoide_11.5.1_7266/ide/plugins/com.nxp.mcuxpresso.tools.win32_11.5.1.202201181444/tools/bin/../lib/gcc/arm-none-eabi/10.3.1/../../../../arm-none-eabi/lib/thumb/v8-m.main+fp/hard/crt0.o
 .ARM.extab     0x00000000        0x0 c:/nxp/mcuxpressoide_11.5.1_7266/ide/plugins/com.nxp.mcuxpresso.tools.win32_11.5.1.202201181444/tools/bin/../lib/gcc/arm-none-eabi/10.3.1/../../../../arm-none-eabi/lib/thumb/v8-m.main+fp/hard/crt0.o
 .data          0x00000000        0x0 _build/lpcxpresso55s28/obj/hw/mcu/nxp/mcux-sdk/devices/LPC55S28/gcc/startup_LPC55S28_asm.o
 .bss           0x00000000        0x0 _build/lpcxpresso55s28/obj/hw/mcu/nxp/mcux-sdk/devices/LPC55S28/gcc/startup_LPC55S28_asm.o
 .text          0x00000000        0x0 C:\Users\Usuario\AppData\Local\Temp\LPC55SXX.elf.QlIYWa.ltrans0.ltrans.o
 .data          0x00000000        0x0 C:\Users\Usuario\AppData\Local\Temp\LPC55SXX.elf.QlIYWa.ltrans0.ltrans.o
 .bss           0x00000000        0x0 C:\Users\Usuario\AppData\Local\Temp\LPC55SXX.elf.QlIYWa.ltrans0.ltrans.o
 .text.tud_umount_cb
                0x00000000        0xc C:\Users\Usuario\AppData\Local\Temp\LPC55SXX.elf.QlIYWa.ltrans0.ltrans.o
 .text.tud_suspend_cb
                0x00000000       0x10 C:\Users\Usuario\AppData\Local\Temp\LPC55SXX.elf.QlIYWa.ltrans0.ltrans.o
 .text.tud_resume_cb
Memory Configuration

Name             Origin             Length             Attributes
m_interrupts     0x00000000         0x00000200         xr
m_text           0x00000200         0x0007fe00         xr
m_data           0x20000000         0x00030000         rw
m_usb_sram       0x40100000         0x00004000         rw
*default*        0x00000000         0xffffffff

Linker script and memory map

LOAD c:/nxp/mcuxpressoide_11.5.1_7266/ide/plugins/com.nxp.mcuxpresso.tools.win32_11.5.1.202201181444/tools/bin/../lib/gcc/arm-none-eabi/10.3.1/thumb/v8-m.main+fp/hard/crti.o
LOAD c:/nxp/mcuxpressoide_11.5.1_7266/ide/plugins/com.nxp.mcuxpresso.tools.win32_11.5.1.202201181444/tools/bin/../lib/gcc/arm-none-eabi/10.3.1/thumb/v8-m.main+fp/hard/crtbegin.o
LOAD c:/nxp/mcuxpressoide_11.5.1_7266/ide/plugins/com.nxp.mcuxpresso.tools.win32_11.5.1.202201181444/tools/bin/../lib/gcc/arm-none-eabi/10.3.1/../../../../arm-none-eabi/lib/thumb/v8-m.main+fp/hard/crt0.o
                0x00000400                HEAP_SIZE = DEFINED (__heap_size__)?__heap_size__:0x400
                0x00000800                STACK_SIZE = DEFINED (__stack_size__)?__stack_size__:0x800

.interrupts     0x00000000      0x130
                0x00000000                . = ALIGN (0x4)
 *(.isr_vector)
 .isr_vector    0x00000000      0x130 _build/lpcxpresso55s28/obj/hw/mcu/nxp/mcux-sdk/devices/LPC55S28/gcc/startup_LPC55S28_asm.o
                0x00000000                __Vectors
                0x00000130                . = ALIGN (0x4)

.text           0x00000200     0x34e0
                0x00000200                . = ALIGN (0x4)
 *(.text)
 .text          0x00000200       0x40 c:/nxp/mcuxpressoide_11.5.1_7266/ide/plugins/com.nxp.mcuxpresso.tools.win32_11.5.1.202201181444/tools/bin/../lib/gcc/arm-none-eabi/10.3.1/thumb/v8-m.main+fp/hard/crtbegin.o
 .text          0x00000240       0x7c c:/nxp/mcuxpressoide_11.5.1_7266/ide/plugins/com.nxp.mcuxpresso.tools.win32_11.5.1.202201181444/tools/bin/../lib/gcc/arm-none-eabi/10.3.1/../../../../arm-none-eabi/lib/thumb/v8-m.main+fp/hard/crt0.o
                0x00000240                _stack_init
                0x00000248                _start
                0x00000248                _mainCRTStartup
 .text          0x000002bc      0x288 _build/lpcxpresso55s28/obj/hw/mcu/nxp/mcux-sdk/devices/LPC55S28/gcc/startup_LPC55S28_asm.o
                0x000002bc                Reset_Handler
                0x00000338                DebugMon_Handler
                0x00000338                Reserved39_DriverIRQHandler
                0x00000338                OS_EVENT_DriverIRQHandler
                0x00000338                DMA0_DriverIRQHandler
                0x00000338                Reserved42_DriverIRQHandler
                0x00000338                PLU_DriverIRQHandler
                0x00000338                WDT_BOD_DriverIRQHandler
                0x00000338                Reserved46_DriverIRQHandler
                0x00000338                BusFault_Handler
                0x00000338                Reserved57_DriverIRQHandler
                0x00000338                ACMP_DriverIRQHandler
                0x00000338                USB1_PHY_DriverIRQHandler
                0x00000338                GINT0_DriverIRQHandler
                0x00000338                SDIO_DriverIRQHandler
                0x00000338                Reserved59_DriverIRQHandler
                0x00000338                USB1_NEEDCLK_DriverIRQHandler
                0x00000338                SEC_VIO_DriverIRQHandler
                0x00000338                PIN_INT3_DriverIRQHandler
                0x00000338                PIN_INT2_DriverIRQHandler
                0x00000338                ADC0_DriverIRQHandler
                0x00000338                Reserved56_DriverIRQHandler
                0x00000338                DMA1_DriverIRQHandler
                0x00000338                PIN_INT0_DriverIRQHandler
                0x00000338                Reserved60_DriverIRQHandler
                0x00000338                USB1_DriverIRQHandler
                0x00000338                CTIMER2_DriverIRQHandler
                0x00000338                UsageFault_Handler
                0x00000338                MemManage_Handler
                0x00000338                RTC_DriverIRQHandler
                0x00000338                PUF_DriverIRQHandler
                0x00000338                DefaultISR
                0x00000338                USB0_DriverIRQHandler
                0x00000338                SEC_GPIO_INT0_IRQ1_DriverIRQHandler
                0x00000338                Reserved61_DriverIRQHandler
                0x00000338                CASER_DriverIRQHandler
                0x00000338                CTIMER3_DriverIRQHandler
                0x00000338                PIN_INT1_DriverIRQHandler
                0x00000338                PQ_DriverIRQHandler
                0x00000338                MRT0_DriverIRQHandler
                0x00000338                UTICK0_DriverIRQHandler
                0x00000338                Reserved41_DriverIRQHandler
                0x00000338                PIN_INT4_DriverIRQHandler
                0x00000338                PIN_INT5_DriverIRQHandler
                0x00000338                SEC_GPIO_INT0_IRQ0_DriverIRQHandler
                0x00000338                PIN_INT6_DriverIRQHandler
                0x00000338                Reserved47_DriverIRQHandler
                0x00000338                CTIMER4_DriverIRQHandler
                0x00000338                GINT1_DriverIRQHandler
                0x00000338                SecureFault_Handler
                0x00000338                CTIMER0_DriverIRQHandler
                0x00000338                CTIMER1_DriverIRQHandler
                0x00000338                SEC_HYPERVISOR_CALL_DriverIRQHandler
                0x00000338                PIN_INT7_DriverIRQHandler
                0x00000338                USB0_NEEDCLK_DriverIRQHandler
                0x00000338                Reserved55_DriverIRQHandler
                0x00000338                HASHCRYPT_DriverIRQHandler
                0x0000033c                NMI_Handler
                0x00000340                HardFault_Handler
                0x00000344                SVC_Handler
                0x00000348                PendSV_Handler
                0x00000350                WDT_BOD_IRQHandler
                0x00000354                DMA0_IRQHandler
                0x00000358                GINT0_IRQHandler
                0x0000035c                GINT1_IRQHandler
                0x00000360                PIN_INT0_IRQHandler
                0x00000364                PIN_INT1_IRQHandler
                0x00000368                PIN_INT2_IRQHandler
                0x0000036c                PIN_INT3_IRQHandler
                0x00000370                UTICK0_IRQHandler
                0x00000374                MRT0_IRQHandler
                0x00000378                CTIMER0_IRQHandler
                0x0000037c                CTIMER1_IRQHandler
                0x00000380                SCT0_IRQHandler
                0x00000384                CTIMER3_IRQHandler
                0x00000388                FLEXCOMM0_IRQHandler
                0x0000038c                FLEXCOMM1_IRQHandler
                0x00000390                FLEXCOMM2_IRQHandler
                0x00000394                FLEXCOMM3_IRQHandler
                0x00000398                FLEXCOMM4_IRQHandler
                0x0000039c                FLEXCOMM5_IRQHandler
                0x000003a0                FLEXCOMM6_IRQHandler
                0x000003a4                FLEXCOMM7_IRQHandler
                0x000003a8                ADC0_IRQHandler
                0x000003ac                Reserved39_IRQHandler
                0x000003b0                ACMP_IRQHandler
                0x000003b4                Reserved41_IRQHandler
                0x000003b8                Reserved42_IRQHandler
                0x000003bc                USB0_NEEDCLK_IRQHandler
                0x000003c4                RTC_IRQHandler
                0x000003c8                Reserved46_IRQHandler
                0x000003cc                Reserved47_IRQHandler
                0x000003d0                PIN_INT4_IRQHandler
                0x000003d4                PIN_INT5_IRQHandler
                0x000003d8                PIN_INT6_IRQHandler
                0x000003dc                PIN_INT7_IRQHandler
                0x000003e0                CTIMER2_IRQHandler
                0x000003e4                CTIMER4_IRQHandler
                0x000003e8                OS_EVENT_IRQHandler
                0x000003ec                Reserved55_IRQHandler
                0x000003f0                Reserved56_IRQHandler
                0x000003f4                Reserved57_IRQHandler
                0x000003f8                SDIO_IRQHandler
                0x000003fc                Reserved59_IRQHandler
                0x00000400                Reserved60_IRQHandler
                0x00000404                Reserved61_IRQHandler
                0x00000408                USB1_PHY_IRQHandler
                0x00000410                USB1_NEEDCLK_IRQHandler
                0x00000414                SEC_HYPERVISOR_CALL_IRQHandler
                0x00000418                SEC_GPIO_INT0_IRQ0_IRQHandler
                0x0000041c                SEC_GPIO_INT0_IRQ1_IRQHandler
                0x00000420                PLU_IRQHandler
                0x00000424                SEC_VIO_IRQHandler
                0x00000428                HASHCRYPT_IRQHandler
                0x0000042c                CASER_IRQHandler
                0x00000430                PUF_IRQHandler
                0x00000434                PQ_IRQHandler
                0x00000438                DMA1_IRQHandler
                0x0000043c                FLEXCOMM8_IRQHandler
 .text          0x00000544       0x10 c:/nxp/mcuxpressoide_11.5.1_7266/ide/plugins/com.nxp.mcuxpresso.tools.win32_11.5.1.202201181444/tools/bin/../lib/gcc/arm-none-eabi/10.3.1/../../../../arm-none-eabi/lib/thumb/v8-m.main+fp/hard\libc_nano.a(lib_a-strlen.o)
                0x00000544                strlen
 *(.text*)
 .text.dcd_int_enable
                0x00000554       0x2c C:\Users\Usuario\AppData\Local\Temp\LPC55SXX.elf.QlIYWa.ltrans0.ltrans.o
 .text.prepare_ep_xfer
                0x00000580       0x6c C:\Users\Usuario\AppData\Local\Temp\LPC55SXX.elf.QlIYWa.ltrans0.ltrans.o
 .text.CLOCK_AttachClk
                0x000005ec       0x30 C:\Users\Usuario\AppData\Local\Temp\LPC55SXX.elf.QlIYWa.ltrans0.ltrans.o
 .text.CLOCK_EnableClock.lto_priv.0
                0x0000061c       0x16 C:\Users\Usuario\AppData\Local\Temp\LPC55SXX.elf.QlIYWa.ltrans0.ltrans.o
 *fill*         0x00000632        0x2 
 .text.get_driver
                0x00000634       0x38 C:\Users\Usuario\AppData\Local\Temp\LPC55SXX.elf.QlIYWa.ltrans0.ltrans.o
 .text.invoke_class_control
                0x0000066c       0x10 C:\Users\Usuario\AppData\Local\Temp\LPC55SXX.elf.QlIYWa.ltrans0.ltrans.o
 .text.usbd_int_set
                0x0000067c       0x44 C:\Users\Usuario\AppData\Local\Temp\LPC55SXX.elf.QlIYWa.ltrans0.ltrans.o
 .text.configuration_reset
                0x000006c0       0x60 C:\Users\Usuario\AppData\Local\Temp\LPC55SXX.elf.QlIYWa.ltrans0.ltrans.o
 .text.hidd_reset
                0x00000720       0x10 C:\Users\Usuario\AppData\Local\Temp\LPC55SXX.elf.QlIYWa.ltrans0.ltrans.o
 .text.hidd_init
                0x00000730        0x6 C:\Users\Usuario\AppData\Local\Temp\LPC55SXX.elf.QlIYWa.ltrans0.ltrans.o
 *fill*         0x00000736        0x2 
 .text.usbd_edpt_xfer.constprop.0
                0x00000738       0x98 C:\Users\Usuario\AppData\Local\Temp\LPC55SXX.elf.QlIYWa.ltrans0.ltrans.o
 .text.hidd_open
                0x000007d0      0x198 C:\Users\Usuario\AppData\Local\Temp\LPC55SXX.elf.QlIYWa.ltrans0.ltrans.o
 .text._status_stage_xact.isra.0
                0x00000968       0x12 C:\Users\Usuario\AppData\Local\Temp\LPC55SXX.elf.QlIYWa.ltrans0.ltrans.o
 *fill*         0x0000097a        0x2 
 .text.tud_control_status.isra.0
                0x0000097c       0x24 C:\Users\Usuario\AppData\Local\Temp\LPC55SXX.elf.QlIYWa.ltrans0.ltrans.o
 .text.RESET_PeripheralReset
                0x000009a0       0x50 C:\Users\Usuario\AppData\Local\Temp\LPC55SXX.elf.QlIYWa.ltrans0.ltrans.o
 .text.FLEXCOMM_GetInstance
                0x000009f0       0x34 C:\Users\Usuario\AppData\Local\Temp\LPC55SXX.elf.QlIYWa.ltrans0.ltrans.o
 .text.tu_fifo_write
                0x00000a24       0x5e C:\Users\Usuario\AppData\Local\Temp\LPC55SXX.elf.QlIYWa.ltrans0.ltrans.o
 *fill*         0x00000a82        0x2 
 .text.dcd_int_handler
                0x00000a84      0x318 C:\Users\Usuario\AppData\Local\Temp\LPC55SXX.elf.QlIYWa.ltrans0.ltrans.o
 .text.tud_hid_n_report.constprop.0.isra.0
                0x00000d9c       0x60 C:\Users\Usuario\AppData\Local\Temp\LPC55SXX.elf.QlIYWa.ltrans0.ltrans.o
 .text.hidd_xfer_cb
                0x00000dfc       0x78 C:\Users\Usuario\AppData\Local\Temp\LPC55SXX.elf.QlIYWa.ltrans0.ltrans.o
 .text._data_stage_xact.isra.0
                0x00000e74       0x54 C:\Users\Usuario\AppData\Local\Temp\LPC55SXX.elf.QlIYWa.ltrans0.ltrans.o
 .text.tud_control_xfer.isra.0
                0x00000ec8       0x64 C:\Users\Usuario\AppData\Local\Temp\LPC55SXX.elf.QlIYWa.ltrans0.ltrans.o
 .text.hidd_control_xfer_cb
                0x00000f2c      0x18c C:\Users\Usuario\AppData\Local\Temp\LPC55SXX.elf.QlIYWa.ltrans0.ltrans.o
 .text.SystemInit
                0x000010b8       0x48 C:\Users\Usuario\AppData\Local\Temp\LPC55SXX.elf.QlIYWa.ltrans0.ltrans.o
                0x000010b8                SystemInit
 .text.FLEXCOMM0_DriverIRQHandler
                0x00001100       0x24 C:\Users\Usuario\AppData\Local\Temp\LPC55SXX.elf.QlIYWa.ltrans0.ltrans.o
                0x00001100                FLEXCOMM0_DriverIRQHandler
 .text.FLEXCOMM1_DriverIRQHandler
                0x00001124       0x24 C:\Users\Usuario\AppData\Local\Temp\LPC55SXX.elf.QlIYWa.ltrans0.ltrans.o
                0x00001124                FLEXCOMM1_DriverIRQHandler
 .text.FLEXCOMM2_DriverIRQHandler
                0x00001148       0x24 C:\Users\Usuario\AppData\Local\Temp\LPC55SXX.elf.QlIYWa.ltrans0.ltrans.o
                0x00001148                FLEXCOMM2_DriverIRQHandler
 .text.FLEXCOMM3_DriverIRQHandler
                0x0000116c       0x24 C:\Users\Usuario\AppData\Local\Temp\LPC55SXX.elf.QlIYWa.ltrans0.ltrans.o
                0x0000116c                FLEXCOMM3_DriverIRQHandler
 .text.FLEXCOMM4_DriverIRQHandler
                0x00001190       0x24 C:\Users\Usuario\AppData\Local\Temp\LPC55SXX.elf.QlIYWa.ltrans0.ltrans.o
                0x00001190                FLEXCOMM4_DriverIRQHandler
 .text.FLEXCOMM5_DriverIRQHandler
                0x000011b4       0x24 C:\Users\Usuario\AppData\Local\Temp\LPC55SXX.elf.QlIYWa.ltrans0.ltrans.o
                0x000011b4                FLEXCOMM5_DriverIRQHandler
 .text.FLEXCOMM6_DriverIRQHandler
                0x000011d8       0x28 C:\Users\Usuario\AppData\Local\Temp\LPC55SXX.elf.QlIYWa.ltrans0.ltrans.o
                0x000011d8                FLEXCOMM6_DriverIRQHandler
 .text.FLEXCOMM7_DriverIRQHandler
                0x00001200       0x28 C:\Users\Usuario\AppData\Local\Temp\LPC55SXX.elf.QlIYWa.ltrans0.ltrans.o
                0x00001200                FLEXCOMM7_DriverIRQHandler
 .text.FLEXCOMM8_DriverIRQHandler
                0x00001228       0x28 C:\Users\Usuario\AppData\Local\Temp\LPC55SXX.elf.QlIYWa.ltrans0.ltrans.o
                0x00001228                FLEXCOMM8_DriverIRQHandler
 .text.SCT0_DriverIRQHandler
                0x00001250       0x3c C:\Users\Usuario\AppData\Local\Temp\LPC55SXX.elf.QlIYWa.ltrans0.ltrans.o
                0x00001250                SCT0_DriverIRQHandler
 .text.USB0_IRQHandler
                0x0000128c        0x6 C:\Users\Usuario\AppData\Local\Temp\LPC55SXX.elf.QlIYWa.ltrans0.ltrans.o
                0x0000128c                USB0_IRQHandler
 .text.USB1_IRQHandler
                0x00001292        0x6 C:\Users\Usuario\AppData\Local\Temp\LPC55SXX.elf.QlIYWa.ltrans0.ltrans.o
                0x00001292                USB1_IRQHandler
 .text.SysTick_Handler
                0x00001298       0x10 C:\Users\Usuario\AppData\Local\Temp\LPC55SXX.elf.QlIYWa.ltrans0.ltrans.o
                0x00001298                SysTick_Handler
 .text._write   0x000012a8       0x50 C:\Users\Usuario\AppData\Local\Temp\LPC55SXX.elf.QlIYWa.ltrans0.ltrans.o
                0x000012a8                _write
 .text._read    0x000012f8        0x4 C:\Users\Usuario\AppData\Local\Temp\LPC55SXX.elf.QlIYWa.ltrans0.ltrans.o
                0x000012f8                _read
 .text.startup.main
                0x000012fc      0xd14 C:\Users\Usuario\AppData\Local\Temp\LPC55SXX.elf.QlIYWa.ltrans0.ltrans.o
                0x000012fc                main
 .text.__assert_func
                0x00002010       0x3c c:/nxp/mcuxpressoide_11.5.1_7266/ide/plugins/com.nxp.mcuxpresso.tools.win32_11.5.1.202201181444/tools/bin/../lib/gcc/arm-none-eabi/10.3.1/../../../../arm-none-eabi/lib/thumb/v8-m.main+fp/hard\libc_nano.a(lib_a-assert.o)
                0x00002010                __assert_func
 .text.exit     0x0000204c       0x28 c:/nxp/mcuxpressoide_11.5.1_7266/ide/plugins/com.nxp.mcuxpresso.tools.win32_11.5.1.202201181444/tools/bin/../lib/gcc/arm-none-eabi/10.3.1/../../../../arm-none-eabi/lib/thumb/v8-m.main+fp/hard\libc_nano.a(lib_a-exit.o)
                0x0000204c                exit
 .text.fprintf  0x00002074       0x24 c:/nxp/mcuxpressoide_11.5.1_7266/ide/plugins/com.nxp.mcuxpresso.tools.win32_11.5.1.202201181444/tools/bin/../lib/gcc/arm-none-eabi/10.3.1/../../../../arm-none-eabi/lib/thumb/v8-m.main+fp/hard\libc_nano.a(lib_a-fprintf.o)
                0x00002074                fiprintf
                0x00002074                fprintf
 .text.__libc_init_array
                0x00002098       0x48 c:/nxp/mcuxpressoide_11.5.1_7266/ide/plugins/com.nxp.mcuxpresso.tools.win32_11.5.1.202201181444/tools/bin/../lib/gcc/arm-none-eabi/10.3.1/../../../../arm-none-eabi/lib/thumb/v8-m.main+fp/hard\libc_nano.a(lib_a-init.o)
                0x00002098                __libc_init_array
 .text.memset   0x000020e0       0x10 c:/nxp/mcuxpressoide_11.5.1_7266/ide/plugins/com.nxp.mcuxpresso.tools.win32_11.5.1.202201181444/tools/bin/../lib/gcc/arm-none-eabi/10.3.1/../../../../arm-none-eabi/lib/thumb/v8-m.main+fp/hard\libc_nano.a(lib_a-memset.o)
                0x000020e0                memset
 .text.__sfputc_r
                0x000020f0       0x2e c:/nxp/mcuxpressoide_11.5.1_7266/ide/plugins/com.nxp.mcuxpresso.tools.win32_11.5.1.202201181444/tools/bin/../lib/gcc/arm-none-eabi/10.3.1/../../../../arm-none-eabi/lib/thumb/v8-m.main+fp/hard\libc_nano.a(lib_a-nano-vfprintf.o)
 .text.__sfputs_r
                0x0000211e       0x24 c:/nxp/mcuxpressoide_11.5.1_7266/ide/plugins/com.nxp.mcuxpresso.tools.win32_11.5.1.202201181444/tools/bin/../lib/gcc/arm-none-eabi/10.3.1/../../../../arm-none-eabi/lib/thumb/v8-m.main+fp/hard\libc_nano.a(lib_a-nano-vfprintf.o)
                0x0000211e                __sfputs_r
 *fill*         0x00002142        0x2 
 .text._vfprintf_r
                0x00002144      0x260 c:/nxp/mcuxpressoide_11.5.1_7266/ide/plugins/com.nxp.mcuxpresso.tools.win32_11.5.1.202201181444/tools/bin/../lib/gcc/arm-none-eabi/10.3.1/../../../../arm-none-eabi/lib/thumb/v8-m.main+fp/hard\libc_nano.a(lib_a-nano-vfprintf.o)
                0x00002144                _vfprintf_r
                0x00002144                _vfiprintf_r
 .text._printf_common
                0x000023a4       0xe0 c:/nxp/mcuxpressoide_11.5.1_7266/ide/plugins/com.nxp.mcuxpresso.tools.win32_11.5.1.202201181444/tools/bin/../lib/gcc/arm-none-eabi/10.3.1/../../../../arm-none-eabi/lib/thumb/v8-m.main+fp/hard\libc_nano.a(lib_a-nano-vfprintf_i.o)
                0x000023a4                _printf_common
 .text._printf_i
                0x00002484      0x24c c:/nxp/mcuxpressoide_11.5.1_7266/ide/plugins/com.nxp.mcuxpresso.tools.win32_11.5.1.202201181444/tools/bin/../lib/gcc/arm-none-eabi/10.3.1/../../../../arm-none-eabi/lib/thumb/v8-m.main+fp/hard\libc_nano.a(lib_a-nano-vfprintf_i.o)
                0x00002484                _printf_i
 .text.__swbuf_r
                0x000026d0       0xa4 c:/nxp/mcuxpressoide_11.5.1_7266/ide/plugins/com.nxp.mcuxpresso.tools.win32_11.5.1.202201181444/tools/bin/../lib/gcc/arm-none-eabi/10.3.1/../../../../arm-none-eabi/lib/thumb/v8-m.main+fp/hard\libc_nano.a(lib_a-wbuf.o)
                0x000026d0                __swbuf_r
 .text.__swsetup_r
                0x00002774       0xdc c:/nxp/mcuxpressoide_11.5.1_7266/ide/plugins/com.nxp.mcuxpresso.tools.win32_11.5.1.202201181444/tools/bin/../lib/gcc/arm-none-eabi/10.3.1/../../../../arm-none-eabi/lib/thumb/v8-m.main+fp/hard\libc_nano.a(lib_a-wsetup.o)
                0x00002774                __swsetup_r
 .text.abort    0x00002850        0xe c:/nxp/mcuxpressoide_11.5.1_7266/ide/plugins/com.nxp.mcuxpresso.tools.win32_11.5.1.202201181444/tools/bin/../lib/gcc/arm-none-eabi/10.3.1/../../../../arm-none-eabi/lib/thumb/v8-m.main+fp/hard\libc_nano.a(lib_a-abort.o)
                0x00002850                abort
 *fill*         0x0000285e        0x2 
 .text.__sflush_r
                0x00002860      0x108 c:/nxp/mcuxpressoide_11.5.1_7266/ide/plugins/com.nxp.mcuxpresso.tools.win32_11.5.1.202201181444/tools/bin/../lib/gcc/arm-none-eabi/10.3.1/../../../../arm-none-eabi/lib/thumb/v8-m.main+fp/hard\libc_nano.a(lib_a-fflush.o)
                0x00002860                __sflush_r
 .text._fflush_r
                0x00002968       0x78 c:/nxp/mcuxpressoide_11.5.1_7266/ide/plugins/com.nxp.mcuxpresso.tools.win32_11.5.1.202201181444/tools/bin/../lib/gcc/arm-none-eabi/10.3.1/../../../../arm-none-eabi/lib/thumb/v8-m.main+fp/hard\libc_nano.a(lib_a-fflush.o)
                0x00002968                _fflush_r
 .text.std      0x000029e0       0x48 c:/nxp/mcuxpressoide_11.5.1_7266/ide/plugins/com.nxp.mcuxpresso.tools.win32_11.5.1.202201181444/tools/bin/../lib/gcc/arm-none-eabi/10.3.1/../../../../arm-none-eabi/lib/thumb/v8-m.main+fp/hard\libc_nano.a(lib_a-findfp.o)
 .text._cleanup_r
                0x00002a28        0xc c:/nxp/mcuxpressoide_11.5.1_7266/ide/plugins/com.nxp.mcuxpresso.tools.win32_11.5.1.202201181444/tools/bin/../lib/gcc/arm-none-eabi/10.3.1/../../../../arm-none-eabi/lib/thumb/v8-m.main+fp/hard\libc_nano.a(lib_a-findfp.o)
                0x00002a28                _cleanup_r
 .text.__sfmoreglue
                0x00002a34       0x2c c:/nxp/mcuxpressoide_11.5.1_7266/ide/plugins/com.nxp.mcuxpresso.tools.win32_11.5.1.202201181444/tools/bin/../lib/gcc/arm-none-eabi/10.3.1/../../../../arm-none-eabi/lib/thumb/v8-m.main+fp/hard\libc_nano.a(lib_a-findfp.o)
                0x00002a34                __sfmoreglue
 .text.__sfp_lock_acquire
                0x00002a60        0xc c:/nxp/mcuxpressoide_11.5.1_7266/ide/plugins/com.nxp.mcuxpresso.tools.win32_11.5.1.202201181444/tools/bin/../lib/gcc/arm-none-eabi/10.3.1/../../../../arm-none-eabi/lib/thumb/v8-m.main+fp/hard\libc_nano.a(lib_a-findfp.o)
                0x00002a60                __sfp_lock_acquire
 .text.__sfp_lock_release
                0x00002a6c        0xc c:/nxp/mcuxpressoide_11.5.1_7266/ide/plugins/com.nxp.mcuxpresso.tools.win32_11.5.1.202201181444/tools/bin/../lib/gcc/arm-none-eabi/10.3.1/../../../../arm-none-eabi/lib/thumb/v8-m.main+fp/hard\libc_nano.a(lib_a-findfp.o)
                0x00002a6c                __sfp_lock_release
 .text.__sinit_lock_acquire
                0x00002a78        0xc c:/nxp/mcuxpressoide_11.5.1_7266/ide/plugins/com.nxp.mcuxpresso.tools.win32_11.5.1.202201181444/tools/bin/../lib/gcc/arm-none-eabi/10.3.1/../../../../arm-none-eabi/lib/thumb/v8-m.main+fp/hard\libc_nano.a(lib_a-findfp.o)
                0x00002a78                __sinit_lock_acquire
 .text.__sinit_lock_release
                0x00002a84        0xc c:/nxp/mcuxpressoide_11.5.1_7266/ide/plugins/com.nxp.mcuxpresso.tools.win32_11.5.1.202201181444/tools/bin/../lib/gcc/arm-none-eabi/10.3.1/../../../../arm-none-eabi/lib/thumb/v8-m.main+fp/hard\libc_nano.a(lib_a-findfp.o)
                0x00002a84                __sinit_lock_release
 .text.__sinit  0x00002a90       0x70 c:/nxp/mcuxpressoide_11.5.1_7266/ide/plugins/com.nxp.mcuxpresso.tools.win32_11.5.1.202201181444/tools/bin/../lib/gcc/arm-none-eabi/10.3.1/../../../../arm-none-eabi/lib/thumb/v8-m.main+fp/hard\libc_nano.a(lib_a-findfp.o)
                0x00002a90                __sinit
 .text.__sfp    0x00002b00       0x8c c:/nxp/mcuxpressoide_11.5.1_7266/ide/plugins/com.nxp.mcuxpresso.tools.win32_11.5.1.202201181444/tools/bin/../lib/gcc/arm-none-eabi/10.3.1/../../../../arm-none-eabi/lib/thumb/v8-m.main+fp/hard\libc_nano.a(lib_a-findfp.o)
                0x00002b00                __sfp
 .text._fwalk_reent
                0x00002b8c       0x3e c:/nxp/mcuxpressoide_11.5.1_7266/ide/plugins/com.nxp.mcuxpresso.tools.win32_11.5.1.202201181444/tools/bin/../lib/gcc/arm-none-eabi/10.3.1/../../../../arm-none-eabi/lib/thumb/v8-m.main+fp/hard\libc_nano.a(lib_a-fwalk.o)
                0x00002b8c                _fwalk_reent
 .text.__retarget_lock_init_recursive
                0x00002bca        0x2 c:/nxp/mcuxpressoide_11.5.1_7266/ide/plugins/com.nxp.mcuxpresso.tools.win32_11.5.1.202201181444/tools/bin/../lib/gcc/arm-none-eabi/10.3.1/../../../../arm-none-eabi/lib/thumb/v8-m.main+fp/hard\libc_nano.a(lib_a-lock.o)
                0x00002bca                __retarget_lock_init_recursive
 .text.__retarget_lock_acquire_recursive
                0x00002bcc        0x2 c:/nxp/mcuxpressoide_11.5.1_7266/ide/plugins/com.nxp.mcuxpresso.tools.win32_11.5.1.202201181444/tools/bin/../lib/gcc/arm-none-eabi/10.3.1/../../../../arm-none-eabi/lib/thumb/v8-m.main+fp/hard\libc_nano.a(lib_a-lock.o)
                0x00002bcc                __retarget_lock_acquire_recursive
 .text.__retarget_lock_release_recursive
                0x00002bce        0x2 c:/nxp/mcuxpressoide_11.5.1_7266/ide/plugins/com.nxp.mcuxpresso.tools.win32_11.5.1.202201181444/tools/bin/../lib/gcc/arm-none-eabi/10.3.1/../../../../arm-none-eabi/lib/thumb/v8-m.main+fp/hard\libc_nano.a(lib_a-lock.o)
                0x00002bce                __retarget_lock_release_recursive
 .text.__swhatbuf_r
                0x00002bd0       0x4a c:/nxp/mcuxpressoide_11.5.1_7266/ide/plugins/com.nxp.mcuxpresso.tools.win32_11.5.1.202201181444/tools/bin/../lib/gcc/arm-none-eabi/10.3.1/../../../../arm-none-eabi/lib/thumb/v8-m.main+fp/hard\libc_nano.a(lib_a-makebuf.o)
                0x00002bd0                __swhatbuf_r
 *fill*         0x00002c1a        0x2 
 .text.__smakebuf_r
                0x00002c1c       0x80 c:/nxp/mcuxpressoide_11.5.1_7266/ide/plugins/com.nxp.mcuxpresso.tools.win32_11.5.1.202201181444/tools/bin/../lib/gcc/arm-none-eabi/10.3.1/../../../../arm-none-eabi/lib/thumb/v8-m.main+fp/hard\libc_nano.a(lib_a-makebuf.o)
                0x00002c1c                __smakebuf_r
 .text.memchr   0x00002c9c       0x1c c:/nxp/mcuxpressoide_11.5.1_7266/ide/plugins/com.nxp.mcuxpresso.tools.win32_11.5.1.202201181444/tools/bin/../lib/gcc/arm-none-eabi/10.3.1/../../../../arm-none-eabi/lib/thumb/v8-m.main+fp/hard\libc_nano.a(lib_a-memchr-stub.o)
                0x00002c9c                memchr
 .text.memcpy   0x00002cb8       0x1a c:/nxp/mcuxpressoide_11.5.1_7266/ide/plugins/com.nxp.mcuxpresso.tools.win32_11.5.1.202201181444/tools/bin/../lib/gcc/arm-none-eabi/10.3.1/../../../../arm-none-eabi/lib/thumb/v8-m.main+fp/hard\libc_nano.a(lib_a-memcpy-stub.o)
                0x00002cb8                memcpy
 *fill*         0x00002cd2        0x2 
 .text._free_r  0x00002cd4       0x98 c:/nxp/mcuxpressoide_11.5.1_7266/ide/plugins/com.nxp.mcuxpresso.tools.win32_11.5.1.202201181444/tools/bin/../lib/gcc/arm-none-eabi/10.3.1/../../../../arm-none-eabi/lib/thumb/v8-m.main+fp/hard\libc_nano.a(lib_a-nano-freer.o)
                0x00002cd4                _free_r
 .text.sbrk_aligned
                0x00002d6c       0x40 c:/nxp/mcuxpressoide_11.5.1_7266/ide/plugins/com.nxp.mcuxpresso.tools.win32_11.5.1.202201181444/tools/bin/../lib/gcc/arm-none-eabi/10.3.1/../../../../arm-none-eabi/lib/thumb/v8-m.main+fp/hard\libc_nano.a(lib_a-nano-mallocr.o)
 .text._malloc_r
                0x00002dac       0xe8 c:/nxp/mcuxpressoide_11.5.1_7266/ide/plugins/com.nxp.mcuxpresso.tools.win32_11.5.1.202201181444/tools/bin/../lib/gcc/arm-none-eabi/10.3.1/../../../../arm-none-eabi/lib/thumb/v8-m.main+fp/hard\libc_nano.a(lib_a-nano-mallocr.o)
                0x00002dac                _malloc_r
 .text._sbrk_r  0x00002e94       0x20 c:/nxp/mcuxpressoide_11.5.1_7266/ide/plugins/com.nxp.mcuxpresso.tools.win32_11.5.1.202201181444/tools/bin/../lib/gcc/arm-none-eabi/10.3.1/../../../../arm-none-eabi/lib/thumb/v8-m.main+fp/hard\libc_nano.a(lib_a-sbrkr.o)
                0x00002e94                _sbrk_r
 .text._raise_r
                0x00002eb4       0x50 c:/nxp/mcuxpressoide_11.5.1_7266/ide/plugins/com.nxp.mcuxpresso.tools.win32_11.5.1.202201181444/tools/bin/../lib/gcc/arm-none-eabi/10.3.1/../../../../arm-none-eabi/lib/thumb/v8-m.main+fp/hard\libc_nano.a(lib_a-signal.o)
                0x00002eb4                _raise_r
 .text.raise    0x00002f04       0x10 c:/nxp/mcuxpressoide_11.5.1_7266/ide/plugins/com.nxp.mcuxpresso.tools.win32_11.5.1.202201181444/tools/bin/../lib/gcc/arm-none-eabi/10.3.1/../../../../arm-none-eabi/lib/thumb/v8-m.main+fp/hard\libc_nano.a(lib_a-signal.o)
                0x00002f04                raise
 .text._kill_r  0x00002f14       0x24 c:/nxp/mcuxpressoide_11.5.1_7266/ide/plugins/com.nxp.mcuxpresso.tools.win32_11.5.1.202201181444/tools/bin/../lib/gcc/arm-none-eabi/10.3.1/../../../../arm-none-eabi/lib/thumb/v8-m.main+fp/hard\libc_nano.a(lib_a-signalr.o)
                0x00002f14                _kill_r
 .text._getpid_r
                0x00002f38        0x4 c:/nxp/mcuxpressoide_11.5.1_7266/ide/plugins/com.nxp.mcuxpresso.tools.win32_11.5.1.202201181444/tools/bin/../lib/gcc/arm-none-eabi/10.3.1/../../../../arm-none-eabi/lib/thumb/v8-m.main+fp/hard\libc_nano.a(lib_a-signalr.o)
                0x00002f38                _getpid_r
 .text.__sread  0x00002f3c       0x22 c:/nxp/mcuxpressoide_11.5.1_7266/ide/plugins/com.nxp.mcuxpresso.tools.win32_11.5.1.202201181444/tools/bin/../lib/gcc/arm-none-eabi/10.3.1/../../../../arm-none-eabi/lib/thumb/v8-m.main+fp/hard\libc_nano.a(lib_a-stdio.o)
                0x00002f3c                __sread
 .text.__swrite
                0x00002f5e       0x38 c:/nxp/mcuxpressoide_11.5.1_7266/ide/plugins/com.nxp.mcuxpresso.tools.win32_11.5.1.202201181444/tools/bin/../lib/gcc/arm-none-eabi/10.3.1/../../../../arm-none-eabi/lib/thumb/v8-m.main+fp/hard\libc_nano.a(lib_a-stdio.o)
                0x00002f5e                __swrite
 .text.__sseek  0x00002f96       0x24 c:/nxp/mcuxpressoide_11.5.1_7266/ide/plugins/com.nxp.mcuxpresso.tools.win32_11.5.1.202201181444/tools/bin/../lib/gcc/arm-none-eabi/10.3.1/../../../../arm-none-eabi/lib/thumb/v8-m.main+fp/hard\libc_nano.a(lib_a-stdio.o)
                0x00002f96                __sseek
 .text.__sclose
                0x00002fba        0x8 c:/nxp/mcuxpressoide_11.5.1_7266/ide/plugins/com.nxp.mcuxpresso.tools.win32_11.5.1.202201181444/tools/bin/../lib/gcc/arm-none-eabi/10.3.1/../../../../arm-none-eabi/lib/thumb/v8-m.main+fp/hard\libc_nano.a(lib_a-stdio.o)
                0x00002fba                __sclose
 *fill*         0x00002fc2        0x2 
 .text._write_r
                0x00002fc4       0x24 c:/nxp/mcuxpressoide_11.5.1_7266/ide/plugins/com.nxp.mcuxpresso.tools.win32_11.5.1.202201181444/tools/bin/../lib/gcc/arm-none-eabi/10.3.1/../../../../arm-none-eabi/lib/thumb/v8-m.main+fp/hard\libc_nano.a(lib_a-writer.o)
                0x00002fc4                _write_r
 .text._close_r
                0x00002fe8       0x20 c:/nxp/mcuxpressoide_11.5.1_7266/ide/plugins/com.nxp.mcuxpresso.tools.win32_11.5.1.202201181444/tools/bin/../lib/gcc/arm-none-eabi/10.3.1/../../../../arm-none-eabi/lib/thumb/v8-m.main+fp/hard\libc_nano.a(lib_a-closer.o)
                0x00002fe8                _close_r
 .text._fstat_r
                0x00003008       0x24 c:/nxp/mcuxpressoide_11.5.1_7266/ide/plugins/com.nxp.mcuxpresso.tools.win32_11.5.1.202201181444/tools/bin/../lib/gcc/arm-none-eabi/10.3.1/../../../../arm-none-eabi/lib/thumb/v8-m.main+fp/hard\libc_nano.a(lib_a-fstatr.o)
                0x00003008                _fstat_r
 .text._isatty_r
                0x0000302c       0x20 c:/nxp/mcuxpressoide_11.5.1_7266/ide/plugins/com.nxp.mcuxpresso.tools.win32_11.5.1.202201181444/tools/bin/../lib/gcc/arm-none-eabi/10.3.1/../../../../arm-none-eabi/lib/thumb/v8-m.main+fp/hard\libc_nano.a(lib_a-isattyr.o)
                0x0000302c                _isatty_r
 .text._lseek_r
                0x0000304c       0x24 c:/nxp/mcuxpressoide_11.5.1_7266/ide/plugins/com.nxp.mcuxpresso.tools.win32_11.5.1.202201181444/tools/bin/../lib/gcc/arm-none-eabi/10.3.1/../../../../arm-none-eabi/lib/thumb/v8-m.main+fp/hard\libc_nano.a(lib_a-lseekr.o)
                0x0000304c                _lseek_r
 .text.__malloc_lock
                0x00003070        0xc c:/nxp/mcuxpressoide_11.5.1_7266/ide/plugins/com.nxp.mcuxpresso.tools.win32_11.5.1.202201181444/tools/bin/../lib/gcc/arm-none-eabi/10.3.1/../../../../arm-none-eabi/lib/thumb/v8-m.main+fp/hard\libc_nano.a(lib_a-mlock.o)
                0x00003070                __malloc_lock
 .text.__malloc_unlock
                0x0000307c        0xc c:/nxp/mcuxpressoide_11.5.1_7266/ide/plugins/com.nxp.mcuxpresso.tools.win32_11.5.1.202201181444/tools/bin/../lib/gcc/arm-none-eabi/10.3.1/../../../../arm-none-eabi/lib/thumb/v8-m.main+fp/hard\libc_nano.a(lib_a-mlock.o)
                0x0000307c                __malloc_unlock
 .text._read_r  0x00003088       0x24 c:/nxp/mcuxpressoide_11.5.1_7266/ide/plugins/com.nxp.mcuxpresso.tools.win32_11.5.1.202201181444/tools/bin/../lib/gcc/arm-none-eabi/10.3.1/../../../../arm-none-eabi/lib/thumb/v8-m.main+fp/hard\libc_nano.a(lib_a-readr.o)
                0x00003088                _read_r
 .text._close   0x000030ac       0x10 c:/nxp/mcuxpressoide_11.5.1_7266/ide/plugins/com.nxp.mcuxpresso.tools.win32_11.5.1.202201181444/tools/bin/../lib/gcc/arm-none-eabi/10.3.1/../../../../arm-none-eabi/lib/thumb/v8-m.main+fp/hard\libnosys.a(close.o)
                0x000030ac                _close
 .text._fstat   0x000030bc       0x10 c:/nxp/mcuxpressoide_11.5.1_7266/ide/plugins/com.nxp.mcuxpresso.tools.win32_11.5.1.202201181444/tools/bin/../lib/gcc/arm-none-eabi/10.3.1/../../../../arm-none-eabi/lib/thumb/v8-m.main+fp/hard\libnosys.a(fstat.o)
                0x000030bc                _fstat
 .text._getpid  0x000030cc       0x10 c:/nxp/mcuxpressoide_11.5.1_7266/ide/plugins/com.nxp.mcuxpresso.tools.win32_11.5.1.202201181444/tools/bin/../lib/gcc/arm-none-eabi/10.3.1/../../../../arm-none-eabi/lib/thumb/v8-m.main+fp/hard\libnosys.a(getpid.o)
                0x000030cc                _getpid
 .text._isatty  0x000030dc       0x10 c:/nxp/mcuxpressoide_11.5.1_7266/ide/plugins/com.nxp.mcuxpresso.tools.win32_11.5.1.202201181444/tools/bin/../lib/gcc/arm-none-eabi/10.3.1/../../../../arm-none-eabi/lib/thumb/v8-m.main+fp/hard\libnosys.a(isatty.o)
                0x000030dc                _isatty
 .text._kill    0x000030ec       0x10 c:/nxp/mcuxpressoide_11.5.1_7266/ide/plugins/com.nxp.mcuxpresso.tools.win32_11.5.1.202201181444/tools/bin/../lib/gcc/arm-none-eabi/10.3.1/../../../../arm-none-eabi/lib/thumb/v8-m.main+fp/hard\libnosys.a(kill.o)
                0x000030ec                _kill
 .text._lseek   0x000030fc       0x10 c:/nxp/mcuxpressoide_11.5.1_7266/ide/plugins/com.nxp.mcuxpresso.tools.win32_11.5.1.202201181444/tools/bin/../lib/gcc/arm-none-eabi/10.3.1/../../../../arm-none-eabi/lib/thumb/v8-m.main+fp/hard\libnosys.a(lseek.o)
                0x000030fc                _lseek
 .text._sbrk    0x0000310c       0x20 c:/nxp/mcuxpressoide_11.5.1_7266/ide/plugins/com.nxp.mcuxpresso.tools.win32_11.5.1.202201181444/tools/bin/../lib/gcc/arm-none-eabi/10.3.1/../../../../arm-none-eabi/lib/thumb/v8-m.main+fp/hard\libnosys.a(sbrk.o)
                0x0000310c                _sbrk
 .text._exit    0x0000312c        0x4 c:/nxp/mcuxpressoide_11.5.1_7266/ide/plugins/com.nxp.mcuxpresso.tools.win32_11.5.1.202201181444/tools/bin/../lib/gcc/arm-none-eabi/10.3.1/../../../../arm-none-eabi/lib/thumb/v8-m.main+fp/hard\libnosys.a(_exit.o)
                0x0000312c                _exit
 *(.rodata)
 *(.rodata*)
 .rodata.RESET_PeripheralReset.str1.1
                0x00003130       0x9c C:\Users\Usuario\AppData\Local\Temp\LPC55SXX.elf.QlIYWa.ltrans0.ltrans.o
 .rodata.FLEXCOMM_GetInstance.str1.1
                0x000031cc       0xb7 C:\Users\Usuario\AppData\Local\Temp\LPC55SXX.elf.QlIYWa.ltrans0.ltrans.o
 .rodata.FLEXCOMM0_DriverIRQHandler.str1.1
                0x00003283       0x27 C:\Users\Usuario\AppData\Local\Temp\LPC55SXX.elf.QlIYWa.ltrans0.ltrans.o
 .rodata._write.str1.1
                0x000032aa       0xab C:\Users\Usuario\AppData\Local\Temp\LPC55SXX.elf.QlIYWa.ltrans0.ltrans.o
 .rodata.main.str1.1
                0x00003355       0x41 C:\Users\Usuario\AppData\Local\Temp\LPC55SXX.elf.QlIYWa.ltrans0.ltrans.o
 .rodata.str1.1
                0x00003396       0x1e C:\Users\Usuario\AppData\Local\Temp\LPC55SXX.elf.QlIYWa.ltrans0.ltrans.o
 .rodata.__compound_literal.0
                0x000033b4        0x2 C:\Users\Usuario\AppData\Local\Temp\LPC55SXX.elf.QlIYWa.ltrans0.ltrans.o
 .rodata.__func__.0.lto_priv.1
                0x000033b6       0x1b C:\Users\Usuario\AppData\Local\Temp\LPC55SXX.elf.QlIYWa.ltrans0.ltrans.o
 .rodata.__func__.1.lto_priv.0
                0x000033d1       0x19 C:\Users\Usuario\AppData\Local\Temp\LPC55SXX.elf.QlIYWa.ltrans0.ltrans.o
 .rodata.__func__.1.lto_priv.1
                0x000033ea       0x1b C:\Users\Usuario\AppData\Local\Temp\LPC55SXX.elf.QlIYWa.ltrans0.ltrans.o
 .rodata.__func__.10
                0x00003405       0x14 C:\Users\Usuario\AppData\Local\Temp\LPC55SXX.elf.QlIYWa.ltrans0.ltrans.o
 .rodata.__func__.13
                0x00003419       0x12 C:\Users\Usuario\AppData\Local\Temp\LPC55SXX.elf.QlIYWa.ltrans0.ltrans.o
 .rodata.__func__.2
                0x0000342b       0x1b C:\Users\Usuario\AppData\Local\Temp\LPC55SXX.elf.QlIYWa.ltrans0.ltrans.o
 .rodata.__func__.3
                0x00003446       0x1b C:\Users\Usuario\AppData\Local\Temp\LPC55SXX.elf.QlIYWa.ltrans0.ltrans.o
 .rodata.__func__.4
                0x00003461       0x1b C:\Users\Usuario\AppData\Local\Temp\LPC55SXX.elf.QlIYWa.ltrans0.ltrans.o
 .rodata.__func__.5
                0x0000347c       0x1b C:\Users\Usuario\AppData\Local\Temp\LPC55SXX.elf.QlIYWa.ltrans0.ltrans.o
 .rodata.__func__.6
                0x00003497       0x1b C:\Users\Usuario\AppData\Local\Temp\LPC55SXX.elf.QlIYWa.ltrans0.ltrans.o
 .rodata.__func__.7
                0x000034b2       0x1b C:\Users\Usuario\AppData\Local\Temp\LPC55SXX.elf.QlIYWa.ltrans0.ltrans.o
 .rodata.__func__.8
                0x000034cd       0x1b C:\Users\Usuario\AppData\Local\Temp\LPC55SXX.elf.QlIYWa.ltrans0.ltrans.o
 .rodata.__func__.9
                0x000034e8       0x15 C:\Users\Usuario\AppData\Local\Temp\LPC55SXX.elf.QlIYWa.ltrans0.ltrans.o
 *fill*         0x000034fd        0x3 
 .rodata._dcd_controller
                0x00003500       0x10 C:\Users\Usuario\AppData\Local\Temp\LPC55SXX.elf.QlIYWa.ltrans0.ltrans.o
 .rodata._usbd_driver
                0x00003510       0x18 C:\Users\Usuario\AppData\Local\Temp\LPC55SXX.elf.QlIYWa.ltrans0.ltrans.o
 .rodata.desc_configuration
                0x00003528       0x29 C:\Users\Usuario\AppData\Local\Temp\LPC55SXX.elf.QlIYWa.ltrans0.ltrans.o
 .rodata.desc_device
                0x00003551       0x12 C:\Users\Usuario\AppData\Local\Temp\LPC55SXX.elf.QlIYWa.ltrans0.ltrans.o
 .rodata.desc_hid_report
                0x00003563       0x22 C:\Users\Usuario\AppData\Local\Temp\LPC55SXX.elf.QlIYWa.ltrans0.ltrans.o
 *fill*         0x00003585        0x3 
 .rodata.s_flexcommBaseAddrs
                0x00003588       0x24 C:\Users\Usuario\AppData\Local\Temp\LPC55SXX.elf.QlIYWa.ltrans0.ltrans.o
 .rodata.s_flexcommClocks
                0x000035ac       0x12 C:\Users\Usuario\AppData\Local\Temp\LPC55SXX.elf.QlIYWa.ltrans0.ltrans.o
 *fill*         0x000035be        0x2 
 .rodata.s_flexcommResets
                0x000035c0       0x24 C:\Users\Usuario\AppData\Local\Temp\LPC55SXX.elf.QlIYWa.ltrans0.ltrans.o
 .rodata.string_desc_arr
                0x000035e4       0x10 C:\Users\Usuario\AppData\Local\Temp\LPC55SXX.elf.QlIYWa.ltrans0.ltrans.o
 .rodata.__assert_func.str1.1
                0x000035f4       0x3c c:/nxp/mcuxpressoide_11.5.1_7266/ide/plugins/com.nxp.mcuxpresso.tools.win32_11.5.1.202201181444/tools/bin/../lib/gcc/arm-none-eabi/10.3.1/../../../../arm-none-eabi/lib/thumb/v8-m.main+fp/hard\libc_nano.a(lib_a-assert.o)
                                 0x3d (size before relaxing)
 .rodata._global_impure_ptr
                0x00003630        0x4 c:/nxp/mcuxpressoide_11.5.1_7266/ide/plugins/com.nxp.mcuxpresso.tools.win32_11.5.1.202201181444/tools/bin/../lib/gcc/arm-none-eabi/10.3.1/../../../../arm-none-eabi/lib/thumb/v8-m.main+fp/hard\libc_nano.a(lib_a-impure.o)
                0x00003630                _global_impure_ptr
 .rodata._vfprintf_r.str1.1
                0x00003634       0x11 c:/nxp/mcuxpressoide_11.5.1_7266/ide/plugins/com.nxp.mcuxpresso.tools.win32_11.5.1.202201181444/tools/bin/../lib/gcc/arm-none-eabi/10.3.1/../../../../arm-none-eabi/lib/thumb/v8-m.main+fp/hard\libc_nano.a(lib_a-nano-vfprintf.o)
 .rodata._printf_i.str1.1
                0x00003645       0x22 c:/nxp/mcuxpressoide_11.5.1_7266/ide/plugins/com.nxp.mcuxpresso.tools.win32_11.5.1.202201181444/tools/bin/../lib/gcc/arm-none-eabi/10.3.1/../../../../arm-none-eabi/lib/thumb/v8-m.main+fp/hard\libc_nano.a(lib_a-nano-vfprintf_i.o)
 *fill*         0x00003667        0x1 
 .rodata.__sf_fake_stderr
                0x00003668       0x20 c:/nxp/mcuxpressoide_11.5.1_7266/ide/plugins/com.nxp.mcuxpresso.tools.win32_11.5.1.202201181444/tools/bin/../lib/gcc/arm-none-eabi/10.3.1/../../../../arm-none-eabi/lib/thumb/v8-m.main+fp/hard\libc_nano.a(lib_a-findfp.o)
                0x00003668                __sf_fake_stderr
 .rodata.__sf_fake_stdin
                0x00003688       0x20 c:/nxp/mcuxpressoide_11.5.1_7266/ide/plugins/com.nxp.mcuxpresso.tools.win32_11.5.1.202201181444/tools/bin/../lib/gcc/arm-none-eabi/10.3.1/../../../../arm-none-eabi/lib/thumb/v8-m.main+fp/hard\libc_nano.a(lib_a-findfp.o)
                0x00003688                __sf_fake_stdin
 .rodata.__sf_fake_stdout
                0x000036a8       0x20 c:/nxp/mcuxpressoide_11.5.1_7266/ide/plugins/com.nxp.mcuxpresso.tools.win32_11.5.1.202201181444/tools/bin/../lib/gcc/arm-none-eabi/10.3.1/../../../../arm-none-eabi/lib/thumb/v8-m.main+fp/hard\libc_nano.a(lib_a-findfp.o)
                0x000036a8                __sf_fake_stdout
 *(.glue_7)
 .glue_7        0x000036c8        0x0 linker stubs
 *(.glue_7t)
 .glue_7t       0x000036c8        0x0 linker stubs
 *(.eh_frame)
 .eh_frame      0x000036c8        0x0 c:/nxp/mcuxpressoide_11.5.1_7266/ide/plugins/com.nxp.mcuxpresso.tools.win32_11.5.1.202201181444/tools/bin/../lib/gcc/arm-none-eabi/10.3.1/thumb/v8-m.main+fp/hard/crtbegin.o
 *(.init)
 .init          0x000036c8        0x4 c:/nxp/mcuxpressoide_11.5.1_7266/ide/plugins/com.nxp.mcuxpresso.tools.win32_11.5.1.202201181444/tools/bin/../lib/gcc/arm-none-eabi/10.3.1/thumb/v8-m.main+fp/hard/crti.o
                0x000036c8                _init
 .init          0x000036cc        0x8 c:/nxp/mcuxpressoide_11.5.1_7266/ide/plugins/com.nxp.mcuxpresso.tools.win32_11.5.1.202201181444/tools/bin/../lib/gcc/arm-none-eabi/10.3.1/thumb/v8-m.main+fp/hard/crtn.o
 *(.fini)
 .fini          0x000036d4        0x4 c:/nxp/mcuxpressoide_11.5.1_7266/ide/plugins/com.nxp.mcuxpresso.tools.win32_11.5.1.202201181444/tools/bin/../lib/gcc/arm-none-eabi/10.3.1/thumb/v8-m.main+fp/hard/crti.o
                0x000036d4                _fini
 .fini          0x000036d8        0x8 c:/nxp/mcuxpressoide_11.5.1_7266/ide/plugins/com.nxp.mcuxpresso.tools.win32_11.5.1.202201181444/tools/bin/../lib/gcc/arm-none-eabi/10.3.1/thumb/v8-m.main+fp/hard/crtn.o
                0x000036e0                . = ALIGN (0x4)

.vfp11_veneer   0x000036e0        0x0
 .vfp11_veneer  0x000036e0        0x0 linker stubs

.v4_bx          0x000036e0        0x0
 .v4_bx         0x000036e0        0x0 linker stubs

.iplt           0x000036e0        0x0
 .iplt          0x000036e0        0x0 c:/nxp/mcuxpressoide_11.5.1_7266/ide/plugins/com.nxp.mcuxpresso.tools.win32_11.5.1.202201181444/tools/bin/../lib/gcc/arm-none-eabi/10.3.1/thumb/v8-m.main+fp/hard/crtbegin.o

.ARM.extab
 *(.ARM.extab* .gnu.linkonce.armextab.*)

.ARM            0x000036e0        0x8
                0x000036e0                __exidx_start = .
 *(.ARM.exidx*)
 .ARM.exidx     0x000036e0        0x8 c:/nxp/mcuxpressoide_11.5.1_7266/ide/plugins/com.nxp.mcuxpresso.tools.win32_11.5.1.202201181444/tools/bin/../lib/gcc/arm-none-eabi/10.3.1/../../../../arm-none-eabi/lib/thumb/v8-m.main+fp/hard/crt0.o
                                 0x10 (size before relaxing)
                0x000036e8                __exidx_end = .

.rel.dyn        0x000036e8        0x0
 .rel.iplt      0x000036e8        0x0 c:/nxp/mcuxpressoide_11.5.1_7266/ide/plugins/com.nxp.mcuxpresso.tools.win32_11.5.1.202201181444/tools/bin/../lib/gcc/arm-none-eabi/10.3.1/thumb/v8-m.main+fp/hard/crtbegin.o

.ctors          0x000036e8        0x0
                0x000036e8                __CTOR_LIST__ = .
 *crtbegin.o(.ctors)
 *crtbegin?.o(.ctors)
 *(EXCLUDE_FILE(*crtend.o *crtend?.o) .ctors)
 *(SORT_BY_NAME(.ctors.*))
 *(.ctors)
                0x000036e8                __CTOR_END__ = .

.dtors          0x000036e8        0x0
                0x000036e8                __DTOR_LIST__ = .
 *crtbegin.o(.dtors)
 *crtbegin?.o(.dtors)
 *(EXCLUDE_FILE(*crtend.o *crtend?.o) .dtors)
 *(SORT_BY_NAME(.dtors.*))
 *(.dtors)
                0x000036e8                __DTOR_END__ = .

.preinit_array  0x000036e8        0x0
                0x000036e8                PROVIDE (__preinit_array_start = .)
 *(.preinit_array*)
                0x000036e8                PROVIDE (__preinit_array_end = .)

.init_array     0x000036e8        0x4
                0x000036e8                PROVIDE (__init_array_start = .)
 *(SORT_BY_NAME(.init_array.*))
 *(.init_array*)
 .init_array    0x000036e8        0x4 c:/nxp/mcuxpressoide_11.5.1_7266/ide/plugins/com.nxp.mcuxpresso.tools.win32_11.5.1.202201181444/tools/bin/../lib/gcc/arm-none-eabi/10.3.1/thumb/v8-m.main+fp/hard/crtbegin.o
                0x000036ec                PROVIDE (__init_array_end = .)

.fini_array     0x000036ec        0x4
                [!provide]                PROVIDE (__fini_array_start = .)
 *(SORT_BY_NAME(.fini_array.*))
 *(.fini_array*)
 .fini_array    0x000036ec        0x4 c:/nxp/mcuxpressoide_11.5.1_7266/ide/plugins/com.nxp.mcuxpresso.tools.win32_11.5.1.202201181444/tools/bin/../lib/gcc/arm-none-eabi/10.3.1/thumb/v8-m.main+fp/hard/crtbegin.o
                [!provide]                PROVIDE (__fini_array_end = .)
                0x000036f0                __etext = .
                0x000036f0                __DATA_ROM = .

.data           0x20000000       0x88 load address 0x000036f0
                0x20000000                . = ALIGN (0x4)
                0x20000000                __DATA_RAM = .
                0x20000000                __data_start__ = .
 *(.ramfunc*)
 *(.data)
 *(.data*)
 .data.SystemCoreClock
                0x20000000        0x4 C:\Users\Usuario\AppData\Local\Temp\LPC55SXX.elf.QlIYWa.ltrans0.ltrans.o
 .data._usbd_qdef
                0x20000004       0x18 C:\Users\Usuario\AppData\Local\Temp\LPC55SXX.elf.QlIYWa.ltrans0.ltrans.o
 .data._usbd_rhport
                0x2000001c        0x1 C:\Users\Usuario\AppData\Local\Temp\LPC55SXX.elf.QlIYWa.ltrans0.ltrans.o
 *fill*         0x2000001d        0x3 
 .data.blink_interval_ms
                0x20000020        0x4 C:\Users\Usuario\AppData\Local\Temp\LPC55SXX.elf.QlIYWa.ltrans0.ltrans.o
 .data._impure_ptr
                0x20000024        0x4 c:/nxp/mcuxpressoide_11.5.1_7266/ide/plugins/com.nxp.mcuxpresso.tools.win32_11.5.1.202201181444/tools/bin/../lib/gcc/arm-none-eabi/10.3.1/../../../../arm-none-eabi/lib/thumb/v8-m.main+fp/hard\libc_nano.a(lib_a-impure.o)
                0x20000024                _impure_ptr
 .data.impure_data
                0x20000028       0x60 c:/nxp/mcuxpressoide_11.5.1_7266/ide/plugins/com.nxp.mcuxpresso.tools.win32_11.5.1.202201181444/tools/bin/../lib/gcc/arm-none-eabi/10.3.1/../../../../arm-none-eabi/lib/thumb/v8-m.main+fp/hard\libc_nano.a(lib_a-impure.o)
 *(.jcr*)
                0x20000088                . = ALIGN (0x4)
                0x20000088                __data_end__ = .
                0x00003778                __DATA_END = (__DATA_ROM + (__data_end__ - __data_start__))
                0x00080000                text_end = (ORIGIN (m_text) + LENGTH (m_text))
                0x00000001                ASSERT ((__DATA_END <= text_end), region m_text overflowed with text and data)

.igot.plt       0x20000088        0x0 load address 0x00003778
 .igot.plt      0x20000088        0x0 c:/nxp/mcuxpressoide_11.5.1_7266/ide/plugins/com.nxp.mcuxpresso.tools.win32_11.5.1.202201181444/tools/bin/../lib/gcc/arm-none-eabi/10.3.1/thumb/v8-m.main+fp/hard/crtbegin.o

.bss            0x20000088      0x190 load address 0x00003778
                0x20000088                . = ALIGN (0x4)
                0x20000088                __START_BSS = .
                0x20000088                __bss_start__ = .
 *(.bss)
 .bss           0x20000088       0x1c c:/nxp/mcuxpressoide_11.5.1_7266/ide/plugins/com.nxp.mcuxpresso.tools.win32_11.5.1.202201181444/tools/bin/../lib/gcc/arm-none-eabi/10.3.1/thumb/v8-m.main+fp/hard/crtbegin.o
 *(.bss*)
 .bss._app_driver
                0x200000a4        0x4 C:\Users\Usuario\AppData\Local\Temp\LPC55SXX.elf.QlIYWa.ltrans0.ltrans.o
 .bss._app_driver_count
                0x200000a8        0x1 C:\Users\Usuario\AppData\Local\Temp\LPC55SXX.elf.QlIYWa.ltrans0.ltrans.o
 *fill*         0x200000a9        0x3 
 .bss._ctrl_xfer
                0x200000ac       0x14 C:\Users\Usuario\AppData\Local\Temp\LPC55SXX.elf.QlIYWa.ltrans0.ltrans.o
 .bss._desc_str
                0x200000c0       0x40 C:\Users\Usuario\AppData\Local\Temp\LPC55SXX.elf.QlIYWa.ltrans0.ltrans.o
 .bss._sctpix_busy
                0x20000100        0x1 C:\Users\Usuario\AppData\Local\Temp\LPC55SXX.elf.QlIYWa.ltrans0.ltrans.o
 *fill*         0x20000101        0x3 
 .bss._sctpix_count
                0x20000104        0x4 C:\Users\Usuario\AppData\Local\Temp\LPC55SXX.elf.QlIYWa.ltrans0.ltrans.o
 .bss._usbd_dev
                0x20000108       0x2b C:\Users\Usuario\AppData\Local\Temp\LPC55SXX.elf.QlIYWa.ltrans0.ltrans.o
 *fill*         0x20000133        0x1 
 .bss._usbd_q   0x20000134        0x4 C:\Users\Usuario\AppData\Local\Temp\LPC55SXX.elf.QlIYWa.ltrans0.ltrans.o
 .bss._usbd_qdef_buf
                0x20000138       0xc0 C:\Users\Usuario\AppData\Local\Temp\LPC55SXX.elf.QlIYWa.ltrans0.ltrans.o
 .bss.led_state.0
                0x200001f8        0x1 C:\Users\Usuario\AppData\Local\Temp\LPC55SXX.elf.QlIYWa.ltrans0.ltrans.o
 *fill*         0x200001f9        0x3 
 .bss.start_ms.1
                0x200001fc        0x4 C:\Users\Usuario\AppData\Local\Temp\LPC55SXX.elf.QlIYWa.ltrans0.ltrans.o
 .bss.system_ticks
                0x20000200        0x4 C:\Users\Usuario\AppData\Local\Temp\LPC55SXX.elf.QlIYWa.ltrans0.ltrans.o
 .bss.__lock___malloc_recursive_mutex
                0x20000204        0x1 c:/nxp/mcuxpressoide_11.5.1_7266/ide/plugins/com.nxp.mcuxpresso.tools.win32_11.5.1.202201181444/tools/bin/../lib/gcc/arm-none-eabi/10.3.1/../../../../arm-none-eabi/lib/thumb/v8-m.main+fp/hard\libc_nano.a(lib_a-lock.o)
                0x20000204                __lock___malloc_recursive_mutex
 .bss.__lock___sfp_recursive_mutex
                0x20000205        0x1 c:/nxp/mcuxpressoide_11.5.1_7266/ide/plugins/com.nxp.mcuxpresso.tools.win32_11.5.1.202201181444/tools/bin/../lib/gcc/arm-none-eabi/10.3.1/../../../../arm-none-eabi/lib/thumb/v8-m.main+fp/hard\libc_nano.a(lib_a-lock.o)
                0x20000205                __lock___sfp_recursive_mutex
 .bss.__lock___sinit_recursive_mutex
                0x20000206        0x1 c:/nxp/mcuxpressoide_11.5.1_7266/ide/plugins/com.nxp.mcuxpresso.tools.win32_11.5.1.202201181444/tools/bin/../lib/gcc/arm-none-eabi/10.3.1/../../../../arm-none-eabi/lib/thumb/v8-m.main+fp/hard\libc_nano.a(lib_a-lock.o)
                0x20000206                __lock___sinit_recursive_mutex
 *fill*         0x20000207        0x1 
 .bss.__malloc_free_list
                0x20000208        0x4 c:/nxp/mcuxpressoide_11.5.1_7266/ide/plugins/com.nxp.mcuxpresso.tools.win32_11.5.1.202201181444/tools/bin/../lib/gcc/arm-none-eabi/10.3.1/../../../../arm-none-eabi/lib/thumb/v8-m.main+fp/hard\libc_nano.a(lib_a-nano-mallocr.o)
                0x20000208                __malloc_free_list
 .bss.__malloc_sbrk_start
                0x2000020c        0x4 c:/nxp/mcuxpressoide_11.5.1_7266/ide/plugins/com.nxp.mcuxpresso.tools.win32_11.5.1.202201181444/tools/bin/../lib/gcc/arm-none-eabi/10.3.1/../../../../arm-none-eabi/lib/thumb/v8-m.main+fp/hard\libc_nano.a(lib_a-nano-mallocr.o)
                0x2000020c                __malloc_sbrk_start
 .bss.errno     0x20000210        0x4 c:/nxp/mcuxpressoide_11.5.1_7266/ide/plugins/com.nxp.mcuxpresso.tools.win32_11.5.1.202201181444/tools/bin/../lib/gcc/arm-none-eabi/10.3.1/../../../../arm-none-eabi/lib/thumb/v8-m.main+fp/hard\libc_nano.a(lib_a-reent.o)
                0x20000210                errno
 .bss.heap_end.0
                0x20000214        0x4 c:/nxp/mcuxpressoide_11.5.1_7266/ide/plugins/com.nxp.mcuxpresso.tools.win32_11.5.1.202201181444/tools/bin/../lib/gcc/arm-none-eabi/10.3.1/../../../../arm-none-eabi/lib/thumb/v8-m.main+fp/hard\libnosys.a(sbrk.o)
 *(COMMON)
                0x20000218                . = ALIGN (0x4)
                0x20000218                __bss_end__ = .
                0x20000218                __END_BSS = .

.heap           0x20000218      0x400 load address 0x00003908
                0x20000218                . = ALIGN (0x8)
                0x20000218                __end__ = .
                0x20000218                PROVIDE (end = .)
                0x20000218                __HeapBase = .
                0x20000618                . = (. + HEAP_SIZE)
 *fill*         0x20000218      0x400 
                0x20000618                __HeapLimit = .
                0x20000618                __heap_limit = .

.stack          0x20000618      0x800 load address 0x00003d08
                0x20000618                . = ALIGN (0x8)
                0x20000e18                . = (. + STACK_SIZE)
 *fill*         0x20000618      0x800 

m_usb_bdt       0x40100000        0x0
                0x40100000                . = ALIGN (0x200)
 *(m_usb_bdt)

m_usb_global    0x40100000      0x240
 *(m_usb_global)
 m_usb_global   0x40100000      0x240 C:\Users\Usuario\AppData\Local\Temp\LPC55SXX.elf.QlIYWa.ltrans0.ltrans.o
                0x20030000                __StackTop = (ORIGIN (m_data) + LENGTH (m_data))
                0x2002f800                __StackLimit = (__StackTop - STACK_SIZE)
                0x20030000                PROVIDE (__stack = __StackTop)

.ARM.attributes
                0x00000000       0x36
 *(.ARM.attributes)
 .ARM.attributes
                0x00000000       0x22 c:/nxp/mcuxpressoide_11.5.1_7266/ide/plugins/com.nxp.mcuxpresso.tools.win32_11.5.1.202201181444/tools/bin/../lib/gcc/arm-none-eabi/10.3.1/thumb/v8-m.main+fp/hard/crti.o
 .ARM.attributes
                0x00000022       0x38 c:/nxp/mcuxpressoide_11.5.1_7266/ide/plugins/com.nxp.mcuxpresso.tools.win32_11.5.1.202201181444/tools/bin/../lib/gcc/arm-none-eabi/10.3.1/thumb/v8-m.main+fp/hard/crtbegin.o
 .ARM.attributes
                0x0000005a       0x20 c:/nxp/mcuxpressoide_11.5.1_7266/ide/plugins/com.nxp.mcuxpresso.tools.win32_11.5.1.202201181444/tools/bin/../lib/gcc/arm-none-eabi/10.3.1/../../../../arm-none-eabi/lib/thumb/v8-m.main+fp/hard/crt0.o
 .ARM.attributes
                0x0000007a       0x24 _build/lpcxpresso55s28/obj/hw/mcu/nxp/mcux-sdk/devices/LPC55S28/gcc/startup_LPC55S28_asm.o
 .ARM.attributes
                0x0000009e       0x38 C:\Users\Usuario\AppData\Local\Temp\LPC55SXX.elf.QlIYWa.ltrans0.ltrans.o
 .ARM.attributes
                0x000000d6       0x38 c:/nxp/mcuxpressoide_11.5.1_7266/ide/plugins/com.nxp.mcuxpresso.tools.win32_11.5.1.202201181444/tools/bin/../lib/gcc/arm-none-eabi/10.3.1/../../../../arm-none-eabi/lib/thumb/v8-m.main+fp/hard\libc_nano.a(lib_a-assert.o)
 .ARM.attributes
                0x0000010e       0x38 c:/nxp/mcuxpressoide_11.5.1_7266/ide/plugins/com.nxp.mcuxpresso.tools.win32_11.5.1.202201181444/tools/bin/../lib/gcc/arm-none-eabi/10.3.1/../../../../arm-none-eabi/lib/thumb/v8-m.main+fp/hard\libc_nano.a(lib_a-exit.o)
 .ARM.attributes
                0x00000146       0x38 c:/nxp/mcuxpressoide_11.5.1_7266/ide/plugins/com.nxp.mcuxpresso.tools.win32_11.5.1.202201181444/tools/bin/../lib/gcc/arm-none-eabi/10.3.1/../../../../arm-none-eabi/lib/thumb/v8-m.main+fp/hard\libc_nano.a(lib_a-fprintf.o)
 .ARM.attributes
                0x0000017e       0x36 c:/nxp/mcuxpressoide_11.5.1_7266/ide/plugins/com.nxp.mcuxpresso.tools.win32_11.5.1.202201181444/tools/bin/../lib/gcc/arm-none-eabi/10.3.1/../../../../arm-none-eabi/lib/thumb/v8-m.main+fp/hard\libc_nano.a(lib_a-impure.o)
 .ARM.attributes
                0x000001b4       0x38 c:/nxp/mcuxpressoide_11.5.1_7266/ide/plugins/com.nxp.mcuxpresso.tools.win32_11.5.1.202201181444/tools/bin/../lib/gcc/arm-none-eabi/10.3.1/../../../../arm-none-eabi/lib/thumb/v8-m.main+fp/hard\libc_nano.a(lib_a-init.o)
 .ARM.attributes
                0x000001ec       0x38 c:/nxp/mcuxpressoide_11.5.1_7266/ide/plugins/com.nxp.mcuxpresso.tools.win32_11.5.1.202201181444/tools/bin/../lib/gcc/arm-none-eabi/10.3.1/../../../../arm-none-eabi/lib/thumb/v8-m.main+fp/hard\libc_nano.a(lib_a-memset.o)
 .ARM.attributes
                0x00000224       0x38 c:/nxp/mcuxpressoide_11.5.1_7266/ide/plugins/com.nxp.mcuxpresso.tools.win32_11.5.1.202201181444/tools/bin/../lib/gcc/arm-none-eabi/10.3.1/../../../../arm-none-eabi/lib/thumb/v8-m.main+fp/hard\libc_nano.a(lib_a-nano-vfprintf.o)
 .ARM.attributes
                0x0000025c       0x38 c:/nxp/mcuxpressoide_11.5.1_7266/ide/plugins/com.nxp.mcuxpresso.tools.win32_11.5.1.202201181444/tools/bin/../lib/gcc/arm-none-eabi/10.3.1/../../../../arm-none-eabi/lib/thumb/v8-m.main+fp/hard\libc_nano.a(lib_a-nano-vfprintf_i.o)
 .ARM.attributes
                0x00000294       0x38 c:/nxp/mcuxpressoide_11.5.1_7266/ide/plugins/com.nxp.mcuxpresso.tools.win32_11.5.1.202201181444/tools/bin/../lib/gcc/arm-none-eabi/10.3.1/../../../../arm-none-eabi/lib/thumb/v8-m.main+fp/hard\libc_nano.a(lib_a-wbuf.o)
 .ARM.attributes
                0x000002cc       0x38 c:/nxp/mcuxpressoide_11.5.1_7266/ide/plugins/com.nxp.mcuxpresso.tools.win32_11.5.1.202201181444/tools/bin/../lib/gcc/arm-none-eabi/10.3.1/../../../../arm-none-eabi/lib/thumb/v8-m.main+fp/hard\libc_nano.a(lib_a-wsetup.o)
 .ARM.attributes
                0x00000304       0x38 c:/nxp/mcuxpressoide_11.5.1_7266/ide/plugins/com.nxp.mcuxpresso.tools.win32_11.5.1.202201181444/tools/bin/../lib/gcc/arm-none-eabi/10.3.1/../../../../arm-none-eabi/lib/thumb/v8-m.main+fp/hard\libc_nano.a(lib_a-abort.o)
 .ARM.attributes
                0x0000033c       0x38 c:/nxp/mcuxpressoide_11.5.1_7266/ide/plugins/com.nxp.mcuxpresso.tools.win32_11.5.1.202201181444/tools/bin/../lib/gcc/arm-none-eabi/10.3.1/../../../../arm-none-eabi/lib/thumb/v8-m.main+fp/hard\libc_nano.a(lib_a-fflush.o)
 .ARM.attributes
                0x00000374       0x38 c:/nxp/mcuxpressoide_11.5.1_7266/ide/plugins/com.nxp.mcuxpresso.tools.win32_11.5.1.202201181444/tools/bin/../lib/gcc/arm-none-eabi/10.3.1/../../../../arm-none-eabi/lib/thumb/v8-m.main+fp/hard\libc_nano.a(lib_a-findfp.o)
 .ARM.attributes
                0x000003ac       0x38 c:/nxp/mcuxpressoide_11.5.1_7266/ide/plugins/com.nxp.mcuxpresso.tools.win32_11.5.1.202201181444/tools/bin/../lib/gcc/arm-none-eabi/10.3.1/../../../../arm-none-eabi/lib/thumb/v8-m.main+fp/hard\libc_nano.a(lib_a-fwalk.o)
 .ARM.attributes
                0x000003e4       0x38 c:/nxp/mcuxpressoide_11.5.1_7266/ide/plugins/com.nxp.mcuxpresso.tools.win32_11.5.1.202201181444/tools/bin/../lib/gcc/arm-none-eabi/10.3.1/../../../../arm-none-eabi/lib/thumb/v8-m.main+fp/hard\libc_nano.a(lib_a-lock.o)
 .ARM.attributes
                0x0000041c       0x38 c:/nxp/mcuxpressoide_11.5.1_7266/ide/plugins/com.nxp.mcuxpresso.tools.win32_11.5.1.202201181444/tools/bin/../lib/gcc/arm-none-eabi/10.3.1/../../../../arm-none-eabi/lib/thumb/v8-m.main+fp/hard\libc_nano.a(lib_a-makebuf.o)
 .ARM.attributes
                0x00000454       0x38 c:/nxp/mcuxpressoide_11.5.1_7266/ide/plugins/com.nxp.mcuxpresso.tools.win32_11.5.1.202201181444/tools/bin/../lib/gcc/arm-none-eabi/10.3.1/../../../../arm-none-eabi/lib/thumb/v8-m.main+fp/hard\libc_nano.a(lib_a-memchr-stub.o)
 .ARM.attributes
                0x0000048c       0x38 c:/nxp/mcuxpressoide_11.5.1_7266/ide/plugins/com.nxp.mcuxpresso.tools.win32_11.5.1.202201181444/tools/bin/../lib/gcc/arm-none-eabi/10.3.1/../../../../arm-none-eabi/lib/thumb/v8-m.main+fp/hard\libc_nano.a(lib_a-memcpy-stub.o)
 .ARM.attributes
                0x000004c4       0x38 c:/nxp/mcuxpressoide_11.5.1_7266/ide/plugins/com.nxp.mcuxpresso.tools.win32_11.5.1.202201181444/tools/bin/../lib/gcc/arm-none-eabi/10.3.1/../../../../arm-none-eabi/lib/thumb/v8-m.main+fp/hard\libc_nano.a(lib_a-nano-freer.o)
 .ARM.attributes
                0x000004fc       0x38 c:/nxp/mcuxpressoide_11.5.1_7266/ide/plugins/com.nxp.mcuxpresso.tools.win32_11.5.1.202201181444/tools/bin/../lib/gcc/arm-none-eabi/10.3.1/../../../../arm-none-eabi/lib/thumb/v8-m.main+fp/hard\libc_nano.a(lib_a-nano-mallocr.o)
 .ARM.attributes
                0x00000534       0x38 c:/nxp/mcuxpressoide_11.5.1_7266/ide/plugins/com.nxp.mcuxpresso.tools.win32_11.5.1.202201181444/tools/bin/../lib/gcc/arm-none-eabi/10.3.1/../../../../arm-none-eabi/lib/thumb/v8-m.main+fp/hard\libc_nano.a(lib_a-sbrkr.o)
 .ARM.attributes
                0x0000056c       0x38 c:/nxp/mcuxpressoide_11.5.1_7266/ide/plugins/com.nxp.mcuxpresso.tools.win32_11.5.1.202201181444/tools/bin/../lib/gcc/arm-none-eabi/10.3.1/../../../../arm-none-eabi/lib/thumb/v8-m.main+fp/hard\libc_nano.a(lib_a-signal.o)
 .ARM.attributes
                0x000005a4       0x38 c:/nxp/mcuxpressoide_11.5.1_7266/ide/plugins/com.nxp.mcuxpresso.tools.win32_11.5.1.202201181444/tools/bin/../lib/gcc/arm-none-eabi/10.3.1/../../../../arm-none-eabi/lib/thumb/v8-m.main+fp/hard\libc_nano.a(lib_a-signalr.o)
 .ARM.attributes
                0x000005dc       0x38 c:/nxp/mcuxpressoide_11.5.1_7266/ide/plugins/com.nxp.mcuxpresso.tools.win32_11.5.1.202201181444/tools/bin/../lib/gcc/arm-none-eabi/10.3.1/../../../../arm-none-eabi/lib/thumb/v8-m.main+fp/hard\libc_nano.a(lib_a-stdio.o)
 .ARM.attributes
                0x00000614       0x38 c:/nxp/mcuxpressoide_11.5.1_7266/ide/plugins/com.nxp.mcuxpresso.tools.win32_11.5.1.202201181444/tools/bin/../lib/gcc/arm-none-eabi/10.3.1/../../../../arm-none-eabi/lib/thumb/v8-m.main+fp/hard\libc_nano.a(lib_a-writer.o)
 .ARM.attributes
                0x0000064c       0x38 c:/nxp/mcuxpressoide_11.5.1_7266/ide/plugins/com.nxp.mcuxpresso.tools.win32_11.5.1.202201181444/tools/bin/../lib/gcc/arm-none-eabi/10.3.1/../../../../arm-none-eabi/lib/thumb/v8-m.main+fp/hard\libc_nano.a(lib_a-closer.o)
 .ARM.attributes
                0x00000684       0x38 c:/nxp/mcuxpressoide_11.5.1_7266/ide/plugins/com.nxp.mcuxpresso.tools.win32_11.5.1.202201181444/tools/bin/../lib/gcc/arm-none-eabi/10.3.1/../../../../arm-none-eabi/lib/thumb/v8-m.main+fp/hard\libc_nano.a(lib_a-fstatr.o)
 .ARM.attributes
                0x000006bc       0x38 c:/nxp/mcuxpressoide_11.5.1_7266/ide/plugins/com.nxp.mcuxpresso.tools.win32_11.5.1.202201181444/tools/bin/../lib/gcc/arm-none-eabi/10.3.1/../../../../arm-none-eabi/lib/thumb/v8-m.main+fp/hard\libc_nano.a(lib_a-isattyr.o)
 .ARM.attributes
                0x000006f4       0x38 c:/nxp/mcuxpressoide_11.5.1_7266/ide/plugins/com.nxp.mcuxpresso.tools.win32_11.5.1.202201181444/tools/bin/../lib/gcc/arm-none-eabi/10.3.1/../../../../arm-none-eabi/lib/thumb/v8-m.main+fp/hard\libc_nano.a(lib_a-lseekr.o)
 .ARM.attributes
                0x0000072c       0x38 c:/nxp/mcuxpressoide_11.5.1_7266/ide/plugins/com.nxp.mcuxpresso.tools.win32_11.5.1.202201181444/tools/bin/../lib/gcc/arm-none-eabi/10.3.1/../../../../arm-none-eabi/lib/thumb/v8-m.main+fp/hard\libc_nano.a(lib_a-mlock.o)
 .ARM.attributes
                0x00000764       0x38 c:/nxp/mcuxpressoide_11.5.1_7266/ide/plugins/com.nxp.mcuxpresso.tools.win32_11.5.1.202201181444/tools/bin/../lib/gcc/arm-none-eabi/10.3.1/../../../../arm-none-eabi/lib/thumb/v8-m.main+fp/hard\libc_nano.a(lib_a-readr.o)
 .ARM.attributes
                0x0000079c       0x38 c:/nxp/mcuxpressoide_11.5.1_7266/ide/plugins/com.nxp.mcuxpresso.tools.win32_11.5.1.202201181444/tools/bin/../lib/gcc/arm-none-eabi/10.3.1/../../../../arm-none-eabi/lib/thumb/v8-m.main+fp/hard\libc_nano.a(lib_a-reent.o)
 .ARM.attributes
                0x000007d4       0x17 c:/nxp/mcuxpressoide_11.5.1_7266/ide/plugins/com.nxp.mcuxpresso.tools.win32_11.5.1.202201181444/tools/bin/../lib/gcc/arm-none-eabi/10.3.1/../../../../arm-none-eabi/lib/thumb/v8-m.main+fp/hard\libc_nano.a(lib_a-strlen.o)
 .ARM.attributes
                0x000007eb       0x38 c:/nxp/mcuxpressoide_11.5.1_7266/ide/plugins/com.nxp.mcuxpresso.tools.win32_11.5.1.202201181444/tools/bin/../lib/gcc/arm-none-eabi/10.3.1/../../../../arm-none-eabi/lib/thumb/v8-m.main+fp/hard\libnosys.a(close.o)
 .ARM.attributes
                0x00000823       0x38 c:/nxp/mcuxpressoide_11.5.1_7266/ide/plugins/com.nxp.mcuxpresso.tools.win32_11.5.1.202201181444/tools/bin/../lib/gcc/arm-none-eabi/10.3.1/../../../../arm-none-eabi/lib/thumb/v8-m.main+fp/hard\libnosys.a(fstat.o)
 .ARM.attributes
                0x0000085b       0x38 c:/nxp/mcuxpressoide_11.5.1_7266/ide/plugins/com.nxp.mcuxpresso.tools.win32_11.5.1.202201181444/tools/bin/../lib/gcc/arm-none-eabi/10.3.1/../../../../arm-none-eabi/lib/thumb/v8-m.main+fp/hard\libnosys.a(getpid.o)
 .ARM.attributes
                0x00000893       0x38 c:/nxp/mcuxpressoide_11.5.1_7266/ide/plugins/com.nxp.mcuxpresso.tools.win32_11.5.1.202201181444/tools/bin/../lib/gcc/arm-none-eabi/10.3.1/../../../../arm-none-eabi/lib/thumb/v8-m.main+fp/hard\libnosys.a(isatty.o)
 .ARM.attributes
                0x000008cb       0x38 c:/nxp/mcuxpressoide_11.5.1_7266/ide/plugins/com.nxp.mcuxpresso.tools.win32_11.5.1.202201181444/tools/bin/../lib/gcc/arm-none-eabi/10.3.1/../../../../arm-none-eabi/lib/thumb/v8-m.main+fp/hard\libnosys.a(kill.o)
 .ARM.attributes
                0x00000903       0x38 c:/nxp/mcuxpressoide_11.5.1_7266/ide/plugins/com.nxp.mcuxpresso.tools.win32_11.5.1.202201181444/tools/bin/../lib/gcc/arm-none-eabi/10.3.1/../../../../arm-none-eabi/lib/thumb/v8-m.main+fp/hard\libnosys.a(lseek.o)
 .ARM.attributes
                0x0000093b       0x38 c:/nxp/mcuxpressoide_11.5.1_7266/ide/plugins/com.nxp.mcuxpresso.tools.win32_11.5.1.202201181444/tools/bin/../lib/gcc/arm-none-eabi/10.3.1/../../../../arm-none-eabi/lib/thumb/v8-m.main+fp/hard\libnosys.a(sbrk.o)
 .ARM.attributes
                0x00000973       0x38 c:/nxp/mcuxpressoide_11.5.1_7266/ide/plugins/com.nxp.mcuxpresso.tools.win32_11.5.1.202201181444/tools/bin/../lib/gcc/arm-none-eabi/10.3.1/../../../../arm-none-eabi/lib/thumb/v8-m.main+fp/hard\libnosys.a(_exit.o)
 .ARM.attributes
                0x000009ab       0x22 c:/nxp/mcuxpressoide_11.5.1_7266/ide/plugins/com.nxp.mcuxpresso.tools.win32_11.5.1.202201181444/tools/bin/../lib/gcc/arm-none-eabi/10.3.1/thumb/v8-m.main+fp/hard/crtn.o
                0x00000001                ASSERT ((__StackLimit >= __HeapLimit), region m_data overflowed with stack and heap)
LOAD _build/lpcxpresso55s28/obj/hw/mcu/nxp/mcux-sdk/devices/LPC55S28/gcc/startup_LPC55S28_asm.o
LOAD _build/lpcxpresso55s28/obj/src/portable/nxp/lpc_ip3511/dcd_lpc_ip3511.o
LOAD C:\Users\Usuario\AppData\Local\Temp\LPC55SXX.elf.QlIYWa.ltrans0.ltrans.o
LOAD C:\Users\Usuario\AppData\Local\Temp\ccJ8dWTZ.debug.temp.o
LOAD C:\Users\Usuario\AppData\Local\Temp\ccAUsiXN.debug.temp.o
LOAD C:\Users\Usuario\AppData\Local\Temp\ccxPMV4B.debug.temp.o
LOAD C:\Users\Usuario\AppData\Local\Temp\ccUXyzhq.debug.temp.o
LOAD C:\Users\Usuario\AppData\Local\Temp\ccHLdOye.debug.temp.o
LOAD C:\Users\Usuario\AppData\Local\Temp\ccK1iHO1.debug.temp.o
LOAD C:\Users\Usuario\AppData\Local\Temp\ccXy488O.debug.temp.o
LOAD C:\Users\Usuario\AppData\Local\Temp\cciOI0xC.debug.temp.o
LOAD C:\Users\Usuario\AppData\Local\Temp\cc1dyS1p.debug.temp.o
LOAD C:\Users\Usuario\AppData\Local\Temp\ccO3FLCd.debug.temp.o
LOAD C:\Users\Usuario\AppData\Local\Temp\ccTmAei1.debug.temp.o
LOAD C:\Users\Usuario\AppData\Local\Temp\ccgDK81O.debug.temp.o
LOAD C:\Users\Usuario\AppData\Local\Temp\ccxoeUmG.debug.temp.o
LOAD C:\Users\Usuario\AppData\Local\Temp\ccmxtGQx.debug.temp.o
LOAD C:\Users\Usuario\AppData\Local\Temp\ccHwtlpp.debug.temp.o
LOAD C:\Users\Usuario\AppData\Local\Temp\ccIzyD2g.debug.temp.o
LOAD C:\Users\Usuario\AppData\Local\Temp\ccRUoiP8.debug.temp.o
LOAD C:\Users\Usuario\AppData\Local\Temp\ccgaeoG0.debug.temp.o
LOAD C:\Users\Usuario\AppData\Local\Temp\ccZHDWtR.debug.temp.o
LOAD C:\Users\Usuario\AppData\Local\Temp\ccY91VlI.debug.temp.o
LOAD C:\Users\Usuario\AppData\Local\Temp\ccf5cviz.debug.temp.o
LOAD C:\Users\Usuario\AppData\Local\Temp\cca3eYjq.debug.temp.o
LOAD C:\Users\Usuario\AppData\Local\Temp\cctHeQuh.debug.temp.o
LOAD C:\Users\Usuario\AppData\Local\Temp\cc2LJhK8.debug.temp.o
LOAD C:\Users\Usuario\AppData\Local\Temp\ccRKda4Z.debug.temp.o
LOAD C:\Users\Usuario\AppData\Local\Temp\ccuZueiQ.debug.temp.o
LOAD C:\Users\Usuario\AppData\Local\Temp\ccpb2JAG.debug.temp.o
LOAD C:\Users\Usuario\AppData\Local\Temp\ccCQlPXw.debug.temp.o
LOAD C:\Users\Usuario\AppData\Local\Temp\ccHD3Dnn.debug.temp.o
LOAD _build/lpcxpresso55s28/obj/hw/mcu/nxp/mcux-sdk/devices/LPC55S28/system_LPC55S28.o
LOAD _build/lpcxpresso55s28/obj/hw/mcu/nxp/mcux-sdk/devices/LPC55S28/drivers/fsl_clock.o
LOAD _build/lpcxpresso55s28/obj/hw/mcu/nxp/mcux-sdk/devices/LPC55S28/drivers/fsl_power.o
LOAD _build/lpcxpresso55s28/obj/hw/mcu/nxp/mcux-sdk/devices/LPC55S28/drivers/fsl_reset.o
LOAD _build/lpcxpresso55s28/obj/hw/mcu/nxp/mcux-sdk/drivers/lpc_gpio/fsl_gpio.o
LOAD _build/lpcxpresso55s28/obj/hw/mcu/nxp/mcux-sdk/drivers/flexcomm/fsl_flexcomm.o
LOAD _build/lpcxpresso55s28/obj/hw/mcu/nxp/mcux-sdk/drivers/flexcomm/fsl_usart.o
LOAD _build/lpcxpresso55s28/obj/lib/sct_neopixel/sct_neopixel.o
LOAD _build/lpcxpresso55s28/obj/hw/bsp/lpc55/family.o
LOAD _build/lpcxpresso55s28/obj/hw/bsp/board.o
LOAD _build/lpcxpresso55s28/obj/src/main.o
LOAD _build/lpcxpresso55s28/obj/src/usb_descriptors.o
LOAD _build/lpcxpresso55s28/obj/src/tusb.o
LOAD _build/lpcxpresso55s28/obj/src/common/tusb_fifo.o
LOAD _build/lpcxpresso55s28/obj/src/device/usbd.o
LOAD _build/lpcxpresso55s28/obj/src/device/usbd_control.o
LOAD _build/lpcxpresso55s28/obj/src/class/audio/audio_device.o
LOAD _build/lpcxpresso55s28/obj/src/class/cdc/cdc_device.o
LOAD _build/lpcxpresso55s28/obj/src/class/dfu/dfu_device.o
LOAD _build/lpcxpresso55s28/obj/src/class/dfu/dfu_rt_device.o
LOAD _build/lpcxpresso55s28/obj/src/class/hid/hid_device.o
LOAD _build/lpcxpresso55s28/obj/src/class/midi/midi_device.o
LOAD _build/lpcxpresso55s28/obj/src/class/msc/msc_device.o
LOAD _build/lpcxpresso55s28/obj/src/class/net/ecm_rndis_device.o
LOAD _build/lpcxpresso55s28/obj/src/class/net/ncm_device.o
LOAD _build/lpcxpresso55s28/obj/src/class/usbtmc/usbtmc_device.o
LOAD _build/lpcxpresso55s28/obj/src/class/video/video_device.o
LOAD _build/lpcxpresso55s28/obj/src/class/vendor/vendor_device.o
START GROUP
LOAD D:/OneDrive/3-Focus/Binho/USB-Next-Gen/GitLab/nxp-makefile/LPC55SXX/lib/tinyusb-binho/hw/mcu/nxp/mcux-sdk/devices/LPC55S28/gcc/libpower_hardabi.a
LOAD c:/nxp/mcuxpressoide_11.5.1_7266/ide/plugins/com.nxp.mcuxpresso.tools.win32_11.5.1.202201181444/tools/bin/../lib/gcc/arm-none-eabi/10.3.1/thumb/v8-m.main+fp/hard\libgcc.a
LOAD c:/nxp/mcuxpressoide_11.5.1_7266/ide/plugins/com.nxp.mcuxpresso.tools.win32_11.5.1.202201181444/tools/bin/../lib/gcc/arm-none-eabi/10.3.1/../../../../arm-none-eabi/lib/thumb/v8-m.main+fp/hard\libm.a
LOAD c:/nxp/mcuxpressoide_11.5.1_7266/ide/plugins/com.nxp.mcuxpresso.tools.win32_11.5.1.202201181444/tools/bin/../lib/gcc/arm-none-eabi/10.3.1/../../../../arm-none-eabi/lib/thumb/v8-m.main+fp/hard\libnosys.a
LOAD c:/nxp/mcuxpressoide_11.5.1_7266/ide/plugins/com.nxp.mcuxpresso.tools.win32_11.5.1.202201181444/tools/bin/../lib/gcc/arm-none-eabi/10.3.1/../../../../arm-none-eabi/lib/thumb/v8-m.main+fp/hard\libc_nano.a
END GROUP
START GROUP
LOAD c:/nxp/mcuxpressoide_11.5.1_7266/ide/plugins/com.nxp.mcuxpresso.tools.win32_11.5.1.202201181444/tools/bin/../lib/gcc/arm-none-eabi/10.3.1/thumb/v8-m.main+fp/hard\libgcc.a
LOAD c:/nxp/mcuxpressoide_11.5.1_7266/ide/plugins/com.nxp.mcuxpresso.tools.win32_11.5.1.202201181444/tools/bin/../lib/gcc/arm-none-eabi/10.3.1/../../../../arm-none-eabi/lib/thumb/v8-m.main+fp/hard\libg_nano.a
LOAD c:/nxp/mcuxpressoide_11.5.1_7266/ide/plugins/com.nxp.mcuxpresso.tools.win32_11.5.1.202201181444/tools/bin/../lib/gcc/arm-none-eabi/10.3.1/../../../../arm-none-eabi/lib/thumb/v8-m.main+fp/hard\libc_nano.a
END GROUP
START GROUP
LOAD c:/nxp/mcuxpressoide_11.5.1_7266/ide/plugins/com.nxp.mcuxpresso.tools.win32_11.5.1.202201181444/tools/bin/../lib/gcc/arm-none-eabi/10.3.1/thumb/v8-m.main+fp/hard\libgcc.a
LOAD c:/nxp/mcuxpressoide_11.5.1_7266/ide/plugins/com.nxp.mcuxpresso.tools.win32_11.5.1.202201181444/tools/bin/../lib/gcc/arm-none-eabi/10.3.1/../../../../arm-none-eabi/lib/thumb/v8-m.main+fp/hard\libc_nano.a
LOAD c:/nxp/mcuxpressoide_11.5.1_7266/ide/plugins/com.nxp.mcuxpresso.tools.win32_11.5.1.202201181444/tools/bin/../lib/gcc/arm-none-eabi/10.3.1/../../../../arm-none-eabi/lib/thumb/v8-m.main+fp/hard\libnosys.a
END GROUP
START GROUP
LOAD c:/nxp/mcuxpressoide_11.5.1_7266/ide/plugins/com.nxp.mcuxpresso.tools.win32_11.5.1.202201181444/tools/bin/../lib/gcc/arm-none-eabi/10.3.1/thumb/v8-m.main+fp/hard\libgcc.a
LOAD c:/nxp/mcuxpressoide_11.5.1_7266/ide/plugins/com.nxp.mcuxpresso.tools.win32_11.5.1.202201181444/tools/bin/../lib/gcc/arm-none-eabi/10.3.1/../../../../arm-none-eabi/lib/thumb/v8-m.main+fp/hard\libc_nano.a
LOAD c:/nxp/mcuxpressoide_11.5.1_7266/ide/plugins/com.nxp.mcuxpresso.tools.win32_11.5.1.202201181444/tools/bin/../lib/gcc/arm-none-eabi/10.3.1/../../../../arm-none-eabi/lib/thumb/v8-m.main+fp/hard\libnosys.a
END GROUP
LOAD c:/nxp/mcuxpressoide_11.5.1_7266/ide/plugins/com.nxp.mcuxpresso.tools.win32_11.5.1.202201181444/tools/bin/../lib/gcc/arm-none-eabi/10.3.1/thumb/v8-m.main+fp/hard/crtend.o
LOAD c:/nxp/mcuxpressoide_11.5.1_7266/ide/plugins/com.nxp.mcuxpresso.tools.win32_11.5.1.202201181444/tools/bin/../lib/gcc/arm-none-eabi/10.3.1/thumb/v8-m.main+fp/hard/crtn.o
OUTPUT(_build/lpcxpresso55s28/LPC55SXX.elf elf32-littlearm)
LOAD linker stubs

.debug_line     0x00000000     0x6c84
 .debug_line    0x00000000      0x244 _build/lpcxpresso55s28/obj/hw/mcu/nxp/mcux-sdk/devices/LPC55S28/gcc/startup_LPC55S28_asm.o
 .debug_line    0x00000244     0x324f C:\Users\Usuario\AppData\Local\Temp\LPC55SXX.elf.QlIYWa.ltrans0.ltrans.o
 .debug_line    0x00003493      0x3d4 C:\Users\Usuario\AppData\Local\Temp\ccJ8dWTZ.debug.temp.o
 .debug_line    0x00003867      0x27d C:\Users\Usuario\AppData\Local\Temp\ccAUsiXN.debug.temp.o
 .debug_line    0x00003ae4      0x305 C:\Users\Usuario\AppData\Local\Temp\ccxPMV4B.debug.temp.o
 .debug_line    0x00003de9      0x312 C:\Users\Usuario\AppData\Local\Temp\ccUXyzhq.debug.temp.o
 .debug_line    0x000040fb      0x26d C:\Users\Usuario\AppData\Local\Temp\ccHLdOye.debug.temp.o
 .debug_line    0x00004368      0x38d C:\Users\Usuario\AppData\Local\Temp\ccK1iHO1.debug.temp.o
 .debug_line    0x000046f5      0x395 C:\Users\Usuario\AppData\Local\Temp\ccXy488O.debug.temp.o
 .debug_line    0x00004a8a      0x4c4 C:\Users\Usuario\AppData\Local\Temp\cciOI0xC.debug.temp.o
 .debug_line    0x00004f4e      0x495 C:\Users\Usuario\AppData\Local\Temp\cc1dyS1p.debug.temp.o
 .debug_line    0x000053e3      0x5ae C:\Users\Usuario\AppData\Local\Temp\ccO3FLCd.debug.temp.o
 .debug_line    0x00005991      0x242 C:\Users\Usuario\AppData\Local\Temp\ccTmAei1.debug.temp.o
 .debug_line    0x00005bd3      0x239 C:\Users\Usuario\AppData\Local\Temp\ccgDK81O.debug.temp.o
 .debug_line    0x00005e0c      0x23a C:\Users\Usuario\AppData\Local\Temp\ccxoeUmG.debug.temp.o
 .debug_line    0x00006046      0x298 C:\Users\Usuario\AppData\Local\Temp\ccmxtGQx.debug.temp.o
 .debug_line    0x000062de      0x1d3 C:\Users\Usuario\AppData\Local\Temp\ccHwtlpp.debug.temp.o
 .debug_line    0x000064b1      0x2e0 C:\Users\Usuario\AppData\Local\Temp\ccIzyD2g.debug.temp.o
 .debug_line    0x00006791      0x246 C:\Users\Usuario\AppData\Local\Temp\ccRUoiP8.debug.temp.o
 .debug_line    0x000069d7      0x2ad C:\Users\Usuario\AppData\Local\Temp\cca3eYjq.debug.temp.o

.debug_info     0x00000000    0x1b3c8
 .debug_info    0x00000000       0x26 _build/lpcxpresso55s28/obj/hw/mcu/nxp/mcux-sdk/devices/LPC55S28/gcc/startup_LPC55S28_asm.o
 .debug_info    0x00000026     0x4892 C:\Users\Usuario\AppData\Local\Temp\LPC55SXX.elf.QlIYWa.ltrans0.ltrans.o
 .debug_info    0x000048b8     0x11dc C:\Users\Usuario\AppData\Local\Temp\ccJ8dWTZ.debug.temp.o
                0x000048b8                dcd_lpc_ip3511.c.3c512b9f
 .debug_info    0x00005a94     0x13ae C:\Users\Usuario\AppData\Local\Temp\ccAUsiXN.debug.temp.o
                0x00005a94                system_LPC55S28.c.540aa3c9
 .debug_info    0x00006e42     0x2f15 C:\Users\Usuario\AppData\Local\Temp\ccxPMV4B.debug.temp.o
                0x00006e42                fsl_clock.c.7cb39973
 .debug_info    0x00009d57     0x27b4 C:\Users\Usuario\AppData\Local\Temp\ccUXyzhq.debug.temp.o
                0x00009d57                fsl_power.c.43733d69
 .debug_info    0x0000c50b      0xec3 C:\Users\Usuario\AppData\Local\Temp\ccHLdOye.debug.temp.o
                0x0000c50b                fsl_reset.c.f5284730
 .debug_info    0x0000d3ce     0x1711 C:\Users\Usuario\AppData\Local\Temp\ccK1iHO1.debug.temp.o
                0x0000d3ce                fsl_gpio.c.df827d1c
 .debug_info    0x0000eadf     0x1a40 C:\Users\Usuario\AppData\Local\Temp\ccXy488O.debug.temp.o
                0x0000eadf                fsl_flexcomm.c.98b8032a
 .debug_info    0x0001051f     0x1735 C:\Users\Usuario\AppData\Local\Temp\cciOI0xC.debug.temp.o
                0x0001051f                fsl_usart.c.63b2f6fd
 .debug_info    0x00011c54     0x1fcb C:\Users\Usuario\AppData\Local\Temp\cc1dyS1p.debug.temp.o
                0x00011c54                sct_neopixel.c.d0839a0d
 .debug_info    0x00013c1f     0x2ebe C:\Users\Usuario\AppData\Local\Temp\ccO3FLCd.debug.temp.o
                0x00013c1f                family.c.87bb5680
 .debug_info    0x00016add      0x114 C:\Users\Usuario\AppData\Local\Temp\ccTmAei1.debug.temp.o
                0x00016add                board.c.211f4bba
 .debug_info    0x00016bf1      0x270 C:\Users\Usuario\AppData\Local\Temp\ccgDK81O.debug.temp.o
                0x00016bf1                main.c.4b236f5a
 .debug_info    0x00016e61      0x65a C:\Users\Usuario\AppData\Local\Temp\ccxoeUmG.debug.temp.o
                0x00016e61                usb_descriptors.c.20a49fcc
 .debug_info    0x000174bb      0x6b5 C:\Users\Usuario\AppData\Local\Temp\ccmxtGQx.debug.temp.o
                0x000174bb                tusb.c.7b644c00
 .debug_info    0x00017b70      0xd65 C:\Users\Usuario\AppData\Local\Temp\ccHwtlpp.debug.temp.o
                0x00017b70                tusb_fifo.c.3e57c8f3
 .debug_info    0x000188d5     0x18d5 C:\Users\Usuario\AppData\Local\Temp\ccIzyD2g.debug.temp.o
                0x000188d5                usbd.c.c008326a
 .debug_info    0x0001a1aa      0x4f6 C:\Users\Usuario\AppData\Local\Temp\ccRUoiP8.debug.temp.o
                0x0001a1aa                usbd_control.c.196e1cdc
 .debug_info    0x0001a6a0      0xd28 C:\Users\Usuario\AppData\Local\Temp\cca3eYjq.debug.temp.o
                0x0001a6a0                hid_device.c.9f5baf21

.debug_abbrev   0x00000000     0x2774
 .debug_abbrev  0x00000000       0x14 _build/lpcxpresso55s28/obj/hw/mcu/nxp/mcux-sdk/devices/LPC55S28/gcc/startup_LPC55S28_asm.o
 .debug_abbrev  0x00000014      0x331 C:\Users\Usuario\AppData\Local\Temp\LPC55SXX.elf.QlIYWa.ltrans0.ltrans.o
 .debug_abbrev  0x00000345      0x336 C:\Users\Usuario\AppData\Local\Temp\ccJ8dWTZ.debug.temp.o
 .debug_abbrev  0x0000067b      0x1a9 C:\Users\Usuario\AppData\Local\Temp\ccAUsiXN.debug.temp.o
 .debug_abbrev  0x00000824      0x298 C:\Users\Usuario\AppData\Local\Temp\ccxPMV4B.debug.temp.o
 .debug_abbrev  0x00000abc      0x22c C:\Users\Usuario\AppData\Local\Temp\ccUXyzhq.debug.temp.o
 .debug_abbrev  0x00000ce8      0x137 C:\Users\Usuario\AppData\Local\Temp\ccHLdOye.debug.temp.o
 .debug_abbrev  0x00000e1f      0x1ef C:\Users\Usuario\AppData\Local\Temp\ccK1iHO1.debug.temp.o
 .debug_abbrev  0x0000100e      0x26f C:\Users\Usuario\AppData\Local\Temp\ccXy488O.debug.temp.o
 .debug_abbrev  0x0000127d      0x292 C:\Users\Usuario\AppData\Local\Temp\cciOI0xC.debug.temp.o
 .debug_abbrev  0x0000150f      0x268 C:\Users\Usuario\AppData\Local\Temp\cc1dyS1p.debug.temp.o
 .debug_abbrev  0x00001777      0x2a6 C:\Users\Usuario\AppData\Local\Temp\ccO3FLCd.debug.temp.o
 .debug_abbrev  0x00001a1d       0x76 C:\Users\Usuario\AppData\Local\Temp\ccTmAei1.debug.temp.o
 .debug_abbrev  0x00001a93      0x10a C:\Users\Usuario\AppData\Local\Temp\ccgDK81O.debug.temp.o
 .debug_abbrev  0x00001b9d      0x138 C:\Users\Usuario\AppData\Local\Temp\ccxoeUmG.debug.temp.o
 .debug_abbrev  0x00001cd5      0x1b2 C:\Users\Usuario\AppData\Local\Temp\ccmxtGQx.debug.temp.o
 .debug_abbrev  0x00001e87      0x1a7 C:\Users\Usuario\AppData\Local\Temp\ccHwtlpp.debug.temp.o
 .debug_abbrev  0x0000202e      0x2db C:\Users\Usuario\AppData\Local\Temp\ccIzyD2g.debug.temp.o
 .debug_abbrev  0x00002309      0x1ea C:\Users\Usuario\AppData\Local\Temp\ccRUoiP8.debug.temp.o
 .debug_abbrev  0x000024f3      0x281 C:\Users\Usuario\AppData\Local\Temp\cca3eYjq.debug.temp.o

.debug_aranges  0x00000000      0x188
 .debug_aranges
                0x00000000       0x20 _build/lpcxpresso55s28/obj/hw/mcu/nxp/mcux-sdk/devices/LPC55S28/gcc/startup_LPC55S28_asm.o
 .debug_aranges
                0x00000020      0x168 C:\Users\Usuario\AppData\Local\Temp\LPC55SXX.elf.QlIYWa.ltrans0.ltrans.o

.debug_str      0x00000000     0x9cb9
 .debug_str     0x00000000       0xe4 _build/lpcxpresso55s28/obj/hw/mcu/nxp/mcux-sdk/devices/LPC55S28/gcc/startup_LPC55S28_asm.o
 .debug_str     0x000000e4      0x299 C:\Users\Usuario\AppData\Local\Temp\LPC55SXX.elf.QlIYWa.ltrans0.ltrans.o
                                0x2f8 (size before relaxing)
 .debug_str     0x0000037d      0xe90 C:\Users\Usuario\AppData\Local\Temp\ccJ8dWTZ.debug.temp.o
                                0xfea (size before relaxing)
 .debug_str     0x0000120d      0xaf1 C:\Users\Usuario\AppData\Local\Temp\ccAUsiXN.debug.temp.o
                                0xd8b (size before relaxing)
 .debug_str     0x00001cfe     0x2ddc C:\Users\Usuario\AppData\Local\Temp\ccxPMV4B.debug.temp.o
                               0x39af (size before relaxing)
 .debug_str     0x00004ada      0xde3 C:\Users\Usuario\AppData\Local\Temp\ccUXyzhq.debug.temp.o
                               0x3095 (size before relaxing)
 .debug_str     0x000058bd      0x73d C:\Users\Usuario\AppData\Local\Temp\ccHLdOye.debug.temp.o
                               0x103d (size before relaxing)
 .debug_str     0x00005ffa      0x188 C:\Users\Usuario\AppData\Local\Temp\ccK1iHO1.debug.temp.o
                               0x1fec (size before relaxing)
 .debug_str     0x00006182      0x34b C:\Users\Usuario\AppData\Local\Temp\ccXy488O.debug.temp.o
                               0x267c (size before relaxing)
 .debug_str     0x000064cd      0xbcd C:\Users\Usuario\AppData\Local\Temp\cciOI0xC.debug.temp.o
                               0x1e2c (size before relaxing)
 .debug_str     0x0000709a      0x6bb C:\Users\Usuario\AppData\Local\Temp\cc1dyS1p.debug.temp.o
                               0x2aa7 (size before relaxing)
 .debug_str     0x00007755      0x269 C:\Users\Usuario\AppData\Local\Temp\ccO3FLCd.debug.temp.o
                               0x3e59 (size before relaxing)
 .debug_str     0x000079be       0x6a C:\Users\Usuario\AppData\Local\Temp\ccTmAei1.debug.temp.o
                                0x25f (size before relaxing)
 .debug_str     0x00007a28      0x198 C:\Users\Usuario\AppData\Local\Temp\ccgDK81O.debug.temp.o
                                0x3a9 (size before relaxing)
 .debug_str     0x00007bc0      0xb5c C:\Users\Usuario\AppData\Local\Temp\ccxoeUmG.debug.temp.o
                                0xdb4 (size before relaxing)
 .debug_str     0x0000871c      0x2a1 C:\Users\Usuario\AppData\Local\Temp\ccmxtGQx.debug.temp.o
                                0x81b (size before relaxing)
 .debug_str     0x000089bd      0x47d C:\Users\Usuario\AppData\Local\Temp\ccHwtlpp.debug.temp.o
                                0x76b (size before relaxing)
 .debug_str     0x00008e3a      0x915 C:\Users\Usuario\AppData\Local\Temp\ccIzyD2g.debug.temp.o
                               0x1291 (size before relaxing)
 .debug_str     0x0000974f      0x199 C:\Users\Usuario\AppData\Local\Temp\ccRUoiP8.debug.temp.o
                                0x56c (size before relaxing)
 .debug_str     0x000098e8      0x3d1 C:\Users\Usuario\AppData\Local\Temp\cca3eYjq.debug.temp.o
                                0xdae (size before relaxing)

.debug_loc      0x00000000     0x4da2
 .debug_loc     0x00000000     0x4da2 C:\Users\Usuario\AppData\Local\Temp\LPC55SXX.elf.QlIYWa.ltrans0.ltrans.o

.debug_ranges   0x00000000     0x1378
 .debug_ranges  0x00000000     0x1378 C:\Users\Usuario\AppData\Local\Temp\LPC55SXX.elf.QlIYWa.ltrans0.ltrans.o

.comment        0x00000000       0x49
 .comment       0x00000000       0x49 C:\Users\Usuario\AppData\Local\Temp\LPC55SXX.elf.QlIYWa.ltrans0.ltrans.o
                                 0x4a (size before relaxing)

.debug_frame    0x00000000      0xee0
 .debug_frame   0x00000000      0x400 C:\Users\Usuario\AppData\Local\Temp\LPC55SXX.elf.QlIYWa.ltrans0.ltrans.o
 .debug_frame   0x00000400       0x40 c:/nxp/mcuxpressoide_11.5.1_7266/ide/plugins/com.nxp.mcuxpresso.tools.win32_11.5.1.202201181444/tools/bin/../lib/gcc/arm-none-eabi/10.3.1/../../../../arm-none-eabi/lib/thumb/v8-m.main+fp/hard\libc_nano.a(lib_a-assert.o)
 .debug_frame   0x00000440       0x28 c:/nxp/mcuxpressoide_11.5.1_7266/ide/plugins/com.nxp.mcuxpresso.tools.win32_11.5.1.202201181444/tools/bin/../lib/gcc/arm-none-eabi/10.3.1/../../../../arm-none-eabi/lib/thumb/v8-m.main+fp/hard\libc_nano.a(lib_a-exit.o)
 .debug_frame   0x00000468       0x64 c:/nxp/mcuxpressoide_11.5.1_7266/ide/plugins/com.nxp.mcuxpresso.tools.win32_11.5.1.202201181444/tools/bin/../lib/gcc/arm-none-eabi/10.3.1/../../../../arm-none-eabi/lib/thumb/v8-m.main+fp/hard\libc_nano.a(lib_a-fprintf.o)
 .debug_frame   0x000004cc       0x2c c:/nxp/mcuxpressoide_11.5.1_7266/ide/plugins/com.nxp.mcuxpresso.tools.win32_11.5.1.202201181444/tools/bin/../lib/gcc/arm-none-eabi/10.3.1/../../../../arm-none-eabi/lib/thumb/v8-m.main+fp/hard\libc_nano.a(lib_a-init.o)
 .debug_frame   0x000004f8       0x20 c:/nxp/mcuxpressoide_11.5.1_7266/ide/plugins/com.nxp.mcuxpresso.tools.win32_11.5.1.202201181444/tools/bin/../lib/gcc/arm-none-eabi/10.3.1/../../../../arm-none-eabi/lib/thumb/v8-m.main+fp/hard\libc_nano.a(lib_a-memset.o)
 .debug_frame   0x00000518       0xac c:/nxp/mcuxpressoide_11.5.1_7266/ide/plugins/com.nxp.mcuxpresso.tools.win32_11.5.1.202201181444/tools/bin/../lib/gcc/arm-none-eabi/10.3.1/../../../../arm-none-eabi/lib/thumb/v8-m.main+fp/hard\libc_nano.a(lib_a-nano-vfprintf.o)
 .debug_frame   0x000005c4       0x60 c:/nxp/mcuxpressoide_11.5.1_7266/ide/plugins/com.nxp.mcuxpresso.tools.win32_11.5.1.202201181444/tools/bin/../lib/gcc/arm-none-eabi/10.3.1/../../../../arm-none-eabi/lib/thumb/v8-m.main+fp/hard\libc_nano.a(lib_a-nano-vfprintf_i.o)
 .debug_frame   0x00000624       0x40 c:/nxp/mcuxpressoide_11.5.1_7266/ide/plugins/com.nxp.mcuxpresso.tools.win32_11.5.1.202201181444/tools/bin/../lib/gcc/arm-none-eabi/10.3.1/../../../../arm-none-eabi/lib/thumb/v8-m.main+fp/hard\libc_nano.a(lib_a-wbuf.o)
 .debug_frame   0x00000664       0x2c c:/nxp/mcuxpressoide_11.5.1_7266/ide/plugins/com.nxp.mcuxpresso.tools.win32_11.5.1.202201181444/tools/bin/../lib/gcc/arm-none-eabi/10.3.1/../../../../arm-none-eabi/lib/thumb/v8-m.main+fp/hard\libc_nano.a(lib_a-wsetup.o)
 .debug_frame   0x00000690       0x28 c:/nxp/mcuxpressoide_11.5.1_7266/ide/plugins/com.nxp.mcuxpresso.tools.win32_11.5.1.202201181444/tools/bin/../lib/gcc/arm-none-eabi/10.3.1/../../../../arm-none-eabi/lib/thumb/v8-m.main+fp/hard\libc_nano.a(lib_a-abort.o)
 .debug_frame   0x000006b8       0x5c c:/nxp/mcuxpressoide_11.5.1_7266/ide/plugins/com.nxp.mcuxpresso.tools.win32_11.5.1.202201181444/tools/bin/../lib/gcc/arm-none-eabi/10.3.1/../../../../arm-none-eabi/lib/thumb/v8-m.main+fp/hard\libc_nano.a(lib_a-fflush.o)
 .debug_frame   0x00000714      0x14c c:/nxp/mcuxpressoide_11.5.1_7266/ide/plugins/com.nxp.mcuxpresso.tools.win32_11.5.1.202201181444/tools/bin/../lib/gcc/arm-none-eabi/10.3.1/../../../../arm-none-eabi/lib/thumb/v8-m.main+fp/hard\libc_nano.a(lib_a-findfp.o)
 .debug_frame   0x00000860       0x54 c:/nxp/mcuxpressoide_11.5.1_7266/ide/plugins/com.nxp.mcuxpresso.tools.win32_11.5.1.202201181444/tools/bin/../lib/gcc/arm-none-eabi/10.3.1/../../../../arm-none-eabi/lib/thumb/v8-m.main+fp/hard\libc_nano.a(lib_a-fwalk.o)
 .debug_frame   0x000008b4       0xb0 c:/nxp/mcuxpressoide_11.5.1_7266/ide/plugins/com.nxp.mcuxpresso.tools.win32_11.5.1.202201181444/tools/bin/../lib/gcc/arm-none-eabi/10.3.1/../../../../arm-none-eabi/lib/thumb/v8-m.main+fp/hard\libc_nano.a(lib_a-lock.o)
 .debug_frame   0x00000964       0x58 c:/nxp/mcuxpressoide_11.5.1_7266/ide/plugins/com.nxp.mcuxpresso.tools.win32_11.5.1.202201181444/tools/bin/../lib/gcc/arm-none-eabi/10.3.1/../../../../arm-none-eabi/lib/thumb/v8-m.main+fp/hard\libc_nano.a(lib_a-makebuf.o)
 .debug_frame   0x000009bc       0x28 c:/nxp/mcuxpressoide_11.5.1_7266/ide/plugins/com.nxp.mcuxpresso.tools.win32_11.5.1.202201181444/tools/bin/../lib/gcc/arm-none-eabi/10.3.1/../../../../arm-none-eabi/lib/thumb/v8-m.main+fp/hard\libc_nano.a(lib_a-memchr-stub.o)
 .debug_frame   0x000009e4       0x28 c:/nxp/mcuxpressoide_11.5.1_7266/ide/plugins/com.nxp.mcuxpresso.tools.win32_11.5.1.202201181444/tools/bin/../lib/gcc/arm-none-eabi/10.3.1/../../../../arm-none-eabi/lib/thumb/v8-m.main+fp/hard\libc_nano.a(lib_a-memcpy-stub.o)
 .debug_frame   0x00000a0c       0x38 c:/nxp/mcuxpressoide_11.5.1_7266/ide/plugins/com.nxp.mcuxpresso.tools.win32_11.5.1.202201181444/tools/bin/../lib/gcc/arm-none-eabi/10.3.1/../../../../arm-none-eabi/lib/thumb/v8-m.main+fp/hard\libc_nano.a(lib_a-nano-freer.o)
 .debug_frame   0x00000a44       0x4c c:/nxp/mcuxpressoide_11.5.1_7266/ide/plugins/com.nxp.mcuxpresso.tools.win32_11.5.1.202201181444/tools/bin/../lib/gcc/arm-none-eabi/10.3.1/../../../../arm-none-eabi/lib/thumb/v8-m.main+fp/hard\libc_nano.a(lib_a-nano-mallocr.o)
 .debug_frame   0x00000a90       0x2c c:/nxp/mcuxpressoide_11.5.1_7266/ide/plugins/com.nxp.mcuxpresso.tools.win32_11.5.1.202201181444/tools/bin/../lib/gcc/arm-none-eabi/10.3.1/../../../../arm-none-eabi/lib/thumb/v8-m.main+fp/hard\libc_nano.a(lib_a-sbrkr.o)
 .debug_frame   0x00000abc       0xcc c:/nxp/mcuxpressoide_11.5.1_7266/ide/plugins/com.nxp.mcuxpresso.tools.win32_11.5.1.202201181444/tools/bin/../lib/gcc/arm-none-eabi/10.3.1/../../../../arm-none-eabi/lib/thumb/v8-m.main+fp/hard\libc_nano.a(lib_a-signal.o)
 .debug_frame   0x00000b88       0x3c c:/nxp/mcuxpressoide_11.5.1_7266/ide/plugins/com.nxp.mcuxpresso.tools.win32_11.5.1.202201181444/tools/bin/../lib/gcc/arm-none-eabi/10.3.1/../../../../arm-none-eabi/lib/thumb/v8-m.main+fp/hard\libc_nano.a(lib_a-signalr.o)
 .debug_frame   0x00000bc4       0x88 c:/nxp/mcuxpressoide_11.5.1_7266/ide/plugins/com.nxp.mcuxpresso.tools.win32_11.5.1.202201181444/tools/bin/../lib/gcc/arm-none-eabi/10.3.1/../../../../arm-none-eabi/lib/thumb/v8-m.main+fp/hard\libc_nano.a(lib_a-stdio.o)
 .debug_frame   0x00000c4c       0x2c c:/nxp/mcuxpressoide_11.5.1_7266/ide/plugins/com.nxp.mcuxpresso.tools.win32_11.5.1.202201181444/tools/bin/../lib/gcc/arm-none-eabi/10.3.1/../../../../arm-none-eabi/lib/thumb/v8-m.main+fp/hard\libc_nano.a(lib_a-writer.o)
 .debug_frame   0x00000c78       0x2c c:/nxp/mcuxpressoide_11.5.1_7266/ide/plugins/com.nxp.mcuxpresso.tools.win32_11.5.1.202201181444/tools/bin/../lib/gcc/arm-none-eabi/10.3.1/../../../../arm-none-eabi/lib/thumb/v8-m.main+fp/hard\libc_nano.a(lib_a-closer.o)
 .debug_frame   0x00000ca4       0x2c c:/nxp/mcuxpressoide_11.5.1_7266/ide/plugins/com.nxp.mcuxpresso.tools.win32_11.5.1.202201181444/tools/bin/../lib/gcc/arm-none-eabi/10.3.1/../../../../arm-none-eabi/lib/thumb/v8-m.main+fp/hard\libc_nano.a(lib_a-fstatr.o)
 .debug_frame   0x00000cd0       0x2c c:/nxp/mcuxpressoide_11.5.1_7266/ide/plugins/com.nxp.mcuxpresso.tools.win32_11.5.1.202201181444/tools/bin/../lib/gcc/arm-none-eabi/10.3.1/../../../../arm-none-eabi/lib/thumb/v8-m.main+fp/hard\libc_nano.a(lib_a-isattyr.o)
 .debug_frame   0x00000cfc       0x2c c:/nxp/mcuxpressoide_11.5.1_7266/ide/plugins/com.nxp.mcuxpresso.tools.win32_11.5.1.202201181444/tools/bin/../lib/gcc/arm-none-eabi/10.3.1/../../../../arm-none-eabi/lib/thumb/v8-m.main+fp/hard\libc_nano.a(lib_a-lseekr.o)
 .debug_frame   0x00000d28       0x30 c:/nxp/mcuxpressoide_11.5.1_7266/ide/plugins/com.nxp.mcuxpresso.tools.win32_11.5.1.202201181444/tools/bin/../lib/gcc/arm-none-eabi/10.3.1/../../../../arm-none-eabi/lib/thumb/v8-m.main+fp/hard\libc_nano.a(lib_a-mlock.o)
 .debug_frame   0x00000d58       0x2c c:/nxp/mcuxpressoide_11.5.1_7266/ide/plugins/com.nxp.mcuxpresso.tools.win32_11.5.1.202201181444/tools/bin/../lib/gcc/arm-none-eabi/10.3.1/../../../../arm-none-eabi/lib/thumb/v8-m.main+fp/hard\libc_nano.a(lib_a-readr.o)
 .debug_frame   0x00000d84       0x5c c:/nxp/mcuxpressoide_11.5.1_7266/ide/plugins/com.nxp.mcuxpresso.tools.win32_11.5.1.202201181444/tools/bin/../lib/gcc/arm-none-eabi/10.3.1/../../../../arm-none-eabi/lib/thumb/v8-m.main+fp/hard\libc_nano.a(lib_a-reent.o)
 .debug_frame   0x00000de0       0x20 c:/nxp/mcuxpressoide_11.5.1_7266/ide/plugins/com.nxp.mcuxpresso.tools.win32_11.5.1.202201181444/tools/bin/../lib/gcc/arm-none-eabi/10.3.1/../../../../arm-none-eabi/lib/thumb/v8-m.main+fp/hard\libnosys.a(close.o)
 .debug_frame   0x00000e00       0x20 c:/nxp/mcuxpressoide_11.5.1_7266/ide/plugins/com.nxp.mcuxpresso.tools.win32_11.5.1.202201181444/tools/bin/../lib/gcc/arm-none-eabi/10.3.1/../../../../arm-none-eabi/lib/thumb/v8-m.main+fp/hard\libnosys.a(fstat.o)
 .debug_frame   0x00000e20       0x20 c:/nxp/mcuxpressoide_11.5.1_7266/ide/plugins/com.nxp.mcuxpresso.tools.win32_11.5.1.202201181444/tools/bin/../lib/gcc/arm-none-eabi/10.3.1/../../../../arm-none-eabi/lib/thumb/v8-m.main+fp/hard\libnosys.a(getpid.o)
 .debug_frame   0x00000e40       0x20 c:/nxp/mcuxpressoide_11.5.1_7266/ide/plugins/com.nxp.mcuxpresso.tools.win32_11.5.1.202201181444/tools/bin/../lib/gcc/arm-none-eabi/10.3.1/../../../../arm-none-eabi/lib/thumb/v8-m.main+fp/hard\libnosys.a(isatty.o)
 .debug_frame   0x00000e60       0x20 c:/nxp/mcuxpressoide_11.5.1_7266/ide/plugins/com.nxp.mcuxpresso.tools.win32_11.5.1.202201181444/tools/bin/../lib/gcc/arm-none-eabi/10.3.1/../../../../arm-none-eabi/lib/thumb/v8-m.main+fp/hard\libnosys.a(kill.o)
 .debug_frame   0x00000e80       0x20 c:/nxp/mcuxpressoide_11.5.1_7266/ide/plugins/com.nxp.mcuxpresso.tools.win32_11.5.1.202201181444/tools/bin/../lib/gcc/arm-none-eabi/10.3.1/../../../../arm-none-eabi/lib/thumb/v8-m.main+fp/hard\libnosys.a(lseek.o)
 .debug_frame   0x00000ea0       0x20 c:/nxp/mcuxpressoide_11.5.1_7266/ide/plugins/com.nxp.mcuxpresso.tools.win32_11.5.1.202201181444/tools/bin/../lib/gcc/arm-none-eabi/10.3.1/../../../../arm-none-eabi/lib/thumb/v8-m.main+fp/hard\libnosys.a(sbrk.o)
 .debug_frame   0x00000ec0       0x20 c:/nxp/mcuxpressoide_11.5.1_7266/ide/plugins/com.nxp.mcuxpresso.tools.win32_11.5.1.202201181444/tools/bin/../lib/gcc/arm-none-eabi/10.3.1/../../../../arm-none-eabi/lib/thumb/v8-m.main+fp/hard\libnosys.a(_exit.o)

.stab           0x00000000       0x9c
 .stab          0x00000000       0x24 c:/nxp/mcuxpressoide_11.5.1_7266/ide/plugins/com.nxp.mcuxpresso.tools.win32_11.5.1.202201181444/tools/bin/../lib/gcc/arm-none-eabi/10.3.1/../../../../arm-none-eabi/lib/thumb/v8-m.main+fp/hard\libnosys.a(close.o)
 .stab          0x00000024       0x18 c:/nxp/mcuxpressoide_11.5.1_7266/ide/plugins/com.nxp.mcuxpresso.tools.win32_11.5.1.202201181444/tools/bin/../lib/gcc/arm-none-eabi/10.3.1/../../../../arm-none-eabi/lib/thumb/v8-m.main+fp/hard\libnosys.a(fstat.o)
                                 0x24 (size before relaxing)
 .stab          0x0000003c       0x18 c:/nxp/mcuxpressoide_11.5.1_7266/ide/plugins/com.nxp.mcuxpresso.tools.win32_11.5.1.202201181444/tools/bin/../lib/gcc/arm-none-eabi/10.3.1/../../../../arm-none-eabi/lib/thumb/v8-m.main+fp/hard\libnosys.a(getpid.o)
                                 0x24 (size before relaxing)
 .stab          0x00000054       0x18 c:/nxp/mcuxpressoide_11.5.1_7266/ide/plugins/com.nxp.mcuxpresso.tools.win32_11.5.1.202201181444/tools/bin/../lib/gcc/arm-none-eabi/10.3.1/../../../../arm-none-eabi/lib/thumb/v8-m.main+fp/hard\libnosys.a(isatty.o)
                                 0x24 (size before relaxing)
 .stab          0x0000006c       0x18 c:/nxp/mcuxpressoide_11.5.1_7266/ide/plugins/com.nxp.mcuxpresso.tools.win32_11.5.1.202201181444/tools/bin/../lib/gcc/arm-none-eabi/10.3.1/../../../../arm-none-eabi/lib/thumb/v8-m.main+fp/hard\libnosys.a(kill.o)
                                 0x24 (size before relaxing)
 .stab          0x00000084       0x18 c:/nxp/mcuxpressoide_11.5.1_7266/ide/plugins/com.nxp.mcuxpresso.tools.win32_11.5.1.202201181444/tools/bin/../lib/gcc/arm-none-eabi/10.3.1/../../../../arm-none-eabi/lib/thumb/v8-m.main+fp/hard\libnosys.a(lseek.o)
                                 0x24 (size before relaxing)

.stabstr        0x00000000      0x14f
 .stabstr       0x00000000      0x14f c:/nxp/mcuxpressoide_11.5.1_7266/ide/plugins/com.nxp.mcuxpresso.tools.win32_11.5.1.202201181444/tools/bin/../lib/gcc/arm-none-eabi/10.3.1/../../../../arm-none-eabi/lib/thumb/v8-m.main+fp/hard\libnosys.a(close.o)

Cross Reference Table

Symbol                                            File
ACMP_DriverIRQHandler                             _build/lpcxpresso55s28/obj/hw/mcu/nxp/mcux-sdk/devices/LPC55S28/gcc/startup_LPC55S28_asm.o
ACMP_IRQHandler                                   _build/lpcxpresso55s28/obj/hw/mcu/nxp/mcux-sdk/devices/LPC55S28/gcc/startup_LPC55S28_asm.o
ADC0_DriverIRQHandler                             _build/lpcxpresso55s28/obj/hw/mcu/nxp/mcux-sdk/devices/LPC55S28/gcc/startup_LPC55S28_asm.o
ADC0_IRQHandler                                   _build/lpcxpresso55s28/obj/hw/mcu/nxp/mcux-sdk/devices/LPC55S28/gcc/startup_LPC55S28_asm.o
BootClockFROHF96M                                 _build/lpcxpresso55s28/obj/hw/bsp/lpc55/family.o (symbol from plugin)
BusFault_Handler                                  _build/lpcxpresso55s28/obj/hw/mcu/nxp/mcux-sdk/devices/LPC55S28/gcc/startup_LPC55S28_asm.o
CASER_DriverIRQHandler                            _build/lpcxpresso55s28/obj/hw/mcu/nxp/mcux-sdk/devices/LPC55S28/gcc/startup_LPC55S28_asm.o
CASER_IRQHandler                                  _build/lpcxpresso55s28/obj/hw/mcu/nxp/mcux-sdk/devices/LPC55S28/gcc/startup_LPC55S28_asm.o
CLOCK_AttachClk                                   _build/lpcxpresso55s28/obj/hw/mcu/nxp/mcux-sdk/devices/LPC55S28/drivers/fsl_clock.o (symbol from plugin)
                                                  _build/lpcxpresso55s28/obj/hw/bsp/lpc55/family.o (symbol from plugin)
                                                  _build/lpcxpresso55s28/obj/hw/mcu/nxp/mcux-sdk/devices/LPC55S28/drivers/fsl_power.o (symbol from plugin)
CLOCK_EnableOstimer32kClock                       _build/lpcxpresso55s28/obj/hw/mcu/nxp/mcux-sdk/devices/LPC55S28/drivers/fsl_clock.o (symbol from plugin)
CLOCK_EnableUsbfs0DeviceClock                     _build/lpcxpresso55s28/obj/hw/mcu/nxp/mcux-sdk/devices/LPC55S28/drivers/fsl_clock.o (symbol from plugin)
CLOCK_EnableUsbfs0HostClock                       _build/lpcxpresso55s28/obj/hw/mcu/nxp/mcux-sdk/devices/LPC55S28/drivers/fsl_clock.o (symbol from plugin)
CLOCK_EnableUsbhs0DeviceClock                     _build/lpcxpresso55s28/obj/hw/mcu/nxp/mcux-sdk/devices/LPC55S28/drivers/fsl_clock.o (symbol from plugin)
                                                  _build/lpcxpresso55s28/obj/hw/bsp/lpc55/family.o (symbol from plugin)
CLOCK_EnableUsbhs0HostClock                       _build/lpcxpresso55s28/obj/hw/mcu/nxp/mcux-sdk/devices/LPC55S28/drivers/fsl_clock.o (symbol from plugin)
CLOCK_EnableUsbhs0PhyPllClock                     _build/lpcxpresso55s28/obj/hw/mcu/nxp/mcux-sdk/devices/LPC55S28/drivers/fsl_clock.o (symbol from plugin)
                                                  _build/lpcxpresso55s28/obj/hw/bsp/lpc55/family.o (symbol from plugin)
CLOCK_GetAdcClkFreq                               _build/lpcxpresso55s28/obj/hw/mcu/nxp/mcux-sdk/devices/LPC55S28/drivers/fsl_clock.o (symbol from plugin)
CLOCK_GetCTimerClkFreq                            _build/lpcxpresso55s28/obj/hw/mcu/nxp/mcux-sdk/devices/LPC55S28/drivers/fsl_clock.o (symbol from plugin)
CLOCK_GetClockAttachId                            _build/lpcxpresso55s28/obj/hw/mcu/nxp/mcux-sdk/devices/LPC55S28/drivers/fsl_clock.o (symbol from plugin)
CLOCK_GetClockOutClkFreq                          _build/lpcxpresso55s28/obj/hw/mcu/nxp/mcux-sdk/devices/LPC55S28/drivers/fsl_clock.o (symbol from plugin)
CLOCK_GetCoreSysClkFreq                           _build/lpcxpresso55s28/obj/hw/mcu/nxp/mcux-sdk/devices/LPC55S28/drivers/fsl_clock.o (symbol from plugin)
CLOCK_GetExtClkFreq                               _build/lpcxpresso55s28/obj/hw/mcu/nxp/mcux-sdk/devices/LPC55S28/drivers/fsl_clock.o (symbol from plugin)
CLOCK_GetFlexCommClkFreq                          _build/lpcxpresso55s28/obj/hw/mcu/nxp/mcux-sdk/devices/LPC55S28/drivers/fsl_clock.o (symbol from plugin)
CLOCK_GetFlexCommInputClock                       _build/lpcxpresso55s28/obj/hw/mcu/nxp/mcux-sdk/devices/LPC55S28/drivers/fsl_clock.o (symbol from plugin)
CLOCK_GetFreq                                     _build/lpcxpresso55s28/obj/hw/mcu/nxp/mcux-sdk/devices/LPC55S28/drivers/fsl_clock.o (symbol from plugin)
CLOCK_GetFro12MFreq                               _build/lpcxpresso55s28/obj/hw/mcu/nxp/mcux-sdk/devices/LPC55S28/drivers/fsl_clock.o (symbol from plugin)
CLOCK_GetFro1MFreq                                _build/lpcxpresso55s28/obj/hw/mcu/nxp/mcux-sdk/devices/LPC55S28/drivers/fsl_clock.o (symbol from plugin)
CLOCK_GetFroHfFreq                                _build/lpcxpresso55s28/obj/hw/mcu/nxp/mcux-sdk/devices/LPC55S28/drivers/fsl_clock.o (symbol from plugin)
CLOCK_GetHsLspiClkFreq                            _build/lpcxpresso55s28/obj/hw/mcu/nxp/mcux-sdk/devices/LPC55S28/drivers/fsl_clock.o (symbol from plugin)
CLOCK_GetI2SMClkFreq                              _build/lpcxpresso55s28/obj/hw/mcu/nxp/mcux-sdk/devices/LPC55S28/drivers/fsl_clock.o (symbol from plugin)
CLOCK_GetMclkClkFreq                              _build/lpcxpresso55s28/obj/hw/mcu/nxp/mcux-sdk/devices/LPC55S28/drivers/fsl_clock.o (symbol from plugin)
CLOCK_GetOsc32KFreq                               _build/lpcxpresso55s28/obj/hw/mcu/nxp/mcux-sdk/devices/LPC55S28/drivers/fsl_clock.o (symbol from plugin)
CLOCK_GetPLL0InClockRate                          _build/lpcxpresso55s28/obj/hw/mcu/nxp/mcux-sdk/devices/LPC55S28/drivers/fsl_clock.o (symbol from plugin)
CLOCK_GetPLL0OutClockRate                         _build/lpcxpresso55s28/obj/hw/mcu/nxp/mcux-sdk/devices/LPC55S28/drivers/fsl_clock.o (symbol from plugin)
CLOCK_GetPLL0OutFromSetup                         _build/lpcxpresso55s28/obj/hw/mcu/nxp/mcux-sdk/devices/LPC55S28/drivers/fsl_clock.o (symbol from plugin)
CLOCK_GetPLL1InClockRate                          _build/lpcxpresso55s28/obj/hw/mcu/nxp/mcux-sdk/devices/LPC55S28/drivers/fsl_clock.o (symbol from plugin)
CLOCK_GetPLUClkInFreq                             _build/lpcxpresso55s28/obj/hw/mcu/nxp/mcux-sdk/devices/LPC55S28/drivers/fsl_clock.o (symbol from plugin)
CLOCK_GetPll0OutFreq                              _build/lpcxpresso55s28/obj/hw/mcu/nxp/mcux-sdk/devices/LPC55S28/drivers/fsl_clock.o (symbol from plugin)
CLOCK_GetPll1OutFreq                              _build/lpcxpresso55s28/obj/hw/mcu/nxp/mcux-sdk/devices/LPC55S28/drivers/fsl_clock.o (symbol from plugin)
CLOCK_GetSctClkFreq                               _build/lpcxpresso55s28/obj/hw/mcu/nxp/mcux-sdk/devices/LPC55S28/drivers/fsl_clock.o (symbol from plugin)
CLOCK_GetSdioClkFreq                              _build/lpcxpresso55s28/obj/hw/mcu/nxp/mcux-sdk/devices/LPC55S28/drivers/fsl_clock.o (symbol from plugin)
CLOCK_GetSystickClkFreq                           _build/lpcxpresso55s28/obj/hw/mcu/nxp/mcux-sdk/devices/LPC55S28/drivers/fsl_clock.o (symbol from plugin)
CLOCK_GetUsb0ClkFreq                              _build/lpcxpresso55s28/obj/hw/mcu/nxp/mcux-sdk/devices/LPC55S28/drivers/fsl_clock.o (symbol from plugin)
CLOCK_GetUsb1ClkFreq                              _build/lpcxpresso55s28/obj/hw/mcu/nxp/mcux-sdk/devices/LPC55S28/drivers/fsl_clock.o (symbol from plugin)
CLOCK_GetWdtClkFreq                               _build/lpcxpresso55s28/obj/hw/mcu/nxp/mcux-sdk/devices/LPC55S28/drivers/fsl_clock.o (symbol from plugin)
CLOCK_SetClkDiv                                   _build/lpcxpresso55s28/obj/hw/mcu/nxp/mcux-sdk/devices/LPC55S28/drivers/fsl_clock.o (symbol from plugin)
                                                  _build/lpcxpresso55s28/obj/hw/bsp/lpc55/family.o (symbol from plugin)
                                                  _build/lpcxpresso55s28/obj/hw/mcu/nxp/mcux-sdk/devices/LPC55S28/drivers/fsl_power.o (symbol from plugin)
CLOCK_SetFLASHAccessCyclesForFreq                 _build/lpcxpresso55s28/obj/hw/mcu/nxp/mcux-sdk/devices/LPC55S28/drivers/fsl_clock.o (symbol from plugin)
                                                  _build/lpcxpresso55s28/obj/hw/bsp/lpc55/family.o (symbol from plugin)
CLOCK_SetFlexCommClock                            _build/lpcxpresso55s28/obj/hw/mcu/nxp/mcux-sdk/devices/LPC55S28/drivers/fsl_clock.o (symbol from plugin)
CLOCK_SetPLL0Freq                                 _build/lpcxpresso55s28/obj/hw/mcu/nxp/mcux-sdk/devices/LPC55S28/drivers/fsl_clock.o (symbol from plugin)
CLOCK_SetPLL1Freq                                 _build/lpcxpresso55s28/obj/hw/mcu/nxp/mcux-sdk/devices/LPC55S28/drivers/fsl_clock.o (symbol from plugin)
CLOCK_SetRtc1hzClkDiv                             _build/lpcxpresso55s28/obj/hw/mcu/nxp/mcux-sdk/devices/LPC55S28/drivers/fsl_clock.o (symbol from plugin)
CLOCK_SetRtc1khzClkDiv                            _build/lpcxpresso55s28/obj/hw/mcu/nxp/mcux-sdk/devices/LPC55S28/drivers/fsl_clock.o (symbol from plugin)
CLOCK_SetStoredPLL0ClockRate                      _build/lpcxpresso55s28/obj/hw/mcu/nxp/mcux-sdk/devices/LPC55S28/drivers/fsl_clock.o (symbol from plugin)
CLOCK_SetupExtClocking                            _build/lpcxpresso55s28/obj/hw/mcu/nxp/mcux-sdk/devices/LPC55S28/drivers/fsl_clock.o (symbol from plugin)
CLOCK_SetupFROClocking                            _build/lpcxpresso55s28/obj/hw/mcu/nxp/mcux-sdk/devices/LPC55S28/drivers/fsl_clock.o (symbol from plugin)
                                                  _build/lpcxpresso55s28/obj/hw/bsp/lpc55/family.o (symbol from plugin)
CLOCK_SetupI2SMClkClocking                        _build/lpcxpresso55s28/obj/hw/mcu/nxp/mcux-sdk/devices/LPC55S28/drivers/fsl_clock.o (symbol from plugin)
CLOCK_SetupPLL0Data                               _build/lpcxpresso55s28/obj/hw/mcu/nxp/mcux-sdk/devices/LPC55S28/drivers/fsl_clock.o (symbol from plugin)
CLOCK_SetupPLL0Mult                               _build/lpcxpresso55s28/obj/hw/mcu/nxp/mcux-sdk/devices/LPC55S28/drivers/fsl_clock.o (symbol from plugin)
CLOCK_SetupPLL0Prec                               _build/lpcxpresso55s28/obj/hw/mcu/nxp/mcux-sdk/devices/LPC55S28/drivers/fsl_clock.o (symbol from plugin)
CLOCK_SetupPLUClkInClocking                       _build/lpcxpresso55s28/obj/hw/mcu/nxp/mcux-sdk/devices/LPC55S28/drivers/fsl_clock.o (symbol from plugin)
CTIMER0_DriverIRQHandler                          _build/lpcxpresso55s28/obj/hw/mcu/nxp/mcux-sdk/devices/LPC55S28/gcc/startup_LPC55S28_asm.o
CTIMER0_IRQHandler                                _build/lpcxpresso55s28/obj/hw/mcu/nxp/mcux-sdk/devices/LPC55S28/gcc/startup_LPC55S28_asm.o
CTIMER1_DriverIRQHandler                          _build/lpcxpresso55s28/obj/hw/mcu/nxp/mcux-sdk/devices/LPC55S28/gcc/startup_LPC55S28_asm.o
CTIMER1_IRQHandler                                _build/lpcxpresso55s28/obj/hw/mcu/nxp/mcux-sdk/devices/LPC55S28/gcc/startup_LPC55S28_asm.o
CTIMER2_DriverIRQHandler                          _build/lpcxpresso55s28/obj/hw/mcu/nxp/mcux-sdk/devices/LPC55S28/gcc/startup_LPC55S28_asm.o
CTIMER2_IRQHandler                                _build/lpcxpresso55s28/obj/hw/mcu/nxp/mcux-sdk/devices/LPC55S28/gcc/startup_LPC55S28_asm.o
CTIMER3_DriverIRQHandler                          _build/lpcxpresso55s28/obj/hw/mcu/nxp/mcux-sdk/devices/LPC55S28/gcc/startup_LPC55S28_asm.o
CTIMER3_IRQHandler                                _build/lpcxpresso55s28/obj/hw/mcu/nxp/mcux-sdk/devices/LPC55S28/gcc/startup_LPC55S28_asm.o
CTIMER4_DriverIRQHandler                          _build/lpcxpresso55s28/obj/hw/mcu/nxp/mcux-sdk/devices/LPC55S28/gcc/startup_LPC55S28_asm.o
CTIMER4_IRQHandler                                _build/lpcxpresso55s28/obj/hw/mcu/nxp/mcux-sdk/devices/LPC55S28/gcc/startup_LPC55S28_asm.o
DMA0_DriverIRQHandler                             _build/lpcxpresso55s28/obj/hw/mcu/nxp/mcux-sdk/devices/LPC55S28/gcc/startup_LPC55S28_asm.o
DMA0_IRQHandler                                   _build/lpcxpresso55s28/obj/hw/mcu/nxp/mcux-sdk/devices/LPC55S28/gcc/startup_LPC55S28_asm.o
DMA1_DriverIRQHandler                             _build/lpcxpresso55s28/obj/hw/mcu/nxp/mcux-sdk/devices/LPC55S28/gcc/startup_LPC55S28_asm.o
DMA1_IRQHandler                                   _build/lpcxpresso55s28/obj/hw/mcu/nxp/mcux-sdk/devices/LPC55S28/gcc/startup_LPC55S28_asm.o
DebugMon_Handler                                  _build/lpcxpresso55s28/obj/hw/mcu/nxp/mcux-sdk/devices/LPC55S28/gcc/startup_LPC55S28_asm.o
DefaultISR                                        _build/lpcxpresso55s28/obj/hw/mcu/nxp/mcux-sdk/devices/LPC55S28/gcc/startup_LPC55S28_asm.o
FLEXCOMM0_DriverIRQHandler                        C:\Users\Usuario\AppData\Local\Temp\LPC55SXX.elf.QlIYWa.ltrans0.ltrans.o
                                                  _build/lpcxpresso55s28/obj/hw/mcu/nxp/mcux-sdk/drivers/flexcomm/fsl_flexcomm.o (symbol from plugin)
                                                  _build/lpcxpresso55s28/obj/hw/mcu/nxp/mcux-sdk/devices/LPC55S28/gcc/startup_LPC55S28_asm.o
FLEXCOMM0_IRQHandler                              _build/lpcxpresso55s28/obj/hw/mcu/nxp/mcux-sdk/devices/LPC55S28/gcc/startup_LPC55S28_asm.o
FLEXCOMM1_DriverIRQHandler                        C:\Users\Usuario\AppData\Local\Temp\LPC55SXX.elf.QlIYWa.ltrans0.ltrans.o
                                                  _build/lpcxpresso55s28/obj/hw/mcu/nxp/mcux-sdk/drivers/flexcomm/fsl_flexcomm.o (symbol from plugin)
                                                  _build/lpcxpresso55s28/obj/hw/mcu/nxp/mcux-sdk/devices/LPC55S28/gcc/startup_LPC55S28_asm.o
FLEXCOMM1_IRQHandler                              _build/lpcxpresso55s28/obj/hw/mcu/nxp/mcux-sdk/devices/LPC55S28/gcc/startup_LPC55S28_asm.o
FLEXCOMM2_DriverIRQHandler                        C:\Users\Usuario\AppData\Local\Temp\LPC55SXX.elf.QlIYWa.ltrans0.ltrans.o
                                                  _build/lpcxpresso55s28/obj/hw/mcu/nxp/mcux-sdk/drivers/flexcomm/fsl_flexcomm.o (symbol from plugin)
                                                  _build/lpcxpresso55s28/obj/hw/mcu/nxp/mcux-sdk/devices/LPC55S28/gcc/startup_LPC55S28_asm.o
FLEXCOMM2_IRQHandler                              _build/lpcxpresso55s28/obj/hw/mcu/nxp/mcux-sdk/devices/LPC55S28/gcc/startup_LPC55S28_asm.o
FLEXCOMM3_DriverIRQHandler                        C:\Users\Usuario\AppData\Local\Temp\LPC55SXX.elf.QlIYWa.ltrans0.ltrans.o
                                                  _build/lpcxpresso55s28/obj/hw/mcu/nxp/mcux-sdk/drivers/flexcomm/fsl_flexcomm.o (symbol from plugin)
                                                  _build/lpcxpresso55s28/obj/hw/mcu/nxp/mcux-sdk/devices/LPC55S28/gcc/startup_LPC55S28_asm.o
FLEXCOMM3_IRQHandler                              _build/lpcxpresso55s28/obj/hw/mcu/nxp/mcux-sdk/devices/LPC55S28/gcc/startup_LPC55S28_asm.o
FLEXCOMM4_DriverIRQHandler                        C:\Users\Usuario\AppData\Local\Temp\LPC55SXX.elf.QlIYWa.ltrans0.ltrans.o
                                                  _build/lpcxpresso55s28/obj/hw/mcu/nxp/mcux-sdk/drivers/flexcomm/fsl_flexcomm.o (symbol from plugin)
                                                  _build/lpcxpresso55s28/obj/hw/mcu/nxp/mcux-sdk/devices/LPC55S28/gcc/startup_LPC55S28_asm.o
FLEXCOMM4_IRQHandler                              _build/lpcxpresso55s28/obj/hw/mcu/nxp/mcux-sdk/devices/LPC55S28/gcc/startup_LPC55S28_asm.o
FLEXCOMM5_DriverIRQHandler                        C:\Users\Usuario\AppData\Local\Temp\LPC55SXX.elf.QlIYWa.ltrans0.ltrans.o
                                                  _build/lpcxpresso55s28/obj/hw/mcu/nxp/mcux-sdk/drivers/flexcomm/fsl_flexcomm.o (symbol from plugin)
                                                  _build/lpcxpresso55s28/obj/hw/mcu/nxp/mcux-sdk/devices/LPC55S28/gcc/startup_LPC55S28_asm.o
FLEXCOMM5_IRQHandler                              _build/lpcxpresso55s28/obj/hw/mcu/nxp/mcux-sdk/devices/LPC55S28/gcc/startup_LPC55S28_asm.o
FLEXCOMM6_DriverIRQHandler                        C:\Users\Usuario\AppData\Local\Temp\LPC55SXX.elf.QlIYWa.ltrans0.ltrans.o
                                                  _build/lpcxpresso55s28/obj/hw/mcu/nxp/mcux-sdk/drivers/flexcomm/fsl_flexcomm.o (symbol from plugin)
                                                  _build/lpcxpresso55s28/obj/hw/mcu/nxp/mcux-sdk/devices/LPC55S28/gcc/startup_LPC55S28_asm.o
FLEXCOMM6_IRQHandler                              _build/lpcxpresso55s28/obj/hw/mcu/nxp/mcux-sdk/devices/LPC55S28/gcc/startup_LPC55S28_asm.o
FLEXCOMM7_DriverIRQHandler                        C:\Users\Usuario\AppData\Local\Temp\LPC55SXX.elf.QlIYWa.ltrans0.ltrans.o
                                                  _build/lpcxpresso55s28/obj/hw/mcu/nxp/mcux-sdk/drivers/flexcomm/fsl_flexcomm.o (symbol from plugin)
                                                  _build/lpcxpresso55s28/obj/hw/mcu/nxp/mcux-sdk/devices/LPC55S28/gcc/startup_LPC55S28_asm.o
FLEXCOMM7_IRQHandler                              _build/lpcxpresso55s28/obj/hw/mcu/nxp/mcux-sdk/devices/LPC55S28/gcc/startup_LPC55S28_asm.o
FLEXCOMM8_DriverIRQHandler                        C:\Users\Usuario\AppData\Local\Temp\LPC55SXX.elf.QlIYWa.ltrans0.ltrans.o
                                                  _build/lpcxpresso55s28/obj/hw/mcu/nxp/mcux-sdk/drivers/flexcomm/fsl_flexcomm.o (symbol from plugin)
                                                  _build/lpcxpresso55s28/obj/hw/mcu/nxp/mcux-sdk/devices/LPC55S28/gcc/startup_LPC55S28_asm.o
FLEXCOMM8_IRQHandler                              _build/lpcxpresso55s28/obj/hw/mcu/nxp/mcux-sdk/devices/LPC55S28/gcc/startup_LPC55S28_asm.o
FLEXCOMM_GetInstance                              _build/lpcxpresso55s28/obj/hw/mcu/nxp/mcux-sdk/drivers/flexcomm/fsl_flexcomm.o (symbol from plugin)
FLEXCOMM_Init                                     _build/lpcxpresso55s28/obj/hw/mcu/nxp/mcux-sdk/drivers/flexcomm/fsl_flexcomm.o (symbol from plugin)
                                                  _build/lpcxpresso55s28/obj/hw/mcu/nxp/mcux-sdk/drivers/flexcomm/fsl_usart.o (symbol from plugin)
FLEXCOMM_SetIRQHandler                            _build/lpcxpresso55s28/obj/hw/mcu/nxp/mcux-sdk/drivers/flexcomm/fsl_flexcomm.o (symbol from plugin)
                                                  _build/lpcxpresso55s28/obj/hw/mcu/nxp/mcux-sdk/drivers/flexcomm/fsl_usart.o (symbol from plugin)
GINT0_DriverIRQHandler                            _build/lpcxpresso55s28/obj/hw/mcu/nxp/mcux-sdk/devices/LPC55S28/gcc/startup_LPC55S28_asm.o
GINT0_IRQHandler                                  _build/lpcxpresso55s28/obj/hw/mcu/nxp/mcux-sdk/devices/LPC55S28/gcc/startup_LPC55S28_asm.o
GINT1_DriverIRQHandler                            _build/lpcxpresso55s28/obj/hw/mcu/nxp/mcux-sdk/devices/LPC55S28/gcc/startup_LPC55S28_asm.o
GINT1_IRQHandler                                  _build/lpcxpresso55s28/obj/hw/mcu/nxp/mcux-sdk/devices/LPC55S28/gcc/startup_LPC55S28_asm.o
GPIO_PinInit                                      _build/lpcxpresso55s28/obj/hw/mcu/nxp/mcux-sdk/drivers/lpc_gpio/fsl_gpio.o (symbol from plugin)
                                                  _build/lpcxpresso55s28/obj/hw/bsp/lpc55/family.o (symbol from plugin)
GPIO_PortInit                                     _build/lpcxpresso55s28/obj/hw/mcu/nxp/mcux-sdk/drivers/lpc_gpio/fsl_gpio.o (symbol from plugin)
                                                  _build/lpcxpresso55s28/obj/hw/bsp/lpc55/family.o (symbol from plugin)
HASHCRYPT_DriverIRQHandler                        _build/lpcxpresso55s28/obj/hw/mcu/nxp/mcux-sdk/devices/LPC55S28/gcc/startup_LPC55S28_asm.o
HASHCRYPT_IRQHandler                              _build/lpcxpresso55s28/obj/hw/mcu/nxp/mcux-sdk/devices/LPC55S28/gcc/startup_LPC55S28_asm.o
HardFault_Handler                                 _build/lpcxpresso55s28/obj/hw/mcu/nxp/mcux-sdk/devices/LPC55S28/gcc/startup_LPC55S28_asm.o
MRT0_DriverIRQHandler                             _build/lpcxpresso55s28/obj/hw/mcu/nxp/mcux-sdk/devices/LPC55S28/gcc/startup_LPC55S28_asm.o
MRT0_IRQHandler                                   _build/lpcxpresso55s28/obj/hw/mcu/nxp/mcux-sdk/devices/LPC55S28/gcc/startup_LPC55S28_asm.o
MemManage_Handler                                 _build/lpcxpresso55s28/obj/hw/mcu/nxp/mcux-sdk/devices/LPC55S28/gcc/startup_LPC55S28_asm.o
NMI_Handler                                       _build/lpcxpresso55s28/obj/hw/mcu/nxp/mcux-sdk/devices/LPC55S28/gcc/startup_LPC55S28_asm.o
OS_EVENT_DriverIRQHandler                         _build/lpcxpresso55s28/obj/hw/mcu/nxp/mcux-sdk/devices/LPC55S28/gcc/startup_LPC55S28_asm.o
OS_EVENT_IRQHandler                               _build/lpcxpresso55s28/obj/hw/mcu/nxp/mcux-sdk/devices/LPC55S28/gcc/startup_LPC55S28_asm.o
PIN_INT0_DriverIRQHandler                         _build/lpcxpresso55s28/obj/hw/mcu/nxp/mcux-sdk/devices/LPC55S28/gcc/startup_LPC55S28_asm.o
PIN_INT0_IRQHandler                               _build/lpcxpresso55s28/obj/hw/mcu/nxp/mcux-sdk/devices/LPC55S28/gcc/startup_LPC55S28_asm.o
PIN_INT1_DriverIRQHandler                         _build/lpcxpresso55s28/obj/hw/mcu/nxp/mcux-sdk/devices/LPC55S28/gcc/startup_LPC55S28_asm.o
PIN_INT1_IRQHandler                               _build/lpcxpresso55s28/obj/hw/mcu/nxp/mcux-sdk/devices/LPC55S28/gcc/startup_LPC55S28_asm.o
PIN_INT2_DriverIRQHandler                         _build/lpcxpresso55s28/obj/hw/mcu/nxp/mcux-sdk/devices/LPC55S28/gcc/startup_LPC55S28_asm.o
PIN_INT2_IRQHandler                               _build/lpcxpresso55s28/obj/hw/mcu/nxp/mcux-sdk/devices/LPC55S28/gcc/startup_LPC55S28_asm.o
PIN_INT3_DriverIRQHandler                         _build/lpcxpresso55s28/obj/hw/mcu/nxp/mcux-sdk/devices/LPC55S28/gcc/startup_LPC55S28_asm.o
PIN_INT3_IRQHandler                               _build/lpcxpresso55s28/obj/hw/mcu/nxp/mcux-sdk/devices/LPC55S28/gcc/startup_LPC55S28_asm.o
PIN_INT4_DriverIRQHandler                         _build/lpcxpresso55s28/obj/hw/mcu/nxp/mcux-sdk/devices/LPC55S28/gcc/startup_LPC55S28_asm.o
PIN_INT4_IRQHandler                               _build/lpcxpresso55s28/obj/hw/mcu/nxp/mcux-sdk/devices/LPC55S28/gcc/startup_LPC55S28_asm.o
PIN_INT5_DriverIRQHandler                         _build/lpcxpresso55s28/obj/hw/mcu/nxp/mcux-sdk/devices/LPC55S28/gcc/startup_LPC55S28_asm.o
PIN_INT5_IRQHandler                               _build/lpcxpresso55s28/obj/hw/mcu/nxp/mcux-sdk/devices/LPC55S28/gcc/startup_LPC55S28_asm.o
PIN_INT6_DriverIRQHandler                         _build/lpcxpresso55s28/obj/hw/mcu/nxp/mcux-sdk/devices/LPC55S28/gcc/startup_LPC55S28_asm.o
PIN_INT6_IRQHandler                               _build/lpcxpresso55s28/obj/hw/mcu/nxp/mcux-sdk/devices/LPC55S28/gcc/startup_LPC55S28_asm.o
PIN_INT7_DriverIRQHandler                         _build/lpcxpresso55s28/obj/hw/mcu/nxp/mcux-sdk/devices/LPC55S28/gcc/startup_LPC55S28_asm.o
PIN_INT7_IRQHandler                               _build/lpcxpresso55s28/obj/hw/mcu/nxp/mcux-sdk/devices/LPC55S28/gcc/startup_LPC55S28_asm.o
PLU_DriverIRQHandler                              _build/lpcxpresso55s28/obj/hw/mcu/nxp/mcux-sdk/devices/LPC55S28/gcc/startup_LPC55S28_asm.o
PLU_IRQHandler                                    _build/lpcxpresso55s28/obj/hw/mcu/nxp/mcux-sdk/devices/LPC55S28/gcc/startup_LPC55S28_asm.o
POWER_CycleCpuAndFlash                            _build/lpcxpresso55s28/obj/hw/mcu/nxp/mcux-sdk/devices/LPC55S28/drivers/fsl_power.o (symbol from plugin)
POWER_EnterDeepPowerDown                          _build/lpcxpresso55s28/obj/hw/mcu/nxp/mcux-sdk/devices/LPC55S28/drivers/fsl_power.o (symbol from plugin)
POWER_EnterDeepSleep                              _build/lpcxpresso55s28/obj/hw/mcu/nxp/mcux-sdk/devices/LPC55S28/drivers/fsl_power.o (symbol from plugin)
POWER_EnterPowerDown                              _build/lpcxpresso55s28/obj/hw/mcu/nxp/mcux-sdk/devices/LPC55S28/drivers/fsl_power.o (symbol from plugin)
POWER_EnterSleep                                  _build/lpcxpresso55s28/obj/hw/mcu/nxp/mcux-sdk/devices/LPC55S28/drivers/fsl_power.o (symbol from plugin)
POWER_GetWakeUpCause                              _build/lpcxpresso55s28/obj/hw/mcu/nxp/mcux-sdk/devices/LPC55S28/drivers/fsl_power.o (symbol from plugin)
POWER_SetVoltageForFreq                           _build/lpcxpresso55s28/obj/hw/mcu/nxp/mcux-sdk/devices/LPC55S28/drivers/fsl_power.o (symbol from plugin)
                                                  _build/lpcxpresso55s28/obj/hw/bsp/lpc55/family.o (symbol from plugin)
                                                  _build/lpcxpresso55s28/obj/hw/mcu/nxp/mcux-sdk/devices/LPC55S28/drivers/fsl_clock.o (symbol from plugin)
POWER_SetXtal16mhzLdo                             _build/lpcxpresso55s28/obj/hw/mcu/nxp/mcux-sdk/devices/LPC55S28/drivers/fsl_power.o (symbol from plugin)
POWER_Xtal16mhzCapabankTrim                       _build/lpcxpresso55s28/obj/hw/mcu/nxp/mcux-sdk/devices/LPC55S28/drivers/fsl_power.o (symbol from plugin)
POWER_Xtal32khzCapabankTrim                       _build/lpcxpresso55s28/obj/hw/mcu/nxp/mcux-sdk/devices/LPC55S28/drivers/fsl_power.o (symbol from plugin)
PQ_DriverIRQHandler                               _build/lpcxpresso55s28/obj/hw/mcu/nxp/mcux-sdk/devices/LPC55S28/gcc/startup_LPC55S28_asm.o
PQ_IRQHandler                                     _build/lpcxpresso55s28/obj/hw/mcu/nxp/mcux-sdk/devices/LPC55S28/gcc/startup_LPC55S28_asm.o
PUF_DriverIRQHandler                              _build/lpcxpresso55s28/obj/hw/mcu/nxp/mcux-sdk/devices/LPC55S28/gcc/startup_LPC55S28_asm.o
PUF_IRQHandler                                    _build/lpcxpresso55s28/obj/hw/mcu/nxp/mcux-sdk/devices/LPC55S28/gcc/startup_LPC55S28_asm.o
PendSV_Handler                                    _build/lpcxpresso55s28/obj/hw/mcu/nxp/mcux-sdk/devices/LPC55S28/gcc/startup_LPC55S28_asm.o
RESET_ClearPeripheralReset                        _build/lpcxpresso55s28/obj/hw/mcu/nxp/mcux-sdk/devices/LPC55S28/drivers/fsl_reset.o (symbol from plugin)
RESET_PeripheralReset                             _build/lpcxpresso55s28/obj/hw/mcu/nxp/mcux-sdk/devices/LPC55S28/drivers/fsl_reset.o (symbol from plugin)
                                                  _build/lpcxpresso55s28/obj/hw/bsp/lpc55/family.o (symbol from plugin)
                                                  _build/lpcxpresso55s28/obj/lib/sct_neopixel/sct_neopixel.o (symbol from plugin)
                                                  _build/lpcxpresso55s28/obj/hw/mcu/nxp/mcux-sdk/drivers/flexcomm/fsl_flexcomm.o (symbol from plugin)
                                                  _build/lpcxpresso55s28/obj/hw/mcu/nxp/mcux-sdk/drivers/lpc_gpio/fsl_gpio.o (symbol from plugin)
RESET_SetPeripheralReset                          _build/lpcxpresso55s28/obj/hw/mcu/nxp/mcux-sdk/devices/LPC55S28/drivers/fsl_reset.o (symbol from plugin)
RTC_DriverIRQHandler                              _build/lpcxpresso55s28/obj/hw/mcu/nxp/mcux-sdk/devices/LPC55S28/gcc/startup_LPC55S28_asm.o
RTC_IRQHandler                                    _build/lpcxpresso55s28/obj/hw/mcu/nxp/mcux-sdk/devices/LPC55S28/gcc/startup_LPC55S28_asm.o
Reserved39_DriverIRQHandler                       _build/lpcxpresso55s28/obj/hw/mcu/nxp/mcux-sdk/devices/LPC55S28/gcc/startup_LPC55S28_asm.o
Reserved39_IRQHandler                             _build/lpcxpresso55s28/obj/hw/mcu/nxp/mcux-sdk/devices/LPC55S28/gcc/startup_LPC55S28_asm.o
Reserved41_DriverIRQHandler                       _build/lpcxpresso55s28/obj/hw/mcu/nxp/mcux-sdk/devices/LPC55S28/gcc/startup_LPC55S28_asm.o
Reserved41_IRQHandler                             _build/lpcxpresso55s28/obj/hw/mcu/nxp/mcux-sdk/devices/LPC55S28/gcc/startup_LPC55S28_asm.o
Reserved42_DriverIRQHandler                       _build/lpcxpresso55s28/obj/hw/mcu/nxp/mcux-sdk/devices/LPC55S28/gcc/startup_LPC55S28_asm.o
Reserved42_IRQHandler                             _build/lpcxpresso55s28/obj/hw/mcu/nxp/mcux-sdk/devices/LPC55S28/gcc/startup_LPC55S28_asm.o
Reserved46_DriverIRQHandler                       _build/lpcxpresso55s28/obj/hw/mcu/nxp/mcux-sdk/devices/LPC55S28/gcc/startup_LPC55S28_asm.o
Reserved46_IRQHandler                             _build/lpcxpresso55s28/obj/hw/mcu/nxp/mcux-sdk/devices/LPC55S28/gcc/startup_LPC55S28_asm.o
Reserved47_DriverIRQHandler                       _build/lpcxpresso55s28/obj/hw/mcu/nxp/mcux-sdk/devices/LPC55S28/gcc/startup_LPC55S28_asm.o
Reserved47_IRQHandler                             _build/lpcxpresso55s28/obj/hw/mcu/nxp/mcux-sdk/devices/LPC55S28/gcc/startup_LPC55S28_asm.o
Reserved55_DriverIRQHandler                       _build/lpcxpresso55s28/obj/hw/mcu/nxp/mcux-sdk/devices/LPC55S28/gcc/startup_LPC55S28_asm.o
Reserved55_IRQHandler                             _build/lpcxpresso55s28/obj/hw/mcu/nxp/mcux-sdk/devices/LPC55S28/gcc/startup_LPC55S28_asm.o
Reserved56_DriverIRQHandler                       _build/lpcxpresso55s28/obj/hw/mcu/nxp/mcux-sdk/devices/LPC55S28/gcc/startup_LPC55S28_asm.o
Reserved56_IRQHandler                             _build/lpcxpresso55s28/obj/hw/mcu/nxp/mcux-sdk/devices/LPC55S28/gcc/startup_LPC55S28_asm.o
Reserved57_DriverIRQHandler                       _build/lpcxpresso55s28/obj/hw/mcu/nxp/mcux-sdk/devices/LPC55S28/gcc/startup_LPC55S28_asm.o
Reserved57_IRQHandler                             _build/lpcxpresso55s28/obj/hw/mcu/nxp/mcux-sdk/devices/LPC55S28/gcc/startup_LPC55S28_asm.o
Reserved59_DriverIRQHandler                       _build/lpcxpresso55s28/obj/hw/mcu/nxp/mcux-sdk/devices/LPC55S28/gcc/startup_LPC55S28_asm.o
Reserved59_IRQHandler                             _build/lpcxpresso55s28/obj/hw/mcu/nxp/mcux-sdk/devices/LPC55S28/gcc/startup_LPC55S28_asm.o
Reserved60_DriverIRQHandler                       _build/lpcxpresso55s28/obj/hw/mcu/nxp/mcux-sdk/devices/LPC55S28/gcc/startup_LPC55S28_asm.o
Reserved60_IRQHandler                             _build/lpcxpresso55s28/obj/hw/mcu/nxp/mcux-sdk/devices/LPC55S28/gcc/startup_LPC55S28_asm.o
Reserved61_DriverIRQHandler                       _build/lpcxpresso55s28/obj/hw/mcu/nxp/mcux-sdk/devices/LPC55S28/gcc/startup_LPC55S28_asm.o
Reserved61_IRQHandler                             _build/lpcxpresso55s28/obj/hw/mcu/nxp/mcux-sdk/devices/LPC55S28/gcc/startup_LPC55S28_asm.o
Reset_Handler                                     _build/lpcxpresso55s28/obj/hw/mcu/nxp/mcux-sdk/devices/LPC55S28/gcc/startup_LPC55S28_asm.o
SCT0_DriverIRQHandler                             C:\Users\Usuario\AppData\Local\Temp\LPC55SXX.elf.QlIYWa.ltrans0.ltrans.o
                                                  _build/lpcxpresso55s28/obj/lib/sct_neopixel/sct_neopixel.o (symbol from plugin)
                                                  _build/lpcxpresso55s28/obj/hw/mcu/nxp/mcux-sdk/devices/LPC55S28/gcc/startup_LPC55S28_asm.o
SCT0_IRQHandler                                   _build/lpcxpresso55s28/obj/hw/mcu/nxp/mcux-sdk/devices/LPC55S28/gcc/startup_LPC55S28_asm.o
SDIO_DriverIRQHandler                             _build/lpcxpresso55s28/obj/hw/mcu/nxp/mcux-sdk/devices/LPC55S28/gcc/startup_LPC55S28_asm.o
SDIO_IRQHandler                                   _build/lpcxpresso55s28/obj/hw/mcu/nxp/mcux-sdk/devices/LPC55S28/gcc/startup_LPC55S28_asm.o
SDK_DelayAtLeastUs                                _build/lpcxpresso55s28/obj/hw/mcu/nxp/mcux-sdk/devices/LPC55S28/drivers/fsl_clock.o (symbol from plugin)
SEC_GPIO_INT0_IRQ0_DriverIRQHandler               _build/lpcxpresso55s28/obj/hw/mcu/nxp/mcux-sdk/devices/LPC55S28/gcc/startup_LPC55S28_asm.o
SEC_GPIO_INT0_IRQ0_IRQHandler                     _build/lpcxpresso55s28/obj/hw/mcu/nxp/mcux-sdk/devices/LPC55S28/gcc/startup_LPC55S28_asm.o
SEC_GPIO_INT0_IRQ1_DriverIRQHandler               _build/lpcxpresso55s28/obj/hw/mcu/nxp/mcux-sdk/devices/LPC55S28/gcc/startup_LPC55S28_asm.o
SEC_GPIO_INT0_IRQ1_IRQHandler                     _build/lpcxpresso55s28/obj/hw/mcu/nxp/mcux-sdk/devices/LPC55S28/gcc/startup_LPC55S28_asm.o
SEC_HYPERVISOR_CALL_DriverIRQHandler              _build/lpcxpresso55s28/obj/hw/mcu/nxp/mcux-sdk/devices/LPC55S28/gcc/startup_LPC55S28_asm.o
SEC_HYPERVISOR_CALL_IRQHandler                    _build/lpcxpresso55s28/obj/hw/mcu/nxp/mcux-sdk/devices/LPC55S28/gcc/startup_LPC55S28_asm.o
SEC_VIO_DriverIRQHandler                          _build/lpcxpresso55s28/obj/hw/mcu/nxp/mcux-sdk/devices/LPC55S28/gcc/startup_LPC55S28_asm.o
SEC_VIO_IRQHandler                                _build/lpcxpresso55s28/obj/hw/mcu/nxp/mcux-sdk/devices/LPC55S28/gcc/startup_LPC55S28_asm.o
SVC_Handler                                       _build/lpcxpresso55s28/obj/hw/mcu/nxp/mcux-sdk/devices/LPC55S28/gcc/startup_LPC55S28_asm.o
SecureFault_Handler                               _build/lpcxpresso55s28/obj/hw/mcu/nxp/mcux-sdk/devices/LPC55S28/gcc/startup_LPC55S28_asm.o
SysTick_Handler                                   C:\Users\Usuario\AppData\Local\Temp\LPC55SXX.elf.QlIYWa.ltrans0.ltrans.o
                                                  _build/lpcxpresso55s28/obj/hw/bsp/lpc55/family.o (symbol from plugin)
                                                  _build/lpcxpresso55s28/obj/hw/mcu/nxp/mcux-sdk/devices/LPC55S28/gcc/startup_LPC55S28_asm.o
SystemCoreClock                                   _build/lpcxpresso55s28/obj/hw/mcu/nxp/mcux-sdk/devices/LPC55S28/system_LPC55S28.o (symbol from plugin)
                                                  _build/lpcxpresso55s28/obj/hw/bsp/lpc55/family.o (symbol from plugin)
SystemCoreClockUpdate                             _build/lpcxpresso55s28/obj/hw/mcu/nxp/mcux-sdk/devices/LPC55S28/system_LPC55S28.o (symbol from plugin)
SystemInit                                        C:\Users\Usuario\AppData\Local\Temp\LPC55SXX.elf.QlIYWa.ltrans0.ltrans.o
                                                  _build/lpcxpresso55s28/obj/hw/mcu/nxp/mcux-sdk/devices/LPC55S28/system_LPC55S28.o (symbol from plugin)
                                                  _build/lpcxpresso55s28/obj/hw/mcu/nxp/mcux-sdk/devices/LPC55S28/gcc/startup_LPC55S28_asm.o
SystemInitHook                                    _build/lpcxpresso55s28/obj/hw/mcu/nxp/mcux-sdk/devices/LPC55S28/system_LPC55S28.o (symbol from plugin)
USART_Deinit                                      _build/lpcxpresso55s28/obj/hw/mcu/nxp/mcux-sdk/drivers/flexcomm/fsl_usart.o (symbol from plugin)
USART_Enable32kMode                               _build/lpcxpresso55s28/obj/hw/mcu/nxp/mcux-sdk/drivers/flexcomm/fsl_usart.o (symbol from plugin)
USART_Enable9bitMode                              _build/lpcxpresso55s28/obj/hw/mcu/nxp/mcux-sdk/drivers/flexcomm/fsl_usart.o (symbol from plugin)
USART_GetDefaultConfig                            _build/lpcxpresso55s28/obj/hw/mcu/nxp/mcux-sdk/drivers/flexcomm/fsl_usart.o (symbol from plugin)
                                                  _build/lpcxpresso55s28/obj/hw/bsp/lpc55/family.o (symbol from plugin)
USART_GetInstance                                 _build/lpcxpresso55s28/obj/hw/mcu/nxp/mcux-sdk/drivers/flexcomm/fsl_usart.o (symbol from plugin)
USART_Init                                        _build/lpcxpresso55s28/obj/hw/mcu/nxp/mcux-sdk/drivers/flexcomm/fsl_usart.o (symbol from plugin)
                                                  _build/lpcxpresso55s28/obj/hw/bsp/lpc55/family.o (symbol from plugin)
USART_ReadBlocking                                _build/lpcxpresso55s28/obj/hw/mcu/nxp/mcux-sdk/drivers/flexcomm/fsl_usart.o (symbol from plugin)
USART_SendAddress                                 _build/lpcxpresso55s28/obj/hw/mcu/nxp/mcux-sdk/drivers/flexcomm/fsl_usart.o (symbol from plugin)
USART_SetBaudRate                                 _build/lpcxpresso55s28/obj/hw/mcu/nxp/mcux-sdk/drivers/flexcomm/fsl_usart.o (symbol from plugin)
USART_TransferAbortReceive                        _build/lpcxpresso55s28/obj/hw/mcu/nxp/mcux-sdk/drivers/flexcomm/fsl_usart.o (symbol from plugin)
USART_TransferAbortSend                           _build/lpcxpresso55s28/obj/hw/mcu/nxp/mcux-sdk/drivers/flexcomm/fsl_usart.o (symbol from plugin)
USART_TransferCreateHandle                        _build/lpcxpresso55s28/obj/hw/mcu/nxp/mcux-sdk/drivers/flexcomm/fsl_usart.o (symbol from plugin)
USART_TransferGetReceiveCount                     _build/lpcxpresso55s28/obj/hw/mcu/nxp/mcux-sdk/drivers/flexcomm/fsl_usart.o (symbol from plugin)
USART_TransferGetRxRingBufferLength               _build/lpcxpresso55s28/obj/hw/mcu/nxp/mcux-sdk/drivers/flexcomm/fsl_usart.o (symbol from plugin)
USART_TransferGetSendCount                        _build/lpcxpresso55s28/obj/hw/mcu/nxp/mcux-sdk/drivers/flexcomm/fsl_usart.o (symbol from plugin)
USART_TransferHandleIRQ                           _build/lpcxpresso55s28/obj/hw/mcu/nxp/mcux-sdk/drivers/flexcomm/fsl_usart.o (symbol from plugin)
USART_TransferReceiveNonBlocking                  _build/lpcxpresso55s28/obj/hw/mcu/nxp/mcux-sdk/drivers/flexcomm/fsl_usart.o (symbol from plugin)
USART_TransferSendNonBlocking                     _build/lpcxpresso55s28/obj/hw/mcu/nxp/mcux-sdk/drivers/flexcomm/fsl_usart.o (symbol from plugin)
USART_TransferStartRingBuffer                     _build/lpcxpresso55s28/obj/hw/mcu/nxp/mcux-sdk/drivers/flexcomm/fsl_usart.o (symbol from plugin)
USART_TransferStopRingBuffer                      _build/lpcxpresso55s28/obj/hw/mcu/nxp/mcux-sdk/drivers/flexcomm/fsl_usart.o (symbol from plugin)
USART_WriteBlocking                               _build/lpcxpresso55s28/obj/hw/mcu/nxp/mcux-sdk/drivers/flexcomm/fsl_usart.o (symbol from plugin)
                                                  _build/lpcxpresso55s28/obj/hw/bsp/lpc55/family.o (symbol from plugin)
USB0_DriverIRQHandler                             _build/lpcxpresso55s28/obj/hw/mcu/nxp/mcux-sdk/devices/LPC55S28/gcc/startup_LPC55S28_asm.o
USB0_IRQHandler                                   C:\Users\Usuario\AppData\Local\Temp\LPC55SXX.elf.QlIYWa.ltrans0.ltrans.o
                                                  _build/lpcxpresso55s28/obj/hw/bsp/lpc55/family.o (symbol from plugin)
                                                  _build/lpcxpresso55s28/obj/hw/mcu/nxp/mcux-sdk/devices/LPC55S28/gcc/startup_LPC55S28_asm.o
USB0_NEEDCLK_DriverIRQHandler                     _build/lpcxpresso55s28/obj/hw/mcu/nxp/mcux-sdk/devices/LPC55S28/gcc/startup_LPC55S28_asm.o
USB0_NEEDCLK_IRQHandler                           _build/lpcxpresso55s28/obj/hw/mcu/nxp/mcux-sdk/devices/LPC55S28/gcc/startup_LPC55S28_asm.o
USB1_DriverIRQHandler                             _build/lpcxpresso55s28/obj/hw/mcu/nxp/mcux-sdk/devices/LPC55S28/gcc/startup_LPC55S28_asm.o
USB1_IRQHandler                                   C:\Users\Usuario\AppData\Local\Temp\LPC55SXX.elf.QlIYWa.ltrans0.ltrans.o
                                                  _build/lpcxpresso55s28/obj/hw/bsp/lpc55/family.o (symbol from plugin)
                                                  _build/lpcxpresso55s28/obj/hw/mcu/nxp/mcux-sdk/devices/LPC55S28/gcc/startup_LPC55S28_asm.o
USB1_NEEDCLK_DriverIRQHandler                     _build/lpcxpresso55s28/obj/hw/mcu/nxp/mcux-sdk/devices/LPC55S28/gcc/startup_LPC55S28_asm.o
USB1_NEEDCLK_IRQHandler                           _build/lpcxpresso55s28/obj/hw/mcu/nxp/mcux-sdk/devices/LPC55S28/gcc/startup_LPC55S28_asm.o
USB1_PHY_DriverIRQHandler                         _build/lpcxpresso55s28/obj/hw/mcu/nxp/mcux-sdk/devices/LPC55S28/gcc/startup_LPC55S28_asm.o
USB1_PHY_IRQHandler                               _build/lpcxpresso55s28/obj/hw/mcu/nxp/mcux-sdk/devices/LPC55S28/gcc/startup_LPC55S28_asm.o
UTICK0_DriverIRQHandler                           _build/lpcxpresso55s28/obj/hw/mcu/nxp/mcux-sdk/devices/LPC55S28/gcc/startup_LPC55S28_asm.o
UTICK0_IRQHandler                                 _build/lpcxpresso55s28/obj/hw/mcu/nxp/mcux-sdk/devices/LPC55S28/gcc/startup_LPC55S28_asm.o
UsageFault_Handler                                _build/lpcxpresso55s28/obj/hw/mcu/nxp/mcux-sdk/devices/LPC55S28/gcc/startup_LPC55S28_asm.o
WDT_BOD_DriverIRQHandler                          _build/lpcxpresso55s28/obj/hw/mcu/nxp/mcux-sdk/devices/LPC55S28/gcc/startup_LPC55S28_asm.o
WDT_BOD_IRQHandler                                _build/lpcxpresso55s28/obj/hw/mcu/nxp/mcux-sdk/devices/LPC55S28/gcc/startup_LPC55S28_asm.o
__HeapBase                                        _build/lpcxpresso55s28/obj/hw/mcu/nxp/mcux-sdk/devices/LPC55S28/gcc/startup_LPC55S28_asm.o
__HeapLimit                                       _build/lpcxpresso55s28/obj/hw/mcu/nxp/mcux-sdk/devices/LPC55S28/gcc/startup_LPC55S28_asm.o
__StackLimit                                      _build/lpcxpresso55s28/obj/hw/mcu/nxp/mcux-sdk/devices/LPC55S28/gcc/startup_LPC55S28_asm.o
__StackTop                                        _build/lpcxpresso55s28/obj/hw/mcu/nxp/mcux-sdk/devices/LPC55S28/gcc/startup_LPC55S28_asm.o
__Vectors                                         _build/lpcxpresso55s28/obj/hw/mcu/nxp/mcux-sdk/devices/LPC55S28/gcc/startup_LPC55S28_asm.o
                                                  C:\Users\Usuario\AppData\Local\Temp\LPC55SXX.elf.QlIYWa.ltrans0.ltrans.o
                                                  _build/lpcxpresso55s28/obj/hw/mcu/nxp/mcux-sdk/devices/LPC55S28/system_LPC55S28.o (symbol from plugin)
__assert                                          c:/nxp/mcuxpressoide_11.5.1_7266/ide/plugins/com.nxp.mcuxpresso.tools.win32_11.5.1.202201181444/tools/bin/../lib/gcc/arm-none-eabi/10.3.1/../../../../arm-none-eabi/lib/thumb/v8-m.main+fp/hard\libc_nano.a(lib_a-assert.o)
__assert_func                                     c:/nxp/mcuxpressoide_11.5.1_7266/ide/plugins/com.nxp.mcuxpresso.tools.win32_11.5.1.202201181444/tools/bin/../lib/gcc/arm-none-eabi/10.3.1/../../../../arm-none-eabi/lib/thumb/v8-m.main+fp/hard\libc_nano.a(lib_a-assert.o)
                                                  C:\Users\Usuario\AppData\Local\Temp\LPC55SXX.elf.QlIYWa.ltrans0.ltrans.o
                                                  _build/lpcxpresso55s28/obj/hw/mcu/nxp/mcux-sdk/drivers/flexcomm/fsl_usart.o (symbol from plugin)
                                                  _build/lpcxpresso55s28/obj/hw/mcu/nxp/mcux-sdk/drivers/flexcomm/fsl_flexcomm.o (symbol from plugin)
                                                  _build/lpcxpresso55s28/obj/hw/mcu/nxp/mcux-sdk/drivers/lpc_gpio/fsl_gpio.o (symbol from plugin)
                                                  _build/lpcxpresso55s28/obj/hw/mcu/nxp/mcux-sdk/devices/LPC55S28/drivers/fsl_reset.o (symbol from plugin)
                                                  _build/lpcxpresso55s28/obj/hw/mcu/nxp/mcux-sdk/devices/LPC55S28/drivers/fsl_clock.o (symbol from plugin)
__bss_end__                                       c:/nxp/mcuxpressoide_11.5.1_7266/ide/plugins/com.nxp.mcuxpresso.tools.win32_11.5.1.202201181444/tools/bin/../lib/gcc/arm-none-eabi/10.3.1/../../../../arm-none-eabi/lib/thumb/v8-m.main+fp/hard/crt0.o
__bss_start__                                     c:/nxp/mcuxpressoide_11.5.1_7266/ide/plugins/com.nxp.mcuxpresso.tools.win32_11.5.1.202201181444/tools/bin/../lib/gcc/arm-none-eabi/10.3.1/../../../../arm-none-eabi/lib/thumb/v8-m.main+fp/hard/crt0.o
__call_exitprocs                                  c:/nxp/mcuxpressoide_11.5.1_7266/ide/plugins/com.nxp.mcuxpresso.tools.win32_11.5.1.202201181444/tools/bin/../lib/gcc/arm-none-eabi/10.3.1/../../../../arm-none-eabi/lib/thumb/v8-m.main+fp/hard\libc_nano.a(lib_a-exit.o)
__data_end__                                      _build/lpcxpresso55s28/obj/hw/mcu/nxp/mcux-sdk/devices/LPC55S28/gcc/startup_LPC55S28_asm.o
__data_start__                                    _build/lpcxpresso55s28/obj/hw/mcu/nxp/mcux-sdk/devices/LPC55S28/gcc/startup_LPC55S28_asm.o
__deregister_frame_info                           c:/nxp/mcuxpressoide_11.5.1_7266/ide/plugins/com.nxp.mcuxpresso.tools.win32_11.5.1.202201181444/tools/bin/../lib/gcc/arm-none-eabi/10.3.1/thumb/v8-m.main+fp/hard/crtbegin.o
__dso_handle                                      c:/nxp/mcuxpressoide_11.5.1_7266/ide/plugins/com.nxp.mcuxpresso.tools.win32_11.5.1.202201181444/tools/bin/../lib/gcc/arm-none-eabi/10.3.1/thumb/v8-m.main+fp/hard/crtbegin.o
__etext                                           _build/lpcxpresso55s28/obj/hw/mcu/nxp/mcux-sdk/devices/LPC55S28/gcc/startup_LPC55S28_asm.o
__fp_lock_all                                     c:/nxp/mcuxpressoide_11.5.1_7266/ide/plugins/com.nxp.mcuxpresso.tools.win32_11.5.1.202201181444/tools/bin/../lib/gcc/arm-none-eabi/10.3.1/../../../../arm-none-eabi/lib/thumb/v8-m.main+fp/hard\libc_nano.a(lib_a-findfp.o)
__fp_unlock_all                                   c:/nxp/mcuxpressoide_11.5.1_7266/ide/plugins/com.nxp.mcuxpresso.tools.win32_11.5.1.202201181444/tools/bin/../lib/gcc/arm-none-eabi/10.3.1/../../../../arm-none-eabi/lib/thumb/v8-m.main+fp/hard\libc_nano.a(lib_a-findfp.o)
__init_array_end                                  c:/nxp/mcuxpressoide_11.5.1_7266/ide/plugins/com.nxp.mcuxpresso.tools.win32_11.5.1.202201181444/tools/bin/../lib/gcc/arm-none-eabi/10.3.1/../../../../arm-none-eabi/lib/thumb/v8-m.main+fp/hard\libc_nano.a(lib_a-init.o)
__init_array_start                                c:/nxp/mcuxpressoide_11.5.1_7266/ide/plugins/com.nxp.mcuxpresso.tools.win32_11.5.1.202201181444/tools/bin/../lib/gcc/arm-none-eabi/10.3.1/../../../../arm-none-eabi/lib/thumb/v8-m.main+fp/hard\libc_nano.a(lib_a-init.o)
__libc_fini_array                                 c:/nxp/mcuxpressoide_11.5.1_7266/ide/plugins/com.nxp.mcuxpresso.tools.win32_11.5.1.202201181444/tools/bin/../lib/gcc/arm-none-eabi/10.3.1/../../../../arm-none-eabi/lib/thumb/v8-m.main+fp/hard/crt0.o
__libc_init_array                                 c:/nxp/mcuxpressoide_11.5.1_7266/ide/plugins/com.nxp.mcuxpresso.tools.win32_11.5.1.202201181444/tools/bin/../lib/gcc/arm-none-eabi/10.3.1/../../../../arm-none-eabi/lib/thumb/v8-m.main+fp/hard\libc_nano.a(lib_a-init.o)
                                                  c:/nxp/mcuxpressoide_11.5.1_7266/ide/plugins/com.nxp.mcuxpresso.tools.win32_11.5.1.202201181444/tools/bin/../lib/gcc/arm-none-eabi/10.3.1/../../../../arm-none-eabi/lib/thumb/v8-m.main+fp/hard/crt0.o
__lock___arc4random_mutex                         c:/nxp/mcuxpressoide_11.5.1_7266/ide/plugins/com.nxp.mcuxpresso.tools.win32_11.5.1.202201181444/tools/bin/../lib/gcc/arm-none-eabi/10.3.1/../../../../arm-none-eabi/lib/thumb/v8-m.main+fp/hard\libc_nano.a(lib_a-lock.o)
__lock___at_quick_exit_mutex                      c:/nxp/mcuxpressoide_11.5.1_7266/ide/plugins/com.nxp.mcuxpresso.tools.win32_11.5.1.202201181444/tools/bin/../lib/gcc/arm-none-eabi/10.3.1/../../../../arm-none-eabi/lib/thumb/v8-m.main+fp/hard\libc_nano.a(lib_a-lock.o)
__lock___atexit_recursive_mutex                   c:/nxp/mcuxpressoide_11.5.1_7266/ide/plugins/com.nxp.mcuxpresso.tools.win32_11.5.1.202201181444/tools/bin/../lib/gcc/arm-none-eabi/10.3.1/../../../../arm-none-eabi/lib/thumb/v8-m.main+fp/hard\libc_nano.a(lib_a-lock.o)
__lock___dd_hash_mutex                            c:/nxp/mcuxpressoide_11.5.1_7266/ide/plugins/com.nxp.mcuxpresso.tools.win32_11.5.1.202201181444/tools/bin/../lib/gcc/arm-none-eabi/10.3.1/../../../../arm-none-eabi/lib/thumb/v8-m.main+fp/hard\libc_nano.a(lib_a-lock.o)
__lock___env_recursive_mutex                      c:/nxp/mcuxpressoide_11.5.1_7266/ide/plugins/com.nxp.mcuxpresso.tools.win32_11.5.1.202201181444/tools/bin/../lib/gcc/arm-none-eabi/10.3.1/../../../../arm-none-eabi/lib/thumb/v8-m.main+fp/hard\libc_nano.a(lib_a-lock.o)
__lock___malloc_recursive_mutex                   c:/nxp/mcuxpressoide_11.5.1_7266/ide/plugins/com.nxp.mcuxpresso.tools.win32_11.5.1.202201181444/tools/bin/../lib/gcc/arm-none-eabi/10.3.1/../../../../arm-none-eabi/lib/thumb/v8-m.main+fp/hard\libc_nano.a(lib_a-lock.o)
                                                  c:/nxp/mcuxpressoide_11.5.1_7266/ide/plugins/com.nxp.mcuxpresso.tools.win32_11.5.1.202201181444/tools/bin/../lib/gcc/arm-none-eabi/10.3.1/../../../../arm-none-eabi/lib/thumb/v8-m.main+fp/hard\libc_nano.a(lib_a-mlock.o)
__lock___sfp_recursive_mutex                      c:/nxp/mcuxpressoide_11.5.1_7266/ide/plugins/com.nxp.mcuxpresso.tools.win32_11.5.1.202201181444/tools/bin/../lib/gcc/arm-none-eabi/10.3.1/../../../../arm-none-eabi/lib/thumb/v8-m.main+fp/hard\libc_nano.a(lib_a-lock.o)
                                                  c:/nxp/mcuxpressoide_11.5.1_7266/ide/plugins/com.nxp.mcuxpresso.tools.win32_11.5.1.202201181444/tools/bin/../lib/gcc/arm-none-eabi/10.3.1/../../../../arm-none-eabi/lib/thumb/v8-m.main+fp/hard\libc_nano.a(lib_a-findfp.o)
__lock___sinit_recursive_mutex                    c:/nxp/mcuxpressoide_11.5.1_7266/ide/plugins/com.nxp.mcuxpresso.tools.win32_11.5.1.202201181444/tools/bin/../lib/gcc/arm-none-eabi/10.3.1/../../../../arm-none-eabi/lib/thumb/v8-m.main+fp/hard\libc_nano.a(lib_a-lock.o)
                                                  c:/nxp/mcuxpressoide_11.5.1_7266/ide/plugins/com.nxp.mcuxpresso.tools.win32_11.5.1.202201181444/tools/bin/../lib/gcc/arm-none-eabi/10.3.1/../../../../arm-none-eabi/lib/thumb/v8-m.main+fp/hard\libc_nano.a(lib_a-findfp.o)
__lock___tz_mutex                                 c:/nxp/mcuxpressoide_11.5.1_7266/ide/plugins/com.nxp.mcuxpresso.tools.win32_11.5.1.202201181444/tools/bin/../lib/gcc/arm-none-eabi/10.3.1/../../../../arm-none-eabi/lib/thumb/v8-m.main+fp/hard\libc_nano.a(lib_a-lock.o)
__malloc_free_list                                c:/nxp/mcuxpressoide_11.5.1_7266/ide/plugins/com.nxp.mcuxpresso.tools.win32_11.5.1.202201181444/tools/bin/../lib/gcc/arm-none-eabi/10.3.1/../../../../arm-none-eabi/lib/thumb/v8-m.main+fp/hard\libc_nano.a(lib_a-nano-mallocr.o)
                                                  c:/nxp/mcuxpressoide_11.5.1_7266/ide/plugins/com.nxp.mcuxpresso.tools.win32_11.5.1.202201181444/tools/bin/../lib/gcc/arm-none-eabi/10.3.1/../../../../arm-none-eabi/lib/thumb/v8-m.main+fp/hard\libc_nano.a(lib_a-nano-freer.o)
__malloc_lock                                     c:/nxp/mcuxpressoide_11.5.1_7266/ide/plugins/com.nxp.mcuxpresso.tools.win32_11.5.1.202201181444/tools/bin/../lib/gcc/arm-none-eabi/10.3.1/../../../../arm-none-eabi/lib/thumb/v8-m.main+fp/hard\libc_nano.a(lib_a-mlock.o)
                                                  c:/nxp/mcuxpressoide_11.5.1_7266/ide/plugins/com.nxp.mcuxpresso.tools.win32_11.5.1.202201181444/tools/bin/../lib/gcc/arm-none-eabi/10.3.1/../../../../arm-none-eabi/lib/thumb/v8-m.main+fp/hard\libc_nano.a(lib_a-nano-mallocr.o)
                                                  c:/nxp/mcuxpressoide_11.5.1_7266/ide/plugins/com.nxp.mcuxpresso.tools.win32_11.5.1.202201181444/tools/bin/../lib/gcc/arm-none-eabi/10.3.1/../../../../arm-none-eabi/lib/thumb/v8-m.main+fp/hard\libc_nano.a(lib_a-nano-freer.o)
__malloc_sbrk_start                               c:/nxp/mcuxpressoide_11.5.1_7266/ide/plugins/com.nxp.mcuxpresso.tools.win32_11.5.1.202201181444/tools/bin/../lib/gcc/arm-none-eabi/10.3.1/../../../../arm-none-eabi/lib/thumb/v8-m.main+fp/hard\libc_nano.a(lib_a-nano-mallocr.o)
__malloc_unlock                                   c:/nxp/mcuxpressoide_11.5.1_7266/ide/plugins/com.nxp.mcuxpresso.tools.win32_11.5.1.202201181444/tools/bin/../lib/gcc/arm-none-eabi/10.3.1/../../../../arm-none-eabi/lib/thumb/v8-m.main+fp/hard\libc_nano.a(lib_a-mlock.o)
                                                  c:/nxp/mcuxpressoide_11.5.1_7266/ide/plugins/com.nxp.mcuxpresso.tools.win32_11.5.1.202201181444/tools/bin/../lib/gcc/arm-none-eabi/10.3.1/../../../../arm-none-eabi/lib/thumb/v8-m.main+fp/hard\libc_nano.a(lib_a-nano-mallocr.o)
                                                  c:/nxp/mcuxpressoide_11.5.1_7266/ide/plugins/com.nxp.mcuxpresso.tools.win32_11.5.1.202201181444/tools/bin/../lib/gcc/arm-none-eabi/10.3.1/../../../../arm-none-eabi/lib/thumb/v8-m.main+fp/hard\libc_nano.a(lib_a-nano-freer.o)
__preinit_array_end                               c:/nxp/mcuxpressoide_11.5.1_7266/ide/plugins/com.nxp.mcuxpresso.tools.win32_11.5.1.202201181444/tools/bin/../lib/gcc/arm-none-eabi/10.3.1/../../../../arm-none-eabi/lib/thumb/v8-m.main+fp/hard\libc_nano.a(lib_a-init.o)
__preinit_array_start                             c:/nxp/mcuxpressoide_11.5.1_7266/ide/plugins/com.nxp.mcuxpresso.tools.win32_11.5.1.202201181444/tools/bin/../lib/gcc/arm-none-eabi/10.3.1/../../../../arm-none-eabi/lib/thumb/v8-m.main+fp/hard\libc_nano.a(lib_a-init.o)
__register_frame_info                             c:/nxp/mcuxpressoide_11.5.1_7266/ide/plugins/com.nxp.mcuxpresso.tools.win32_11.5.1.202201181444/tools/bin/../lib/gcc/arm-none-eabi/10.3.1/thumb/v8-m.main+fp/hard/crtbegin.o
__retarget_lock_acquire                           c:/nxp/mcuxpressoide_11.5.1_7266/ide/plugins/com.nxp.mcuxpresso.tools.win32_11.5.1.202201181444/tools/bin/../lib/gcc/arm-none-eabi/10.3.1/../../../../arm-none-eabi/lib/thumb/v8-m.main+fp/hard\libc_nano.a(lib_a-lock.o)
__retarget_lock_acquire_recursive                 c:/nxp/mcuxpressoide_11.5.1_7266/ide/plugins/com.nxp.mcuxpresso.tools.win32_11.5.1.202201181444/tools/bin/../lib/gcc/arm-none-eabi/10.3.1/../../../../arm-none-eabi/lib/thumb/v8-m.main+fp/hard\libc_nano.a(lib_a-lock.o)
                                                  c:/nxp/mcuxpressoide_11.5.1_7266/ide/plugins/com.nxp.mcuxpresso.tools.win32_11.5.1.202201181444/tools/bin/../lib/gcc/arm-none-eabi/10.3.1/../../../../arm-none-eabi/lib/thumb/v8-m.main+fp/hard\libc_nano.a(lib_a-mlock.o)
                                                  c:/nxp/mcuxpressoide_11.5.1_7266/ide/plugins/com.nxp.mcuxpresso.tools.win32_11.5.1.202201181444/tools/bin/../lib/gcc/arm-none-eabi/10.3.1/../../../../arm-none-eabi/lib/thumb/v8-m.main+fp/hard\libc_nano.a(lib_a-findfp.o)
                                                  c:/nxp/mcuxpressoide_11.5.1_7266/ide/plugins/com.nxp.mcuxpresso.tools.win32_11.5.1.202201181444/tools/bin/../lib/gcc/arm-none-eabi/10.3.1/../../../../arm-none-eabi/lib/thumb/v8-m.main+fp/hard\libc_nano.a(lib_a-fflush.o)
                                                  c:/nxp/mcuxpressoide_11.5.1_7266/ide/plugins/com.nxp.mcuxpresso.tools.win32_11.5.1.202201181444/tools/bin/../lib/gcc/arm-none-eabi/10.3.1/../../../../arm-none-eabi/lib/thumb/v8-m.main+fp/hard\libc_nano.a(lib_a-nano-vfprintf.o)
__retarget_lock_close                             c:/nxp/mcuxpressoide_11.5.1_7266/ide/plugins/com.nxp.mcuxpresso.tools.win32_11.5.1.202201181444/tools/bin/../lib/gcc/arm-none-eabi/10.3.1/../../../../arm-none-eabi/lib/thumb/v8-m.main+fp/hard\libc_nano.a(lib_a-lock.o)
__retarget_lock_close_recursive                   c:/nxp/mcuxpressoide_11.5.1_7266/ide/plugins/com.nxp.mcuxpresso.tools.win32_11.5.1.202201181444/tools/bin/../lib/gcc/arm-none-eabi/10.3.1/../../../../arm-none-eabi/lib/thumb/v8-m.main+fp/hard\libc_nano.a(lib_a-lock.o)
__retarget_lock_init                              c:/nxp/mcuxpressoide_11.5.1_7266/ide/plugins/com.nxp.mcuxpresso.tools.win32_11.5.1.202201181444/tools/bin/../lib/gcc/arm-none-eabi/10.3.1/../../../../arm-none-eabi/lib/thumb/v8-m.main+fp/hard\libc_nano.a(lib_a-lock.o)
__retarget_lock_init_recursive                    c:/nxp/mcuxpressoide_11.5.1_7266/ide/plugins/com.nxp.mcuxpresso.tools.win32_11.5.1.202201181444/tools/bin/../lib/gcc/arm-none-eabi/10.3.1/../../../../arm-none-eabi/lib/thumb/v8-m.main+fp/hard\libc_nano.a(lib_a-lock.o)
                                                  c:/nxp/mcuxpressoide_11.5.1_7266/ide/plugins/com.nxp.mcuxpresso.tools.win32_11.5.1.202201181444/tools/bin/../lib/gcc/arm-none-eabi/10.3.1/../../../../arm-none-eabi/lib/thumb/v8-m.main+fp/hard\libc_nano.a(lib_a-findfp.o)
__retarget_lock_release                           c:/nxp/mcuxpressoide_11.5.1_7266/ide/plugins/com.nxp.mcuxpresso.tools.win32_11.5.1.202201181444/tools/bin/../lib/gcc/arm-none-eabi/10.3.1/../../../../arm-none-eabi/lib/thumb/v8-m.main+fp/hard\libc_nano.a(lib_a-lock.o)
__retarget_lock_release_recursive                 c:/nxp/mcuxpressoide_11.5.1_7266/ide/plugins/com.nxp.mcuxpresso.tools.win32_11.5.1.202201181444/tools/bin/../lib/gcc/arm-none-eabi/10.3.1/../../../../arm-none-eabi/lib/thumb/v8-m.main+fp/hard\libc_nano.a(lib_a-lock.o)
                                                  c:/nxp/mcuxpressoide_11.5.1_7266/ide/plugins/com.nxp.mcuxpresso.tools.win32_11.5.1.202201181444/tools/bin/../lib/gcc/arm-none-eabi/10.3.1/../../../../arm-none-eabi/lib/thumb/v8-m.main+fp/hard\libc_nano.a(lib_a-mlock.o)
                                                  c:/nxp/mcuxpressoide_11.5.1_7266/ide/plugins/com.nxp.mcuxpresso.tools.win32_11.5.1.202201181444/tools/bin/../lib/gcc/arm-none-eabi/10.3.1/../../../../arm-none-eabi/lib/thumb/v8-m.main+fp/hard\libc_nano.a(lib_a-findfp.o)
                                                  c:/nxp/mcuxpressoide_11.5.1_7266/ide/plugins/com.nxp.mcuxpresso.tools.win32_11.5.1.202201181444/tools/bin/../lib/gcc/arm-none-eabi/10.3.1/../../../../arm-none-eabi/lib/thumb/v8-m.main+fp/hard\libc_nano.a(lib_a-fflush.o)
                                                  c:/nxp/mcuxpressoide_11.5.1_7266/ide/plugins/com.nxp.mcuxpresso.tools.win32_11.5.1.202201181444/tools/bin/../lib/gcc/arm-none-eabi/10.3.1/../../../../arm-none-eabi/lib/thumb/v8-m.main+fp/hard\libc_nano.a(lib_a-nano-vfprintf.o)
__retarget_lock_try_acquire                       c:/nxp/mcuxpressoide_11.5.1_7266/ide/plugins/com.nxp.mcuxpresso.tools.win32_11.5.1.202201181444/tools/bin/../lib/gcc/arm-none-eabi/10.3.1/../../../../arm-none-eabi/lib/thumb/v8-m.main+fp/hard\libc_nano.a(lib_a-lock.o)
__retarget_lock_try_acquire_recursive             c:/nxp/mcuxpressoide_11.5.1_7266/ide/plugins/com.nxp.mcuxpresso.tools.win32_11.5.1.202201181444/tools/bin/../lib/gcc/arm-none-eabi/10.3.1/../../../../arm-none-eabi/lib/thumb/v8-m.main+fp/hard\libc_nano.a(lib_a-lock.o)
__sclose                                          c:/nxp/mcuxpressoide_11.5.1_7266/ide/plugins/com.nxp.mcuxpresso.tools.win32_11.5.1.202201181444/tools/bin/../lib/gcc/arm-none-eabi/10.3.1/../../../../arm-none-eabi/lib/thumb/v8-m.main+fp/hard\libc_nano.a(lib_a-stdio.o)
                                                  c:/nxp/mcuxpressoide_11.5.1_7266/ide/plugins/com.nxp.mcuxpresso.tools.win32_11.5.1.202201181444/tools/bin/../lib/gcc/arm-none-eabi/10.3.1/../../../../arm-none-eabi/lib/thumb/v8-m.main+fp/hard\libc_nano.a(lib_a-findfp.o)
__seofread                                        c:/nxp/mcuxpressoide_11.5.1_7266/ide/plugins/com.nxp.mcuxpresso.tools.win32_11.5.1.202201181444/tools/bin/../lib/gcc/arm-none-eabi/10.3.1/../../../../arm-none-eabi/lib/thumb/v8-m.main+fp/hard\libc_nano.a(lib_a-stdio.o)
__sf_fake_stderr                                  c:/nxp/mcuxpressoide_11.5.1_7266/ide/plugins/com.nxp.mcuxpresso.tools.win32_11.5.1.202201181444/tools/bin/../lib/gcc/arm-none-eabi/10.3.1/../../../../arm-none-eabi/lib/thumb/v8-m.main+fp/hard\libc_nano.a(lib_a-findfp.o)
                                                  c:/nxp/mcuxpressoide_11.5.1_7266/ide/plugins/com.nxp.mcuxpresso.tools.win32_11.5.1.202201181444/tools/bin/../lib/gcc/arm-none-eabi/10.3.1/../../../../arm-none-eabi/lib/thumb/v8-m.main+fp/hard\libc_nano.a(lib_a-fflush.o)
                                                  c:/nxp/mcuxpressoide_11.5.1_7266/ide/plugins/com.nxp.mcuxpresso.tools.win32_11.5.1.202201181444/tools/bin/../lib/gcc/arm-none-eabi/10.3.1/../../../../arm-none-eabi/lib/thumb/v8-m.main+fp/hard\libc_nano.a(lib_a-wsetup.o)
                                                  c:/nxp/mcuxpressoide_11.5.1_7266/ide/plugins/com.nxp.mcuxpresso.tools.win32_11.5.1.202201181444/tools/bin/../lib/gcc/arm-none-eabi/10.3.1/../../../../arm-none-eabi/lib/thumb/v8-m.main+fp/hard\libc_nano.a(lib_a-wbuf.o)
                                                  c:/nxp/mcuxpressoide_11.5.1_7266/ide/plugins/com.nxp.mcuxpresso.tools.win32_11.5.1.202201181444/tools/bin/../lib/gcc/arm-none-eabi/10.3.1/../../../../arm-none-eabi/lib/thumb/v8-m.main+fp/hard\libc_nano.a(lib_a-nano-vfprintf.o)
                                                  c:/nxp/mcuxpressoide_11.5.1_7266/ide/plugins/com.nxp.mcuxpresso.tools.win32_11.5.1.202201181444/tools/bin/../lib/gcc/arm-none-eabi/10.3.1/../../../../arm-none-eabi/lib/thumb/v8-m.main+fp/hard\libc_nano.a(lib_a-impure.o)
__sf_fake_stdin                                   c:/nxp/mcuxpressoide_11.5.1_7266/ide/plugins/com.nxp.mcuxpresso.tools.win32_11.5.1.202201181444/tools/bin/../lib/gcc/arm-none-eabi/10.3.1/../../../../arm-none-eabi/lib/thumb/v8-m.main+fp/hard\libc_nano.a(lib_a-findfp.o)
                                                  c:/nxp/mcuxpressoide_11.5.1_7266/ide/plugins/com.nxp.mcuxpresso.tools.win32_11.5.1.202201181444/tools/bin/../lib/gcc/arm-none-eabi/10.3.1/../../../../arm-none-eabi/lib/thumb/v8-m.main+fp/hard\libc_nano.a(lib_a-fflush.o)
                                                  c:/nxp/mcuxpressoide_11.5.1_7266/ide/plugins/com.nxp.mcuxpresso.tools.win32_11.5.1.202201181444/tools/bin/../lib/gcc/arm-none-eabi/10.3.1/../../../../arm-none-eabi/lib/thumb/v8-m.main+fp/hard\libc_nano.a(lib_a-wsetup.o)
                                                  c:/nxp/mcuxpressoide_11.5.1_7266/ide/plugins/com.nxp.mcuxpresso.tools.win32_11.5.1.202201181444/tools/bin/../lib/gcc/arm-none-eabi/10.3.1/../../../../arm-none-eabi/lib/thumb/v8-m.main+fp/hard\libc_nano.a(lib_a-wbuf.o)
                                                  c:/nxp/mcuxpressoide_11.5.1_7266/ide/plugins/com.nxp.mcuxpresso.tools.win32_11.5.1.202201181444/tools/bin/../lib/gcc/arm-none-eabi/10.3.1/../../../../arm-none-eabi/lib/thumb/v8-m.main+fp/hard\libc_nano.a(lib_a-nano-vfprintf.o)
                                                  c:/nxp/mcuxpressoide_11.5.1_7266/ide/plugins/com.nxp.mcuxpresso.tools.win32_11.5.1.202201181444/tools/bin/../lib/gcc/arm-none-eabi/10.3.1/../../../../arm-none-eabi/lib/thumb/v8-m.main+fp/hard\libc_nano.a(lib_a-impure.o)
__sf_fake_stdout                                  c:/nxp/mcuxpressoide_11.5.1_7266/ide/plugins/com.nxp.mcuxpresso.tools.win32_11.5.1.202201181444/tools/bin/../lib/gcc/arm-none-eabi/10.3.1/../../../../arm-none-eabi/lib/thumb/v8-m.main+fp/hard\libc_nano.a(lib_a-findfp.o)
                                                  c:/nxp/mcuxpressoide_11.5.1_7266/ide/plugins/com.nxp.mcuxpresso.tools.win32_11.5.1.202201181444/tools/bin/../lib/gcc/arm-none-eabi/10.3.1/../../../../arm-none-eabi/lib/thumb/v8-m.main+fp/hard\libc_nano.a(lib_a-fflush.o)
                                                  c:/nxp/mcuxpressoide_11.5.1_7266/ide/plugins/com.nxp.mcuxpresso.tools.win32_11.5.1.202201181444/tools/bin/../lib/gcc/arm-none-eabi/10.3.1/../../../../arm-none-eabi/lib/thumb/v8-m.main+fp/hard\libc_nano.a(lib_a-wsetup.o)
                                                  c:/nxp/mcuxpressoide_11.5.1_7266/ide/plugins/com.nxp.mcuxpresso.tools.win32_11.5.1.202201181444/tools/bin/../lib/gcc/arm-none-eabi/10.3.1/../../../../arm-none-eabi/lib/thumb/v8-m.main+fp/hard\libc_nano.a(lib_a-wbuf.o)
                                                  c:/nxp/mcuxpressoide_11.5.1_7266/ide/plugins/com.nxp.mcuxpresso.tools.win32_11.5.1.202201181444/tools/bin/../lib/gcc/arm-none-eabi/10.3.1/../../../../arm-none-eabi/lib/thumb/v8-m.main+fp/hard\libc_nano.a(lib_a-nano-vfprintf.o)
                                                  c:/nxp/mcuxpressoide_11.5.1_7266/ide/plugins/com.nxp.mcuxpresso.tools.win32_11.5.1.202201181444/tools/bin/../lib/gcc/arm-none-eabi/10.3.1/../../../../arm-none-eabi/lib/thumb/v8-m.main+fp/hard\libc_nano.a(lib_a-impure.o)
__sflush_r                                        c:/nxp/mcuxpressoide_11.5.1_7266/ide/plugins/com.nxp.mcuxpresso.tools.win32_11.5.1.202201181444/tools/bin/../lib/gcc/arm-none-eabi/10.3.1/../../../../arm-none-eabi/lib/thumb/v8-m.main+fp/hard\libc_nano.a(lib_a-fflush.o)
__sfmoreglue                                      c:/nxp/mcuxpressoide_11.5.1_7266/ide/plugins/com.nxp.mcuxpresso.tools.win32_11.5.1.202201181444/tools/bin/../lib/gcc/arm-none-eabi/10.3.1/../../../../arm-none-eabi/lib/thumb/v8-m.main+fp/hard\libc_nano.a(lib_a-findfp.o)
__sfp                                             c:/nxp/mcuxpressoide_11.5.1_7266/ide/plugins/com.nxp.mcuxpresso.tools.win32_11.5.1.202201181444/tools/bin/../lib/gcc/arm-none-eabi/10.3.1/../../../../arm-none-eabi/lib/thumb/v8-m.main+fp/hard\libc_nano.a(lib_a-findfp.o)
__sfp_lock_acquire                                c:/nxp/mcuxpressoide_11.5.1_7266/ide/plugins/com.nxp.mcuxpresso.tools.win32_11.5.1.202201181444/tools/bin/../lib/gcc/arm-none-eabi/10.3.1/../../../../arm-none-eabi/lib/thumb/v8-m.main+fp/hard\libc_nano.a(lib_a-findfp.o)
__sfp_lock_release                                c:/nxp/mcuxpressoide_11.5.1_7266/ide/plugins/com.nxp.mcuxpresso.tools.win32_11.5.1.202201181444/tools/bin/../lib/gcc/arm-none-eabi/10.3.1/../../../../arm-none-eabi/lib/thumb/v8-m.main+fp/hard\libc_nano.a(lib_a-findfp.o)
__sfputs_r                                        c:/nxp/mcuxpressoide_11.5.1_7266/ide/plugins/com.nxp.mcuxpresso.tools.win32_11.5.1.202201181444/tools/bin/../lib/gcc/arm-none-eabi/10.3.1/../../../../arm-none-eabi/lib/thumb/v8-m.main+fp/hard\libc_nano.a(lib_a-nano-vfprintf.o)
__sfvwrite_r                                      c:/nxp/mcuxpressoide_11.5.1_7266/ide/plugins/com.nxp.mcuxpresso.tools.win32_11.5.1.202201181444/tools/bin/../lib/gcc/arm-none-eabi/10.3.1/../../../../arm-none-eabi/lib/thumb/v8-m.main+fp/hard\libc_nano.a(lib_a-fvwrite.o)
                                                  c:/nxp/mcuxpressoide_11.5.1_7266/ide/plugins/com.nxp.mcuxpresso.tools.win32_11.5.1.202201181444/tools/bin/../lib/gcc/arm-none-eabi/10.3.1/../../../../arm-none-eabi/lib/thumb/v8-m.main+fp/hard\libc_nano.a(lib_a-nano-vfprintf.o)
__sigtramp                                        c:/nxp/mcuxpressoide_11.5.1_7266/ide/plugins/com.nxp.mcuxpresso.tools.win32_11.5.1.202201181444/tools/bin/../lib/gcc/arm-none-eabi/10.3.1/../../../../arm-none-eabi/lib/thumb/v8-m.main+fp/hard\libc_nano.a(lib_a-signal.o)
__sigtramp_r                                      c:/nxp/mcuxpressoide_11.5.1_7266/ide/plugins/com.nxp.mcuxpresso.tools.win32_11.5.1.202201181444/tools/bin/../lib/gcc/arm-none-eabi/10.3.1/../../../../arm-none-eabi/lib/thumb/v8-m.main+fp/hard\libc_nano.a(lib_a-signal.o)
__sinit                                           c:/nxp/mcuxpressoide_11.5.1_7266/ide/plugins/com.nxp.mcuxpresso.tools.win32_11.5.1.202201181444/tools/bin/../lib/gcc/arm-none-eabi/10.3.1/../../../../arm-none-eabi/lib/thumb/v8-m.main+fp/hard\libc_nano.a(lib_a-findfp.o)
                                                  c:/nxp/mcuxpressoide_11.5.1_7266/ide/plugins/com.nxp.mcuxpresso.tools.win32_11.5.1.202201181444/tools/bin/../lib/gcc/arm-none-eabi/10.3.1/../../../../arm-none-eabi/lib/thumb/v8-m.main+fp/hard\libc_nano.a(lib_a-fflush.o)
                                                  c:/nxp/mcuxpressoide_11.5.1_7266/ide/plugins/com.nxp.mcuxpresso.tools.win32_11.5.1.202201181444/tools/bin/../lib/gcc/arm-none-eabi/10.3.1/../../../../arm-none-eabi/lib/thumb/v8-m.main+fp/hard\libc_nano.a(lib_a-wsetup.o)
                                                  c:/nxp/mcuxpressoide_11.5.1_7266/ide/plugins/com.nxp.mcuxpresso.tools.win32_11.5.1.202201181444/tools/bin/../lib/gcc/arm-none-eabi/10.3.1/../../../../arm-none-eabi/lib/thumb/v8-m.main+fp/hard\libc_nano.a(lib_a-wbuf.o)
                                                  c:/nxp/mcuxpressoide_11.5.1_7266/ide/plugins/com.nxp.mcuxpresso.tools.win32_11.5.1.202201181444/tools/bin/../lib/gcc/arm-none-eabi/10.3.1/../../../../arm-none-eabi/lib/thumb/v8-m.main+fp/hard\libc_nano.a(lib_a-nano-vfprintf.o)
__sinit_lock_acquire                              c:/nxp/mcuxpressoide_11.5.1_7266/ide/plugins/com.nxp.mcuxpresso.tools.win32_11.5.1.202201181444/tools/bin/../lib/gcc/arm-none-eabi/10.3.1/../../../../arm-none-eabi/lib/thumb/v8-m.main+fp/hard\libc_nano.a(lib_a-findfp.o)
__sinit_lock_release                              c:/nxp/mcuxpressoide_11.5.1_7266/ide/plugins/com.nxp.mcuxpresso.tools.win32_11.5.1.202201181444/tools/bin/../lib/gcc/arm-none-eabi/10.3.1/../../../../arm-none-eabi/lib/thumb/v8-m.main+fp/hard\libc_nano.a(lib_a-findfp.o)
__smakebuf_r                                      c:/nxp/mcuxpressoide_11.5.1_7266/ide/plugins/com.nxp.mcuxpresso.tools.win32_11.5.1.202201181444/tools/bin/../lib/gcc/arm-none-eabi/10.3.1/../../../../arm-none-eabi/lib/thumb/v8-m.main+fp/hard\libc_nano.a(lib_a-makebuf.o)
                                                  c:/nxp/mcuxpressoide_11.5.1_7266/ide/plugins/com.nxp.mcuxpresso.tools.win32_11.5.1.202201181444/tools/bin/../lib/gcc/arm-none-eabi/10.3.1/../../../../arm-none-eabi/lib/thumb/v8-m.main+fp/hard\libc_nano.a(lib_a-wsetup.o)
__sprint_r                                        c:/nxp/mcuxpressoide_11.5.1_7266/ide/plugins/com.nxp.mcuxpresso.tools.win32_11.5.1.202201181444/tools/bin/../lib/gcc/arm-none-eabi/10.3.1/../../../../arm-none-eabi/lib/thumb/v8-m.main+fp/hard\libc_nano.a(lib_a-nano-vfprintf.o)
__sread                                           c:/nxp/mcuxpressoide_11.5.1_7266/ide/plugins/com.nxp.mcuxpresso.tools.win32_11.5.1.202201181444/tools/bin/../lib/gcc/arm-none-eabi/10.3.1/../../../../arm-none-eabi/lib/thumb/v8-m.main+fp/hard\libc_nano.a(lib_a-stdio.o)
                                                  c:/nxp/mcuxpressoide_11.5.1_7266/ide/plugins/com.nxp.mcuxpresso.tools.win32_11.5.1.202201181444/tools/bin/../lib/gcc/arm-none-eabi/10.3.1/../../../../arm-none-eabi/lib/thumb/v8-m.main+fp/hard\libc_nano.a(lib_a-findfp.o)
__sseek                                           c:/nxp/mcuxpressoide_11.5.1_7266/ide/plugins/com.nxp.mcuxpresso.tools.win32_11.5.1.202201181444/tools/bin/../lib/gcc/arm-none-eabi/10.3.1/../../../../arm-none-eabi/lib/thumb/v8-m.main+fp/hard\libc_nano.a(lib_a-stdio.o)
                                                  c:/nxp/mcuxpressoide_11.5.1_7266/ide/plugins/com.nxp.mcuxpresso.tools.win32_11.5.1.202201181444/tools/bin/../lib/gcc/arm-none-eabi/10.3.1/../../../../arm-none-eabi/lib/thumb/v8-m.main+fp/hard\libc_nano.a(lib_a-findfp.o)
__stack                                           c:/nxp/mcuxpressoide_11.5.1_7266/ide/plugins/com.nxp.mcuxpresso.tools.win32_11.5.1.202201181444/tools/bin/../lib/gcc/arm-none-eabi/10.3.1/../../../../arm-none-eabi/lib/thumb/v8-m.main+fp/hard/crt0.o
__swbuf                                           c:/nxp/mcuxpressoide_11.5.1_7266/ide/plugins/com.nxp.mcuxpresso.tools.win32_11.5.1.202201181444/tools/bin/../lib/gcc/arm-none-eabi/10.3.1/../../../../arm-none-eabi/lib/thumb/v8-m.main+fp/hard\libc_nano.a(lib_a-wbuf.o)
__swbuf_r                                         c:/nxp/mcuxpressoide_11.5.1_7266/ide/plugins/com.nxp.mcuxpresso.tools.win32_11.5.1.202201181444/tools/bin/../lib/gcc/arm-none-eabi/10.3.1/../../../../arm-none-eabi/lib/thumb/v8-m.main+fp/hard\libc_nano.a(lib_a-wbuf.o)
                                                  c:/nxp/mcuxpressoide_11.5.1_7266/ide/plugins/com.nxp.mcuxpresso.tools.win32_11.5.1.202201181444/tools/bin/../lib/gcc/arm-none-eabi/10.3.1/../../../../arm-none-eabi/lib/thumb/v8-m.main+fp/hard\libc_nano.a(lib_a-nano-vfprintf.o)
__swhatbuf_r                                      c:/nxp/mcuxpressoide_11.5.1_7266/ide/plugins/com.nxp.mcuxpresso.tools.win32_11.5.1.202201181444/tools/bin/../lib/gcc/arm-none-eabi/10.3.1/../../../../arm-none-eabi/lib/thumb/v8-m.main+fp/hard\libc_nano.a(lib_a-makebuf.o)
__swrite                                          c:/nxp/mcuxpressoide_11.5.1_7266/ide/plugins/com.nxp.mcuxpresso.tools.win32_11.5.1.202201181444/tools/bin/../lib/gcc/arm-none-eabi/10.3.1/../../../../arm-none-eabi/lib/thumb/v8-m.main+fp/hard\libc_nano.a(lib_a-stdio.o)
                                                  c:/nxp/mcuxpressoide_11.5.1_7266/ide/plugins/com.nxp.mcuxpresso.tools.win32_11.5.1.202201181444/tools/bin/../lib/gcc/arm-none-eabi/10.3.1/../../../../arm-none-eabi/lib/thumb/v8-m.main+fp/hard\libc_nano.a(lib_a-findfp.o)
__swsetup_r                                       c:/nxp/mcuxpressoide_11.5.1_7266/ide/plugins/com.nxp.mcuxpresso.tools.win32_11.5.1.202201181444/tools/bin/../lib/gcc/arm-none-eabi/10.3.1/../../../../arm-none-eabi/lib/thumb/v8-m.main+fp/hard\libc_nano.a(lib_a-wsetup.o)
                                                  c:/nxp/mcuxpressoide_11.5.1_7266/ide/plugins/com.nxp.mcuxpresso.tools.win32_11.5.1.202201181444/tools/bin/../lib/gcc/arm-none-eabi/10.3.1/../../../../arm-none-eabi/lib/thumb/v8-m.main+fp/hard\libc_nano.a(lib_a-fvwrite.o)
                                                  c:/nxp/mcuxpressoide_11.5.1_7266/ide/plugins/com.nxp.mcuxpresso.tools.win32_11.5.1.202201181444/tools/bin/../lib/gcc/arm-none-eabi/10.3.1/../../../../arm-none-eabi/lib/thumb/v8-m.main+fp/hard\libc_nano.a(lib_a-wbuf.o)
                                                  c:/nxp/mcuxpressoide_11.5.1_7266/ide/plugins/com.nxp.mcuxpresso.tools.win32_11.5.1.202201181444/tools/bin/../lib/gcc/arm-none-eabi/10.3.1/../../../../arm-none-eabi/lib/thumb/v8-m.main+fp/hard\libc_nano.a(lib_a-nano-vfprintf.o)
_cleanup                                          c:/nxp/mcuxpressoide_11.5.1_7266/ide/plugins/com.nxp.mcuxpresso.tools.win32_11.5.1.202201181444/tools/bin/../lib/gcc/arm-none-eabi/10.3.1/../../../../arm-none-eabi/lib/thumb/v8-m.main+fp/hard\libc_nano.a(lib_a-findfp.o)
_cleanup_r                                        c:/nxp/mcuxpressoide_11.5.1_7266/ide/plugins/com.nxp.mcuxpresso.tools.win32_11.5.1.202201181444/tools/bin/../lib/gcc/arm-none-eabi/10.3.1/../../../../arm-none-eabi/lib/thumb/v8-m.main+fp/hard\libc_nano.a(lib_a-findfp.o)
                                                  c:/nxp/mcuxpressoide_11.5.1_7266/ide/plugins/com.nxp.mcuxpresso.tools.win32_11.5.1.202201181444/tools/bin/../lib/gcc/arm-none-eabi/10.3.1/../../../../arm-none-eabi/lib/thumb/v8-m.main+fp/hard\libc_nano.a(lib_a-makebuf.o)
_close                                            c:/nxp/mcuxpressoide_11.5.1_7266/ide/plugins/com.nxp.mcuxpresso.tools.win32_11.5.1.202201181444/tools/bin/../lib/gcc/arm-none-eabi/10.3.1/../../../../arm-none-eabi/lib/thumb/v8-m.main+fp/hard\libnosys.a(close.o)
                                                  c:/nxp/mcuxpressoide_11.5.1_7266/ide/plugins/com.nxp.mcuxpresso.tools.win32_11.5.1.202201181444/tools/bin/../lib/gcc/arm-none-eabi/10.3.1/../../../../arm-none-eabi/lib/thumb/v8-m.main+fp/hard\libc_nano.a(lib_a-closer.o)
_close_r                                          c:/nxp/mcuxpressoide_11.5.1_7266/ide/plugins/com.nxp.mcuxpresso.tools.win32_11.5.1.202201181444/tools/bin/../lib/gcc/arm-none-eabi/10.3.1/../../../../arm-none-eabi/lib/thumb/v8-m.main+fp/hard\libc_nano.a(lib_a-closer.o)
                                                  c:/nxp/mcuxpressoide_11.5.1_7266/ide/plugins/com.nxp.mcuxpresso.tools.win32_11.5.1.202201181444/tools/bin/../lib/gcc/arm-none-eabi/10.3.1/../../../../arm-none-eabi/lib/thumb/v8-m.main+fp/hard\libc_nano.a(lib_a-stdio.o)
_exit                                             c:/nxp/mcuxpressoide_11.5.1_7266/ide/plugins/com.nxp.mcuxpresso.tools.win32_11.5.1.202201181444/tools/bin/../lib/gcc/arm-none-eabi/10.3.1/../../../../arm-none-eabi/lib/thumb/v8-m.main+fp/hard\libnosys.a(_exit.o)
                                                  c:/nxp/mcuxpressoide_11.5.1_7266/ide/plugins/com.nxp.mcuxpresso.tools.win32_11.5.1.202201181444/tools/bin/../lib/gcc/arm-none-eabi/10.3.1/../../../../arm-none-eabi/lib/thumb/v8-m.main+fp/hard\libc_nano.a(lib_a-abort.o)
                                                  c:/nxp/mcuxpressoide_11.5.1_7266/ide/plugins/com.nxp.mcuxpresso.tools.win32_11.5.1.202201181444/tools/bin/../lib/gcc/arm-none-eabi/10.3.1/../../../../arm-none-eabi/lib/thumb/v8-m.main+fp/hard\libc_nano.a(lib_a-exit.o)
_fflush_r                                         c:/nxp/mcuxpressoide_11.5.1_7266/ide/plugins/com.nxp.mcuxpresso.tools.win32_11.5.1.202201181444/tools/bin/../lib/gcc/arm-none-eabi/10.3.1/../../../../arm-none-eabi/lib/thumb/v8-m.main+fp/hard\libc_nano.a(lib_a-fflush.o)
                                                  c:/nxp/mcuxpressoide_11.5.1_7266/ide/plugins/com.nxp.mcuxpresso.tools.win32_11.5.1.202201181444/tools/bin/../lib/gcc/arm-none-eabi/10.3.1/../../../../arm-none-eabi/lib/thumb/v8-m.main+fp/hard\libc_nano.a(lib_a-fvwrite.o)
                                                  c:/nxp/mcuxpressoide_11.5.1_7266/ide/plugins/com.nxp.mcuxpresso.tools.win32_11.5.1.202201181444/tools/bin/../lib/gcc/arm-none-eabi/10.3.1/../../../../arm-none-eabi/lib/thumb/v8-m.main+fp/hard\libc_nano.a(lib_a-findfp.o)
                                                  c:/nxp/mcuxpressoide_11.5.1_7266/ide/plugins/com.nxp.mcuxpresso.tools.win32_11.5.1.202201181444/tools/bin/../lib/gcc/arm-none-eabi/10.3.1/../../../../arm-none-eabi/lib/thumb/v8-m.main+fp/hard\libc_nano.a(lib_a-wbuf.o)
_fini                                             c:/nxp/mcuxpressoide_11.5.1_7266/ide/plugins/com.nxp.mcuxpresso.tools.win32_11.5.1.202201181444/tools/bin/../lib/gcc/arm-none-eabi/10.3.1/thumb/v8-m.main+fp/hard/crti.o
_fiprintf_r                                       c:/nxp/mcuxpressoide_11.5.1_7266/ide/plugins/com.nxp.mcuxpresso.tools.win32_11.5.1.202201181444/tools/bin/../lib/gcc/arm-none-eabi/10.3.1/../../../../arm-none-eabi/lib/thumb/v8-m.main+fp/hard\libc_nano.a(lib_a-fprintf.o)
_fprintf_r                                        c:/nxp/mcuxpressoide_11.5.1_7266/ide/plugins/com.nxp.mcuxpresso.tools.win32_11.5.1.202201181444/tools/bin/../lib/gcc/arm-none-eabi/10.3.1/../../../../arm-none-eabi/lib/thumb/v8-m.main+fp/hard\libc_nano.a(lib_a-fprintf.o)
