:1000000000000320BD0200003D030000410300008A
:1000100039030000390300003903000039030000F0
:100020000000000000000000000000004503000088
:10003000390300000000000049030000991200008D
:100040005103000055030000590300005D03000048
:100050006103000065030000690300006D030000F8
:100060007103000075030000790300007D030000A8
:100070008103000085030000890300008D03000058
:100080009103000095030000990300009D03000008
:10009000A1030000A5030000A9030000AD030000B8
:1000A000B1030000B5030000B9030000BD03000068
:1000B0008D120000C5030000C9030000CD0300003D
:1000C000D1030000D5030000D9030000DD030000C8
:1000D000E1030000E5030000E9030000ED03000078
:1000E000F1030000F5030000F9030000FD03000028
:1000F0000104000005040000090400009312000040
:100100001104000015040000190400001D04000083
:100110002104000025040000290400002D04000033
:100120003104000035040000390400003D040000E3
:1002000010B5054C237833B9044B13B1044800E012
:1002100000BF0123237010BD8800002000000000F3
:10022000C836000008B5034B1BB10349034800E082
:1002300000BF08BD000000008C000020C836000090
:10024000A3F5803A704700BF174B002B08BF134B34
:100250009D46FFF7F5FF00218B460F461348144AD1
:10026000121A01F03DFF0E4B002B00D098470D4BAA
:10027000002B00D098470020002104000D000D48FD
:10028000002802D00C4800E000BF01F005FF20006C
:10029000290001F033F801F0D9FE00BF000008008A
:1002A0000000000000000000000003208800002083
:1002B00018020020000000000000000072B6134881
:1002C000134901600A6882F30888124880F30A889B
:1002D000114880471149124A124B9A42BEBF51F849
:1002E000040B42F8040BF8E700200F490F4A914233
:1002F000BCBF41F8040BFAE706490D4A9142BCBF66
:1003000041F8040BFAE762B60A48804708ED00E0BE
:100310000000000000F80220B9100000F0360000D4
:10032000000000208800002018020020180600208D
:100330000000032049020000FFF7FEBF40480047CD
:100340004048004740480047404800474048004771
:100350004048004740480047404800474048004761
:100360004048004740480047404800474048004751
:100370004048004740480047404800474048004741
:100380004048004740480047404800474048004731
:100390004048004740480047404800474048004721
:1003A0004048004740480047404800474048004711
:1003B0004048004740480047404800474048004701
:1003C00040480047404800474048004740480047F1
:1003D00040480047404800474048004740480047E1
:1003E00040480047404800474048004740480047D1
:1003F00040480047404800474048004740480047C1
:1004000040480047404800474048004740480047B0
:1004100040480047404800474048004740480047A0
:100420004048004740480047404800474048004790
:100430004048004740480047404800474048004780
:100440003D03000041030000450300004903000094
:10045000991200003903000039030000390300003D
:10046000390300003903000039030000390300009C
:10047000390300003903000039030000390300008C
:10048000390300005112000039030000011100007F
:1004900025110000491100006D11000091110000AC
:1004A000B5110000D911000001120000390300004D
:1004B000390300003903000039030000390300004C
:1004C000390300003903000039030000390300003C
:1004D000390300003903000039030000390300002C
:1004E000390300003903000039030000390300001C
:1004F000390300003903000039030000390300000C
:1005000039030000390300003903000039030000FB
:1005100039030000390300003903000039030000EB
:1005200039030000390300003903000039030000DB
:1005300039030000390300003903000039030000CB
:1005400029120000034613F8012B002AFBD1181AC8
:1005500001387047084B03EBC00090F90530002BC1
:1005600008DB0122590903F01F0302FA03F3034ACF
:1005700042F82130704700BF0035000000E100E084
:1005800010B5184C04EBC00004791748CCB9402BC7
:1005900028BF402350F8314062F30F0440F8314047
:1005A00050F8312063F3194240F8312000EBC102CA
:1005B000A2F8643050F8313043F0004340F8313055
:1005C00010BD47F6FF74A34228BF234650F83140C0
:1005D00062F30A0440F8314050F8312063F3D92225
:1005E000E2E700BF0035000000001040C0F30B033D
:1005F00043B1DAB21B0A9200013B02F18042DBB246
:10060000C2F86032030B08D0DBB2000D9B0001384A
:1006100003F18043C0B2C3F8600270470122030AAD
:10062000C0B202FA00F04FF08042883342F8230053
:1006300070470000094B63B1094B1B78834206D910
:10064000084B00EB40001B6803EBC0007047C01A6A
:10065000C0B20028044818BF002070470000000006
:10066000A8000020A400002010350000CB6802493B
:100670000B610121184700BFAC0000200D4B1A7818
:1006800010B11046FFF766BF0B4B03EBC20393F9A3
:100690000530002B0DDB01215A0903F01F0301FA7D
:1006A00003F30649203241F82230BFF34F8FBFF3E6
:1006B0006F8F70471C0000200035000000E100E053
:1006C00070B505460024144EE0B2FFF7B3FF38B909
:1006D0004FF0E023D3F8F03DDB0700D500BE70BD3E
:1006E00043682846984701343278E3B29A42EBD205
:1006F0000A4C2B220021204601F0F2FC1022FF219F
:10070000E01C01F0EDFC4FF0FF33C4F81330C4F8E7
:100710001730C4F81B30E2E7A800002008010020D1
:100720004FF480720021014801F0DABC0001104052
:100730000020FFF7F5BF0000F8B5224C134600F08B
:100740007F0204EB420404EBD014E27F183412F071
:10075000010605464FEAD01709D04FF0E023D3F841
:10076000F00D10F0010001D000BE0020F8BD164AC7
:1007700005F00F051078E27907EB450542F001021C
:10078000E271124A05F10C0702EBC70C42F8376020
:10079000CCF8046022F837308A060DD04FF0E02202
:1007A000D2F8F04D14F0010409D000BE32462946BB
:1007B000FFF7E6FE0120D9E7C1F38F12F7E72246E3
:1007C000F5E700BF080100201C00002000001040D9
:1007D0002DE9F84F4B79032B03D000242046BDE8C8
:1007E000F88F0C79C4EBC4041234A4B2A24207D22D
:1007F0004FF0E023D3F8F03DDA07EED500BEECE78A
:10080000544A92F80151002DF2D10B78C81846785D
:10081000212EEDD1AC464FF00109C2F8C001CB5CEE
:1008200091F804E0DFF83C811844754525DB8B79AD
:10083000012B02D1CB7982F80331012382F80431F4
:100840008B78D2F8C01182F80031087ACB7943EA6C
:10085000002392F80201A2F806310028BED04022FF
:100860003D49FFF769FF0028B8D14FF0E023D3F8E6
:10087000F03DDB07B2D500BEB0E74378052B04D1CD
:10088000C67806F00303032B07D04FF0E023D3F81C
:10089000F03DD907ACD500BEAAE7304B93F800A0D5
:1008A000837803F07F07052F02D94FF0E02313E090
:1008B0002B4FBF78022F0CBF4FF4806B4FF0400BD3
:1008C0008788C7F30A075F450CD94FF0E023D3F8B8
:1008D000F02DD20700D500BED3F8F03DDB07D4D50C
:1008E00000BED2E706F00306012ECED003F00F06BD
:1008F000DB0903EB460352F833607700D5D502EBF2
:10090000C30676687600D0D502EBC30642F833C042
:10091000C6F804C0C67806F00306771E7E427E4104
:1009200052F8337066F39A6758F83A6042F83370B9
:10093000776A09FA03F33B4373628378DE0905D0D3
:1009400082F801310378013518446EE782F80231EC
:10095000F8E700BF00001040800110401C0000209C
:100960000801002000350000002210F0800F114621
:100970000CBF80201046FFF7DFBE000010B4034616
:10098000064C00682246596803C20022C4E90222CC
:100990005DF8044B1878FFF7E7BF00BFAC000020FC
:1009A000012281B28A404FF6E071084208B54FEA51
:1009B000104305D030210B4B0B4A0C4801F028FBAB
:1009C0009B0003F18043C3F82021D3F800110A42B1
:1009D000FBD0C3F84021D3F8001132EA0101FAD06C
:1009E00008BD00BF30310000D13300003D310000B0
:1009F00008B503460020074A52F8041B994208D064
:100A000001300928F8D16A21034B044A044801F057
:100A1000FFFA08BD88350000CC310000E834000042
:100A2000F931000038B5C589028AADB292B2AA4246
:100A3000A5EB020388BF42899BB288BF9B1A8288BC
:100A400088BF9BB29A42044619D1007AB8B938BD22
:100A50009B1A9BB29342FBD2E288206802FB030000
:100A600002F02AF96B1C9BB29D4202D8A2899A42DD
:100A700002D2628913449BB20120E381E7E72B464F
:100A8000E8E700002DE9F04FDFF8C092064659F87C
:100A9000305087B0D5F800802F6A6B6A1F40002F56
:100AA0002F6200F00181A34C80F2AA802B6818F01D
:100AB000806F43F0E0632B6051D04FF480720021CF
:100AC000204601F00DFB022304EBC3014A6842F00B
:100AD00080424A6054F8332042F0804244F8332088
:100AE00001330C2BF0D109EBC6031A79924B9B0909
:100AF000002A40F0DC8061689BB263F30F01616003
:100B000000234FF0FF31AB61EB616961296A022A72
:100B10002962296841F4807129608849696240F03E
:100B2000CA80C8F38153022B18BF00220023CDE9ED
:100B30000333059301238DF80D30814B03A9186809
:100B40008DF80C6004308DF81020FFF76BFF30B982
:100B50004FF0E023D3F8F03DD80700D500BE18F0E1
:100B6000807F27D018F07F0F24D000220223CDE908
:100B700003228DF80D30734B059219788DF80C60B7
:100B800062F300011970197862F3410119705A700B
:100B9000197862F382011970694B03A9186804304F
:100BA000FFF740FF30B94FF0E023D3F8F03DD9070D
:100BB00000D500BE644B33EA080321D118F07F0F43
:100BC0001ED00023CDE90333059304238DF80D30A7
:100BD0005C4B8DF80C601A78D20711D51A7803A9EE
:100BE00042F004021A70564B18680430FFF71AFFDF
:100BF00030B94FF0E023D3F8F03DD80700D500BE60
:100C000017F0010F4FEAC60A3ED018F4807F3BD0A0
:100C1000A3686FF3DF73A36023686FF3DF73236050
:100C2000A3686FF35D73A36023686FF35D73236044
:100C30002B6843F480732B600023ADF80E3006233D
:100C40003D4D8DF80D3006AB95E803008DF80C6036
:100C500003E903003A4B03A918680430FFF7E2FEEA
:100C600030B94FF0E023D3F8F03DD90700D500BEEE
:100C700009EB0A031B79AD09FBB96368ADB265F3F3
:100C80000F03636027F001070025D144AA4699F8B5
:100C90000630DFF8A0805B00DBB2DFF8A4B0019380
:100CA000019BE9B299420CD307B0BDE8F08F6168AF
:100CB00063F30A0123E71A4638E7636865F30A031A
:100CC000DFE727FA05F3DA0728D501299EBF54F894
:100CD00035306FF3DF7344F8353099F8043054F849
:100CE0003520FBB954F8350092B2C0F30940B8F88A
:100CF00062C0B8F864309C441FFA8CFCACEB000373
:100D00009BB2A8F8623018BBB8F8600083421FD2CB
:100D1000A0EB0C039BB23046FFF732FC013508F123
:100D20000808BDE754F83500C2F30A02C0F3CE202C
:100D3000DDE700BF00001040C0001040030000804D
:100D400034010020080100200000020200350000EC
:100D500011F0010F4FF007000CBF00226FF07F026F
:100D6000CDE903AA8DF80D00DBF8000042EA51013D
:100D70008DF81010A8F8603003A904308DF80C60CD
:100D80000593FFF74FFE0028C8D14FF0E023D3F8BA
:100D9000F03DDB07C2D500BEC0E700BF37B5154D3B
:100DA000154B95F8014104F07F0203EB420303EB7E
:100DB000D413DA7F1833D20719D4DA79520716D44C
:100DC000DA79402942F00402DA710A4628BF40224B
:100DD000014605F5A070019201F06EFF2046019AD0
:100DE00005F5A07103B0BDE83040FFF7A5BC03B026
:100DF00030BD00BF000010400801002010B51A4CA3
:100E000094F8022194F801018A420BD0884221D142
:100E1000164A0AB9012010BD002015499AB200E017
:100E200000BFF7E79042F3D099B204F5C070FFF726
:100E3000B5FF402294F8020104F5C071FFF77CFC75
:100E40000028E7D14FF0E023D3F8F03DDA0708D5CA
:100E500000BEE0E74FF0E023D3F8F03DDB0700D51C
:100E600000BE0020D7E700BF0000104000000000D7
:100E70004001104013B5124B9889D98993F900406D
:100E8000421A92B2402A28BF4022002C0EDA884231
:100E900012D099680B48019201F00EFF8020094999
:100EA000019A02B0BDE81040FFF746BC88424FF0FF
:100EB000000003D10021F4E78020FBE70149F0E7BF
:100EC000AC0000200002104070B50446164D0068CA
:100ED0002E460B466168AB6003C60021E981E188BC
:100EE0008A4228BF0A46AA81E18881B152B14BB932
:100EF0004FF0E022D2F8F02DD20701D4002070BDCF
:100F000000BEFBE7FFF7B6FF28B10120F7E7207826
:100F1000FFF72AFDF8E74FF0E023D3F8F03DDB07B9
:100F2000ECD500BEEBE700BFAC00002038B515469D
:100F300012780C4602F01F03012B02D00024204639
:100F400038BD544BA98893F80001C9B28842F5D145
:100F500012F060021ED0202AF0D16A78013A0A2AE3
:100F6000ECD801A151F822F0D10F00004F10000081
:100F7000591000003D0F00003D0F00003D0F000024
:100F80003D0F00003D0F0000ED0F00002B10000092
:100F900063100000012C01D00124D0E76A78062AF2
:100FA000CCD16A88120A212A09D1D3F8C0110029AC
:100FB000C4D02846BDE838400A78FFF785BF222A0A
:100FC000BCD1B3F8062134492846FFF77DFFB6E7C8
:100FD000012CE1D16A88D2B2002A51D0E9880129D6
:100FE0004ED983F840212D492246EDE7012C04D14A
:100FF000EA88402AA2D82A49E6E7032CCCD1E8881F
:101000006A884028D2B2014628BF40215AB101283F
:1010100009D993F88031934205D10139214889B229
:10102000FFF7BCFEB8E71E48FAE7012CB4D1698887
:10103000090A83F805111C4B2BB1002000E000BF0A
:1010400000283FF47BAF2846FFF798FCA4E7012C6B
:10105000A2D122461549B7E7012C9DD12246144959
:10106000B2E7012CEFD0032C96D16988C9B283F87E
:101070000411104B002B8FD0002000E000BF8BE745
:101080004FF0E023D3F8F03DDB077FF557AF00BE0C
:1010900054E700BF000010406335000040011040DD
:1010A0008001104081011040000000000501104047
:1010B00004011040000000000F4BD3F8882042F4D8
:1010C0007002C3F88820D3F8882042F00F02C3F8DA
:1010D0008820D3F88C2042F4406242F00302C3F827
:1010E0008C20064A9A604FF080430022C3F8082300
:1010F0007822C3F82022704700ED00E000000000D5
:1011000008B50448FFF774FCB721034B034A0448B1
:1011100000F07EFF0060084083320000CD34000004
:10112000F931000008B50448FFF762FCC521034B04
:10113000034A044800F06CFF00700840833200004E
:10114000B2340000F931000008B50448FFF750FC44
:10115000D321034B034A044800F05AFF00800840A3
:101160008332000097340000F931000008B50448CC
:10117000FFF73EFCE121034B034A044800F048FF1F
:1011800000900840833200007C340000F9310000F8
:1011900008B50448FFF72CFCEF21034B034A044831
:1011A00000F036FF00A008408332000061340000E8
:1011B000F931000008B50448FFF71AFCFE21034B83
:1011C000034A044800F024FF006009408332000015
:1011D00046340000F931000008B50548FFF708FC67
:1011E0004FF48671034B044A044800F011FF00BF1E
:1011F00000700940833200002B340000F9310000F8
:1012000008B50548FFF7F4FB4FF48D71034B044A12
:10121000044800F0FDFE00BF00800940833200005A
:10122000EA330000F931000008B50548FFF7E0FB9C
:101230004FF49471034B044A044800F0E9FE00BFE8
:1012400000F0094083320000B6330000F93100009D
:1012500010B50B48D0F8F43013F4004406D0002148
:10126000084A1170064AC2F8F43010BD5A04F9D584
:10127000054A11680131116012684460F2E700BF4D
:101280000050084000010020040100200020FFF76A
:10129000F9BB0120FFF7F6BB024A13680133136064
:1012A000704700BF0002002010B531B940F2FF11B5
:1012B0000D4B0E4A0E4800F0ABFE0E4BD3F8000E5D
:1012C000C00705D58818814204D199680907FCD563
:1012D000104610BDD3F8044EA406FBD511F8014BFF
:1012E000C3F8204EEFE700BFAA320000053400002B
:1012F000CE32000000600840002070472DE9804891
:101300004FF080444FF0006620274FF40053CC4943
:10131000CC4DC4F82032C1F8C870C4F84861C4F894
:101320002862C1F8C8702B69C74843F480432B6119
:101330008BB0FFF75BF9C4F84861C4F82862C1F8C4
:10134000C8702B6923432B614FF41F23D3F8E02C83
:10135000D3F8E40CD50742BF52080A614861D3F8BC
:10136000302DD3F8403DD40754BFB84A5208D807AF
:1013700054BFB64B5B089A4228BF1A46B44BB549D6
:101380009A42AF4B00F21282DA690A4042F4D84224
:1013900042F01602DA611A6922F4F01242F42022B5
:1013A0001A611F22AC4BC3F8E82FD3F8802022F03B
:1013B0000F0242F00802C3F8802002221A60D3F81C
:1013C000E02F5107FBD54FF080420026D2F80034C1
:1013D000A24823F4704343F40043C2F80034C2F837
:1013E0008063FFF703F99E4B9E4AE0211A604FF09D
:1013F000E0239D4A0E205A619C4A9D4D82F823109D
:1014000007229E611A61FFF709F90E20FFF7C8FA5B
:101410000F20FFF703F90F20FFF7C2FA4FF4807196
:101420000F20C5F89810FFF7F9F840230127914CD9
:101430000F20C4F80432636843F0400363608E4BAE
:1014400083F82670C5F8C810FFF7E8F863684FF412
:10145000457023F48023636040F201146C67AC672D
:1014600006ADFFF7C3F831461022284600F038FEDB
:101470004FF4E133ADF81C40804C059320468DF8C5
:101480001A70FFF7B5FA01467D4B33F81000FFF7ED
:10149000C5F87C4B53F82100FFF782FAD4F8F83FE7
:1014A000DA0653D5D4F8F83F1B0705D5D4F8F83F32
:1014B00003F00703BB4249D10123C4F8F83FD4F835
:1014C000003E43F00113C4F8003ED4F8083E23F474
:1014D0007063C4F8083ED4F8083EC4F8083ED4F857
:1014E000083E43F00103C4F8083ED4F8003E43F040
:1014F0000213C4F8003ED4F8083E23F47023C4F865
:10150000083ED4F8083EC4F8083ED4F8083E43F03C
:101510000203C4F8083E052323609DF81F20059BA5
:10152000002A00F050814FF41652B2FBF3F25343FD
:10153000B3F5165F0AD122629DF81E204F4B002A98
:1015400000F098815A6842F480725A6040F20712A3
:101550004FF480563A4C464B4B489A65C4F8C860E5
:10156000FFF71EFA4948FFF71BFA4948FFF718FA38
:101570004848FFF715FA4FF0804110204FF4002241
:10158000454BC1F828021A651A6D42F480321A657B
:101590004FF48073C1F84802C4F8C8304FF4801388
:1015A000C4F8C8304023C4F8C8308023C4F8C83019
:1015B0004FF48023C4F8C860C4F8C830374B049394
:1015C000049C631E0493002C40F058814FF080422D
:1015D0004FF00063C2F8283280234FF00041C2F878
:1015E00028322F4B20209963D3F8A010154E21F0FC
:1015F000E07141F0C071C3F8A0104FF40011C3F8BE
:10160000A4104FF48031C3F8A8104FF48051C3F8F0
:10161000A4104021C3F8A4109A635C60C2F8281299
:10162000C2F82802D2F8180A40F02000C2F8180ABE
:10163000306A40F400003062C2F828121A6B31E0C0
:10164000000002400030014008911000A07E2601F9
:10165000A0DF0101E083FFFF004003400894100079
:101660000000002000D8B805FF76010000ED00E082
:101670000010004000E0084000C008400060084042
:10168000AC350000C0350000040002000500020077
:10169000070002000600020000300A40A086010098
:1016A0000080034042F440421A634FF400221C6061
:1016B0005A634FF480125A63974B1B78FF2B26D145
:1016C0002B222146954800F00BFD954A1389548240
:1016D0005B009BB2591E5B42D381924B94821A608D
:1016E000914B118223B1914800E000BF904B1860EC
:1016F00000248E4EE0B2FEF79DFF002840F0C0802F
:101700004FF0E023D3F8F03DD80700D500BE824B60
:101710001B78FF2B00F03784824B00201C68236865
:101720009847628AA18A92B289B28A4238BFE08918
:10173000A2EB01039EB238BF331A208938BF9EB294
:10174000B0420CD2824204D3268A131A9BB29E4224
:1017500003D2E3890344D21A93B20646A382002E31
:1017600040F0B480A38A9AB216FA83F39BB29A42ED
:1017700002D8228A9A4202D2E28913449BB2A382FF
:10178000012023689847002E00F0FD839DF8153056
:10179000013B072B00F29683DFE813F0A300B100B2
:1017A000940314041D04E40076032604DA690A4055
:1017B00042F4984242F00E02DA611A6922F4F01201
:1017C00042F48022ECE533B94FF4AE71594B5A4ADA
:1017D0005A4800F01DFC2268170509D522685604F6
:1017E0007FF5AAAE564AB2FBF3F3013B2362A3E6B0
:1017F0004FF0FF300F26844634464FF00A08DFF8DA
:1018000060E1DFF83C911F01BEFBF7F10539B1F54E
:10181000202F04F101020ED2B1FBF8F101FB0222EC
:10182000B9FBF2F2934234BFD21A9A1A944582BF9E
:10183000084626469446013C072CA7EB0307E3D154
:10184000421C06FB02213E4AB2FBF1F264219342A4
:1018500034BFD21A9A1AB3FBF1F303EB430393425A
:10186000FFF474AEB0F5803FBFF470AE354B9E62AE
:10187000186261E65A6822F4807266E600BF9FE64D
:101880000368984701343278E3B29A42BFF432AF2A
:101890000120214B2C4A18702C4B9A60920D920516
:1018A000DA601A6A196A0A431A624FF000425A62F1
:1018B0001968274A0A431A604FF40042254BC3F8BF
:1018C0008421FEF747FE22E7091A89B28842FBD934
:1018D0006289636805A802FB013101F0EDF9012678
:1018E00040E79DF81400FEF7EBFE142200211A4891
:1018F00000F0F6FB9DF81820084B9A700CE79DF855
:101900001400FEF7DDFE14220021134800F0E8FB6E
:10191000FA22124B1A60FFE61C000020080100208A
:10192000040000203401002000000000A800002076
:10193000A40000205533000019340000CE3200000E
:10194000001BB70000600840000010400040094044
:101950008000010700E100E0AC0000202000002032
:10196000000E2707BB4C9DF818B02378DFF81093C2
:1019700043F001032370E37F0BF060026FF3000379
:10198000E377E37F602A6FF38203E37794F82030F4
:101990009DF814606FF3000384F8203094F8203031
:1019A0006FF3820384F820304FF00003C9F8103041
:1019B00010D14FF0E023D3F8F03DDC0700D500BE96
:1019C000A54B1A6842F000521A609A6842F0005221
:1019D0009A60A1E6402A0DD1A04B002BF0D02A46F8
:1019E00001213046C9F8103000E000BF00287FF424
:1019F00093AEE5E70BF01F0BBBF1010F00F09F81E9
:101A0000BBF1020F00F0C281BBF1000FD1D1202A3F
:101A10000FD19DF81C300F2BD2D82344D878FEF775
:101A200009FE01460028CBD02A463046FEF71EFEAE
:101A3000DCE7002ABDD19DF81920092AB9D801A1F7
:101A400051F822F0291D0000171D0000B3190000F5
:101A5000031D0000B31900006D1A0000CD1B00002B
:101A6000B3190000AF1A0000C31A0000002395E864
:101A700003007B4AC9E9000152F83670794AC9E986
:101A80000233C2E9003301211A4630469DF81A801C
:101A9000FEF776FD3B6823F07F033B603B6848EA36
:101AA00003033B60237843F00203237034E663783A
:101AB00001228DF80E3028460DF10E01FFF704FAD1
:101AC0002AE69DF81AA063789A455FD0637823B11F
:101AD000A7783046FEF7F4FDA770BAF1000F55D095
:101AE0004FF0010B2378DFF89C9123F03003237033
:101AF00099F80130042B13D04FF0E023D3F8F03DD8
:101B0000D9077FF556AF00BE53E743780B2B03BFD1
:101B1000037890F803B0C0184FF0010B8146E7E757
:101B20004FF00008504BA3EB090292B25FFA88F71E
:101B30003846FEF77FFD0028DED0836849463046F0
:101B4000019298470828019A37D9824235D300225A
:101B50000BE099F802C00132634454FA83F393F81E
:101B600003C0BCF1FF0FC7D1DF70D3B29B45F0D8E3
:101B70004844484510D83D4B1B78BB42BCD33A4B38
:101B80009842C2D34FF47A72394B1A6084F801A09C
:101B90002846FEF7F3FEBFE599F80130052B08D182
:101BA00099F8022002F07F0304EB430303EBD21306
:101BB000DF7499F800309944DBE72C4B08F10108F9
:101BC00018785FFA88F39842B0D295E7BDF81A000A
:101BD000030A5A1EC0B20E2A3FF6F2AE01A151F816
:101BE00022F000BF211C00004B1C00009F1C0000C5
:101BF000C1190000C1190000EB1C00004B1C0000C3
:101C0000C1190000C1190000C1190000C11900006C
:101C1000C1190000C1190000C11900002D1C0000ED
:101C2000122214492846FFF74FF9DFE6124B002B2A
:101C30003FF4C6AE00E000BF014600283FF4B9AE55
:101C4000CA788B7843EA0222ECE7022B1CD10B49BD
:101C5000F6E700BF0801002000001040000000006F
:101C6000003500006800104051350000A800002039
:101C70002000002051350000000000002835000041
:101C8000AC00002031350000B04B002B3FF498AE83
:101C900000E000BF00283FF48CAE0146D0E760B9F9
:101CA00040F20942AA4B5A8001220132D2B2A8491D
:101CB000520042F440730B80B4E703283FF680AE35
:101CC000A44B53F820402046FEF73CFCC2B21F2A2A
:101CD00028BF1F2220469E4BA118814203F1020318
:101CE000E3D010F8014B1C80F7E79B4B002B3FF42F
:101CF00067AE00E000BF014600283FF461AE027805
:101D000090E7BDF81A30012B7FF45AAE237843F0E8
:101D1000080323703CE7BDF81A30012B7FF450AE66
:101D200023786FF3C303F4E72378C3F340129B08CF
:101D300003F0020313430222ADF80E30BBE69DF818
:101D40001C300F2B3FF63CAE2344D878FEF772FCD4
:101D5000014600283FF434AE2A463046FEF786FCA2
:101D600000287FF4D9AC9DF8183013F060037FF49D
:101D700027AE9DF81920A2F10A0101293FF620AEF5
:101D80000A2AC9F810307FF403AF91E69DF81C8051
:101D900008F07F0ABAF1050F3FF60BAE4FEA4A078B
:101DA00004EB4A0A0AEBD81A9AF813004FEAD81142
:101DB000FEF740FC2AB100283FF402AE2A46014655
:101DC00033E69DF8193003F0FD02012A07D0002BFD
:101DD0007FF4EFAD9AF81F30C3F34003ABE7BDF8D3
:101DE0001A2042BB012B0AF1180A9AF8073033D1A6
:101DF0009A0720D5594B08F00F0801EB480853F813
:101E0000382027446FF35D7243F8382053F83820A8
:101E1000394442F0805243F8382053F838206FF3A9
:101E2000DB6243F83820CB7F6FF34103CB77CB7F66
:101E30006FF30003CB7700283FF46EAC01462A46CF
:101E40003046FEF713FC0023C9F8103094F8203018
:101E5000DE073FF561AC9BE69B07ECD43F4A08F0F8
:101E60000F0801EB480852F83830274443F000537C
:101E700042F838300F44FB7F43F00203FB77FB7FCF
:101E800043F00103FB77D6E79DF81810344B01F0BF
:101E90007F0403EB440303EBD113D87F4FEAD11C3B
:101EA0006FF30000D877D87F6FF38200D877002CCB
:101EB0005ED12C4C9DF814702378079EBCEBD31F89
:101EC00018D046B14FF0E023D3F8F03DDB077FF5A3
:101ED00023AC00BE20E4244B1BB12146384600E071
:101EE00000BF2369002B3FF417AC032138461D4A7D
:101EF000984711E494F90030002B07DBA068002814
:101F00003FF40AAC3246194900F0D6FEA268E389D4
:101F100032443344A260E2889BB29A42E38101D00A
:101F20003F2E0FD8236933B92078FEF71DFD002816
:101F30007FF4F2ABC6E7022138460A4A98470028E8
:101F4000F2D13DE5FEF796FFF1E700BF000000008B
:101F5000C0000020E4350000000000000000104038
:101F600008010020AC00002000000000000210402A
:101F7000D87CFEF75FFBE0B94FF0E023D3F8F03DEB
:101F8000D80700D500BE1C4B1C491D481A680B68B9
:101F90000068D21A8242FFF4BAAB1A4A03440B60BB
:101FA0001378194983F0010381F826301370FFF785
:101FB000AEBB0469079B9DF819209DF81400A0474B
:101FC000FFF7AABB114B1B78D9077FF5A5AB40F6ED
:101FD000C4120B4B9EE40D4B1B78DA077FF59CABCC
:101FE0004FF47A72064B95E4069B002B3FF494ABBA
:101FF00007989847FFF790BB00020020FC010020E3
:1020000020000020F801002000C008400801002046
:102010001FB514461A46094B05461B68D8684CB1D3
:10202000074B00910749CDE901342B4600F022F817
:1020300000F00EFC044B1C46F3E700BF2400002018
:10204000F4350000013600002F36000008B5074BBC
:10205000044613B1002100E000BF054B1868836AF5
:1020600003B19847204601F061F800BF000000006E
:10207000303600000EB403B503AB0146054853F8F3
:10208000042B0068019300F05DF802B05DF804EBEA
:1020900003B070472400002070B50D4D00260D4C94
:1020A000641BA410A64209D10B4D00260B4C01F075
:1020B0000BFB641BA410A64205D170BD55F8043B70
:1020C00001369847EEE755F8043B01369847F2E7AA
:1020D000E8360000E8360000E8360000EC36000084
:1020E00002440346934200D1704703F8011BF9E70D
:1020F0009368013B002B936010B408DA9469A34203
:1021000001DB0A2903D15DF8044B00F0E1BA136842
:10211000581C1060084619705DF8044B7047F8B5FC
:1021200006460F461446D518AC4201D1002007E000
:102130003A4614F8011B3046FFF7DAFF431CF3D18F
:10214000F8BD00002DE9F04F0D469DB014469846AD
:10215000064618B183690BB900F09AFC894B9D4281
:102160001BD175686B6ED90705D4AB899A0502D46B
:10217000A86D00F02BFDAB891B0701D52B69EBB9CE
:102180002946304600F0F6FAC0B16B6EDC070ED57A
:102190004FF0FF301DB0BDE8F08F7B4B9D4201D169
:1021A000B568DFE7794B9D4208BFF568DAE7AB8990
:1021B0009805EDD4A86D00F00AFDE9E70023CDF8FD
:1021C0000C804FF00109DFF8C881099320238DF8B6
:1021D000293030238DF82A3023469A4613F8012BF4
:1021E0000AB1252AF9D1BAEB040B0BD05B46224683
:1021F00029463046FFF793FF013000F0AA80099A84
:102200005A4409929AF80030002B00F0A280002373
:102210004FF0FF320AF1010A049307938DF853300F
:102220001A93CDE9052354460522594814F8011B99
:1022300000F034FD049AD8B9D10644BF20238DF8AC
:102240005330130744BF2B238DF853309AF80030D6
:102250002A2B15D0079A544600204FF00A0C21462D
:1022600011F8013B303B092B4ED9B0B1079214E075
:10227000A0EB0803A24609FA03F313430493D2E741
:10228000039B191D1B68002B0391BBBF5B4242F0EF
:10229000020207930793B8BF049223782E2B0CD128
:1022A00063782A2B35D1039B02341A1D1B68002B3F
:1022B0000392B8BF4FF0FF330593DFF8E4A0032289
:1022C0002178504600F0EAFC40B14023A0EB0A0020
:1022D000013403FA00F0049B0343049314F8011B38
:1022E00006222C488DF8281000F0D8FC00283FD09A
:1022F000294B1BBB039B073323F0070308330393CE
:10230000099B3B44099367E70CFB02320C46012012
:10231000A5E7002301344FF00A0C19460593204627
:1023200010F8012B303A092A03D9002BC5D00591AA
:10233000C3E70CFB012104460123F0E703AB2A4667
:1023400004A930460093154B00E000BF0746781CF7
:10235000D6D16B6ED90705D4AB899A0502D4A86D86
:1023600000F035FCAB895B063FF512AF099811E729
:1023700003AB2A4604A930460093084B00F082F8CC
:10238000E4E700BF88360000A83600006836000089
:10239000343600003E360000000000001F2100001F
:1023A0003A3600002DE9F047164699468A680746F6
:1023B0000B690C46DDF820809342B8BF13463360AA
:1023C00091F843200AB1013333602368990642BF74
:1023D000336802333360256815F0060506D104F131
:1023E000190AE36832689B1AAB4229DC94F843204F
:1023F000131E226818BF012392062ED404F1430253
:1024000049463846C047013021D023681A3454F871
:102410000E5C03F0060332680026042B54F8123CCD
:1024200008BFAD1A54F80A2C14BF002525EAE5753B
:102430009342C4BF9B1AED18B5421AD1002008E0A0
:102440000123524649463846C047013003D14FF078
:10245000FF30BDE8F0870135C3E7E1185A1C302092
:102460000233224481F8430094F8451082F8431067
:10247000C4E70123224649463846C0470130E6D02A
:102480000136D9E72DE9FF470F7E914680460C467D
:10249000782F9A460C9D01F1430207D8622F0AD883
:1024A000002F00F0D880582F00F0A38004F14205DF
:1024B00084F842703AE0A7F16303152BF6D801A126
:1024C00051F823F01D25000031250000AD24000047
:1024D000AD240000AD240000AD2400003125000033
:1024E000AD240000AD240000AD240000AD240000A8
:1024F0003D260000612500001F260000AD240000DD
:10250000AD2400005F260000AD240000612500001E
:10251000AD240000AD240000272600002B681A1D02
:102520001B682A6004F1420584F842300123A3E0CD
:1025300020682968060601F104030AD50E682B609D
:10254000002E03DA2D23764284F843305E480A23B6
:1025500019E00E6810F0400F2B6018BF36B2EFE79D
:102560002B682068191D2960010601D51E6802E04C
:102570004606FBD51E886F2F53480CBF08230A233D
:10258000002184F843106568002DA560A2BF216872
:1025900021F0040121600EB9002D4DD01546B6FB87
:1025A000F3F103FB1167C75D05F8017D37460E4661
:1025B000BB42F4D9082B0BD12368DE0708D5236969
:1025C00061689942DEBF302305F8013C05F1FF3513
:1025D000521B22614B4603AA21464046CDF800A07B
:1025E000FFF7E0FE01304CD14FF0FF3004B0BDE802
:1025F000F087354881F845702968236851F8046BE5
:1026000029601D0614D5DF0744BF43F02003236073
:102610001EB9236823F0200323601023B0E723684A
:1026200043F0200323607823284884F84530E3E70B
:10263000590648BFB6B2E6E71546BBE72B682668E1
:10264000181D6169286035061B6801D5196002E014
:102650007006FBD51980002315462361BAE72B6865
:1026600000211A1D2A601D686268284600F016FBCA
:1026700008B1401B606063682361002384F8433025
:10268000A8E723692A4649464046D0470130ABD0E7
:1026900023689B0713D4E068039B9842B8BF184691
:1026A000A4E70123324649464046D04701309BD03B
:1026B0000135E36803995B1AAB42F2DCEBE70025D6
:1026C00004F11906F5E700BF453600005636000054
:1026D000F8B50E461446054618B183690BB900F0EB
:1026E000D7F9214B9C422BD16C68A369A360A389C5
:1026F0001A072FD523696BB32369F6B220683746D2
:10270000C01A6369834204DC2146284600F02CF994
:1027100030BBA3680130013BA36023685A1C2260D0
:102720001E706369834204D0A389DB0706D50A2E95
:1027300004D12146284600F017F988B93846F8BD7B
:102740000A4B9C4201D1AC68CFE7094B9C4208BFC1
:10275000EC68CAE72146284600F00CF80028CBD0E8
:102760004FF0FF37EAE700BF88360000A8360000C8
:1027700068360000324B70B51D6806460C4625B120
:10278000AB6913B9284600F083F92E4B9C420FD158
:102790006C68A389B4F90C2019072CD4DD0611D478
:1027A0000923336042F040034FF0FF30A3813EE045
:1027B000254B9C4201D1AC68EBE7244B9C4208BFFF
:1027C000EC68E6E7580712D5616B41B104F14403A8
:1027D000994202D0304600F07DFA00236363A3895A
:1027E00023F02403A3810023636023692360A3896A
:1027F00043F00803A38123694BB9A38903F4207331
:10280000B3F5007F03D02146304600F007FAA089D7
:10281000B4F90C2010F001030AD00023A36063690F
:102820005B42A361236943B910F08000BAD170BD47
:10283000810758BF6369A360F4E70020F7E700BF92
:102840002400002088360000A8360000683600000A
:10285000062008B500F056FB012000F067FC0000E0
:102860008A892DE9F041054610070C4658D44B687B
:10287000002B05DC0B6C002B02DC0020BDE8F08196
:10288000E66A002EF9D0002312F480522F682B60E4
:1028900032D0606DA3895A0705D56368C01A636B8F
:1028A0000BB1236CC01A00230246E66A2846216A4F
:1028B000B047431CA38906D129681D292CD8294A71
:1028C000CA40D60728D50022D90462602269226056
:1028D00004D5421C01D12B6803B96065616B2F6080
:1028E0000029CAD004F14403994202D0284600F0DE
:1028F000F1F900206063C1E7216A01232846B0474F
:10290000411CC7D12B68002BC4D01D2B01D0162B26
:1029100001D12F60B1E7A38943F04003A381ADE764
:102920000F69002FA9D093070E680F600CBF4B6989
:102930000023A6EB07088B60B8F1000F9DDD43462E
:102940003A46216A2846A66AB047002806DCA389D1
:102950004FF0FF3043F04003A3818FE70744A8EB1B
:102960000008E9E70100402038B50B6905460C4630
:1029700013B90025284638BD18B183690BB900F09A
:1029800087F8144B9C421BD16C68B4F90C30002BB7
:10299000EFD0626ED00704D4990502D4A06D00F088
:1029A00015F928462146FFF75BFF636E0546DA07F7
:1029B000E0D4A3899B05DDD4A06D00F008F9D9E728
:1029C000054B9C4201D1AC68DFE7044B9C4208BF39
:1029D000EC68DAE788360000A836000068360000A8
:1029E000002310B504468360818119464366C28185
:1029F00008228361C0E90033C0E904335C30FFF78B
:102A00006FFB054B24626362044BA362044BE362D9
:102A1000044B236310BD00BF3D2F00005F2F00005B
:102A2000972F0000BB2F0000014900F0AFB800BF96
:102A30006929000070B568224D1E0E46554305F108
:102A4000740100F0B3F9044640B1002105F16802B9
:102A5000C0E900160C30A060FFF742FB204670BDB5
:102A6000014800F0B3B800BF05020020014800F0A3
:102A7000AEB800BF05020020014800F0A7B800BFB3
:102A800006020020014800F0A2B800BF06020020A4
:102A900010B50446FFF7F0FFA3691BB1BDE8104075
:102AA000FFF7F0BFC4E9123323652046124B134AE7
:102AB0001B68A262A34204BF0123A36100F020F8B7
:102AC0006060204600F01CF8A060204600F018F876
:102AD00000220421E0606068FFF782FF01220921E3
:102AE000A068FFF77DFF02221221E068FFF778FF60
:102AF0000123A361D2E700BF30360000292A00007D
:102B0000F8B50746FFF7ACFF1E4B1E68B36913B953
:102B10003046FFF7BDFF4836D6E90134013B03D507
:102B200033680BB33668F7E7B4F90C50D5B9164BD8
:102B300004F158006566E36000F047F8FFF796FF80
:102B40000822294604F15C002560A561C4E901550D
:102B5000C4E90455FFF7C4FAC4E90D55C4E9125598
:102B60002046F8BD6834D9E704213846FFF762FFF4
:102B7000044630600028D5D1FFF778FF0C233B6076
:102B8000EEE700BF303600000100FFFF2DE9F843FB
:102B90000646884600F148040027D4E90195B9F1BA
:102BA000010905D52468002CF7D13846BDE8F88323
:102BB000AB89012B07D9B5F90E30013303D0294673
:102BC0003046C04707436835E9E7704770477047AC
:102BD00070B50E46B1F90E1096B0144600291D4688
:102BE00008DAB6F90C3000222A601A0610D44FF425
:102BF00080630EE06A4600F007FA0028F1DB019AD4
:102C000002F47042A2F500535A425A412A60EEE79C
:102C100040230020236016B070BD00008B8973B57F
:102C20009D0706460C4607D504F147032360236140
:102C30000123636102B070BD01AB6A46FFF7C8FFB4
:102C400000990546304600F0B1F848B9B4F90C30A7
:102C50009A05EFD423F0030343F00203A381E3E7D3
:102C60000D4BB362A389206043F080032061A381F0
:102C7000009B6361019B5BB1B4F90E10304600F01C
:102C8000D5F928B1A38923F0030343F00103A381FD
:102C9000A0890543A581CDE7292A0000C9B20244D5
:102CA00010B59042034601D1002303E01C780130A7
:102CB0008C42F6D1184610BD0A44431E914200D101
:102CC000704710B511F8014B914203F8014FF9D14B
:102CD00010BD000037B5002943D051F8043C0C1F4B
:102CE0000190002BB8BFE41800F0C2F91E4A019809
:102CF000136833B96360146003B0BDE8304000F07E
:102D0000BDB9A34208D9256861198B4201BF196872
:102D10005B6849192160EDE71A465B680BB1A34275
:102D2000FAD911685518A5420BD1246821445418CA
:102D30001160A342E0D11C685B68214453601160BC
:102D4000DAE702D90C230360D6E7256861198B42C4
:102D500002BF19685B684919636008BF216054604D
:102D6000CAE703B030BD00BF0802002070B50E4EA8
:102D70000C460546316811B900F08CF830602146E8
:102D8000284600F087F8431C0AD0C41C24F0030432
:102D9000A04207D0211A284600F07CF8013001D16A
:102DA0004FF0FF34204670BD0C0200202DE9F041A9
:102DB000CD1C074625F0030508350C2D38BF0C2522
:102DC000002D01DBA94205D90C2300263B603046CB
:102DD000BDE8F0812E4E00F04BF933681C4634BB41
:102DE00029463846FFF7C2FF431C04464DD13468DC
:102DF0002646002E40D123683146384604EB0308AE
:102E000000F048F880453AD12168033538466D1AFC
:102E100025F0030508350C2D38BF0C252946FFF792
:102E2000A5FF01302BD023682B4423600EE02268DD
:102E3000521B1ED40B2A16D96119A342256018BF54
:102E40005960636808BF316062514B6004F10B0642
:102E5000384600F013F9231D26F00706F21AB6D003
:102E60009B1BA350B3E76268A3420CBF32605A6059
:102E7000ECE723466468B2E734467668B9E70C238A
:102E800038463B6000F0FAF8A1E72560DEE700BFB6
:102E90000802002038B50023054D044608462B6083
:102EA00000F034F9431C02D12B6803B1236038BD14
:102EB000100200201F2938B504460D4604D91623F8
:102EC00003604FF0FF3038BD426C12B152F8213030
:102ED0004BB9204600F030F82A4601462046BDE8AE
:102EE000384000F017B8012B0AD0591C03D1162323
:102EF00003600120E7E70024284642F82540984770
:102F00000020E0E7024B01461868FFF7D3BF00BF7F
:102F10002400002038B50023064D0446084611461B
:102F20002B6000F0E3F8431C02D12B6803B123604F
:102F300038BD00BF1002002000F0C8B810B50C4624
:102F4000B1F90E1000F0A0F80028ABBF636DA389A3
:102F50001B1823F48053ACBF6365A38110BD2DE91A
:102F6000F0411F468B8905460C46DB05164605D504
:102F700002230022B1F90E1000F068F8A38932464E
:102F8000B4F90E10284623F48053A3813B46BDE8D4
:102F9000F04100F017B810B50C46B1F90E1000F072
:102FA00055F8431CA38915BF606523F4805343F48F
:102FB0008053A38118BFA38110BDB1F90E1000F09A
:102FC00013B8000038B50446064D084611460022E5
:102FD0002A601A46FEF768F9431C02D12B6803B138
:102FE000236038BD1002002038B50023054D04468B
:102FF00008462B6000F05AF8431C02D12B6803B13D
:10300000236038BD1002002038B50023064D044669
:10301000084611462B6000F051F8431C02D12B6882
:1030200003B1236038BD00BF1002002038B5002373
:10303000054D044608462B6000F050F8431C02D1B1
:103040002B6803B1236038BD1002002038B5044658
:10305000064D0846114600222A601A4600F04EF836
:10306000431C02D12B6803B1236038BD100200203D
:103070000148FFF7ABBD00BF040200200148FFF785
:10308000A6BD00BF0402002038B50446064D084620
:10309000114600222A601A46FEF72EF9431C02D17F
:1030A0002B6803B1236038BD10020020024B582268
:1030B0004FF0FF301A60704710020020024B582278
:1030C0004FF0FF301A60704710020020024B582268
:1030D0004FF0FF301A60704710020020024B582258
:1030E00000201A60704700BF10020020024B5822D7
:1030F0004FF0FF301A60704710020020024B582238
:103100004FF0FF301A60704710020020054A034656
:10311000106810B103441360704703480344136000
:10312000704700BF1402002018020020FEE700BF15
:10313000626974506F73203C2033327500443A2F1B
:103140004F6E6544726976652F332D466F637573D4
:103150002F42696E686F2F5553422D4E6578742D3E
:1031600047656E2F4769744C61622F6E78702D6DC4
:10317000616B6566696C652F4C5043353553585803
:103180002F6C69622F74696E797573622D62696E36
:10319000686F2F68772F6D63752F6E78702F6D6352
:1031A00075782D73646B2F646576696365732F4C36
:1031B000504335355332382F647269766572732FF8
:1031C00066736C5F72657365742E630069203C20C2
:1031D0002875696E7433325F742946534C5F4645D7
:1031E00041545552455F534F435F464C4558434FFA
:1031F0004D4D5F434F554E5400443A2F4F6E65443A
:10320000726976652F332D466F6375732F42696E31
:10321000686F2F5553422D4E6578742D47656E2F7C
:103220004769744C61622F6E78702D6D616B6566B5
:10323000696C652F4C504335355358582F6C696273
:103240002F74696E797573622D62696E686F2F686D
:10325000772F6D63752F6E78702F6D6375782D7372
:10326000646B2F647269766572732F666C65786320
:103270006F6D6D2F66736C5F666C6578636F6D6DD7
:103280002E6300735F666C6578636F6D6D49727154
:1032900048616E646C65725B696E7374616E6365C0
:1032A0005D20213D204E554C4C002128284E554C88
:1032B0004C203D3D206261736529207C7C20284E96
:1032C000554C4C203D3D2064617461292900443AED
:1032D0002F4F6E6544726976652F332D466F637587
:1032E000732F42696E686F2F5553422D4E65787467
:1032F0002D47656E2F4769744C61622F6E78702D73
:103300006D616B6566696C652F4C5043353553585C
:10331000582F6C69622F74696E797573622D6269BA
:103320006E686F2F68772F6D63752F6E78702F6DB5
:103330006375782D73646B2F647269766572732F71
:10334000666C6578636F6D6D2F66736C5F75736106
:1033500072742E63002128284E554C4C203D3D2090
:103360006261736529207C7C20283055203D3D20FA
:1033700062617564726174655F42707329207C7C40
:1033800020283055203D3D20737263436C6F636B82
:103390005F487A29290054696E795553420054696F
:1033A0006E79555342204465766963650031323346
:1033B000343536000904464C4558434F4D4D385F6F
:1033C00044726976657249525148616E646C6572E7
:1033D0000052455345545F53657450657269706877
:1033E0006572616C526573657400464C4558434F75
:1033F0004D4D375F44726976657249525148616E2E
:10340000646C65720055534152545F57726974651C
:10341000426C6F636B696E670055534152545F5342
:103420006574426175645261746500464C45584349
:103430004F4D4D365F44726976657249525148610D
:103440006E646C657200464C4558434F4D4D355F78
:1034500044726976657249525148616E646C657256
:1034600000464C4558434F4D4D345F447269766574
:103470007249525148616E646C657200464C455801
:10348000434F4D4D335F44726976657249525148DE
:10349000616E646C657200464C4558434F4D4D3229
:1034A0005F44726976657249525148616E646C6519
:1034B0007200464C4558434F4D4D315F447269761A
:1034C000657249525148616E646C657200464C45A4
:1034D00058434F4D4D305F44726976657249525181
:1034E00048616E646C657200464C4558434F4D4DC3
:1034F0005F476574496E7374616E63650000000018
:1035000000400840001C050000400940022F060052
:103510003107000021070000D10700002D0F000037
:10352000FD0D0000000000000902290001010080DB
:10353000320904000002030000000921110100010A
:103540002222000705010340000A0705810340000D
:103550000A1201000200000040FECA0440000101FE
:103560000203010600FF0901A1010902150026FF5F
:10357000007508954081020903150026FF007508B3
:1035800095409102C00000000060084000700840B3
:10359000008008400090084000A0084000600940FA
:1035A000007009400080094000F009400B010C0147
:1035B0000D010E010F011001110112011C0200008A
:1035C0000B0001000C0001000D0001000E000100C5
:1035D0000F000100100001001100010012000100A5
:1035E0001C000200B4330000963300009E3300003C
:1035F000AD3300002C2066756E6374696F6E3A20DF
:1036000000617373657274696F6E202225732220C6
:103610006661696C65643A2066696C652022257371
:10362000222C206C696E65202564257325730A00A1
:1036300028000020232D302B2000686C4C0065668C
:1036400067454647003031323334353637383941F3
:103650004243444546003031323334353637383909
:103660006162636465660000000000000000000005
:10367000000000000000000000000000000000004A
:10368000000000000000000000000000000000003A
:10369000000000000000000000000000000000002A
:1036A000000000000000000000000000000000001A
:1036B000000000000000000000000000000000000A
:1036C0000000000000000000F8B500BFF8BC08BC16
:1036D0009E467047F8B500BFF8BC08BC9E467047D0
:0836E00060CBFF7F0100000038
:0436E80025020000B7
:0436EC0001020000D7
:1036F000001BB7007D0600003801002010000C0000
:103700000000E0FF1F00000000000000FF000000BC
:10371000FA000000280000200000000088360000A9
:10372000A83600006836000000000000000000001D
:103730000000000000000000000000000000000089
:103740000000000000000000000000000000000079
:103750000000000000000000000000000000000069
:103760000000000000000000000000000000000059
:08377000000000000000000051
:04000003000002BD3A
:00000001FF
